{
  "contractName": "Level1Completion",
  "abi": [
    {
      "inputs": [
        {
          "internalType": "address",
          "name": "_trustedForwarder",
          "type": "address"
        }
      ],
      "stateMutability": "nonpayable",
      "type": "constructor"
    },
    {
      "anonymous": false,
      "inputs": [
        {
          "indexed": true,
          "internalType": "address",
          "name": "owner",
          "type": "address"
        },
        {
          "indexed": true,
          "internalType": "address",
          "name": "approved",
          "type": "address"
        },
        {
          "indexed": true,
          "internalType": "uint256",
          "name": "tokenId",
          "type": "uint256"
        }
      ],
      "name": "Approval",
      "type": "event"
    },
    {
      "anonymous": false,
      "inputs": [
        {
          "indexed": true,
          "internalType": "address",
          "name": "owner",
          "type": "address"
        },
        {
          "indexed": true,
          "internalType": "address",
          "name": "operator",
          "type": "address"
        },
        {
          "indexed": false,
          "internalType": "bool",
          "name": "approved",
          "type": "bool"
        }
      ],
      "name": "ApprovalForAll",
      "type": "event"
    },
    {
      "anonymous": false,
      "inputs": [
        {
          "indexed": false,
          "internalType": "address",
          "name": "",
          "type": "address"
        },
        {
          "indexed": false,
          "internalType": "string",
          "name": "",
          "type": "string"
        },
        {
          "indexed": false,
          "internalType": "uint256",
          "name": "",
          "type": "uint256"
        }
      ],
      "name": "SuccessfulLevel1Mint",
      "type": "event"
    },
    {
      "anonymous": false,
      "inputs": [
        {
          "indexed": true,
          "internalType": "address",
          "name": "from",
          "type": "address"
        },
        {
          "indexed": true,
          "internalType": "address",
          "name": "to",
          "type": "address"
        },
        {
          "indexed": true,
          "internalType": "uint256",
          "name": "tokenId",
          "type": "uint256"
        }
      ],
      "name": "Transfer",
      "type": "event"
    },
    {
      "inputs": [
        {
          "internalType": "address",
          "name": "to",
          "type": "address"
        },
        {
          "internalType": "uint256",
          "name": "tokenId",
          "type": "uint256"
        }
      ],
      "name": "approve",
      "outputs": [],
      "stateMutability": "nonpayable",
      "type": "function"
    },
    {
      "inputs": [
        {
          "internalType": "address",
          "name": "owner",
          "type": "address"
        }
      ],
      "name": "balanceOf",
      "outputs": [
        {
          "internalType": "uint256",
          "name": "",
          "type": "uint256"
        }
      ],
      "stateMutability": "view",
      "type": "function",
      "constant": true
    },
    {
      "inputs": [
        {
          "internalType": "uint256",
          "name": "tokenId",
          "type": "uint256"
        }
      ],
      "name": "getApproved",
      "outputs": [
        {
          "internalType": "address",
          "name": "",
          "type": "address"
        }
      ],
      "stateMutability": "view",
      "type": "function",
      "constant": true
    },
    {
      "inputs": [
        {
          "internalType": "address",
          "name": "owner",
          "type": "address"
        },
        {
          "internalType": "address",
          "name": "operator",
          "type": "address"
        }
      ],
      "name": "isApprovedForAll",
      "outputs": [
        {
          "internalType": "bool",
          "name": "",
          "type": "bool"
        }
      ],
      "stateMutability": "view",
      "type": "function",
      "constant": true
    },
    {
      "inputs": [
        {
          "internalType": "address",
          "name": "forwarder",
          "type": "address"
        }
      ],
      "name": "isTrustedForwarder",
      "outputs": [
        {
          "internalType": "bool",
          "name": "",
          "type": "bool"
        }
      ],
      "stateMutability": "view",
      "type": "function",
      "constant": true
    },
    {
      "inputs": [],
      "name": "name",
      "outputs": [
        {
          "internalType": "string",
          "name": "",
          "type": "string"
        }
      ],
      "stateMutability": "view",
      "type": "function",
      "constant": true
    },
    {
      "inputs": [
        {
          "internalType": "uint256",
          "name": "tokenId",
          "type": "uint256"
        }
      ],
      "name": "ownerOf",
      "outputs": [
        {
          "internalType": "address",
          "name": "",
          "type": "address"
        }
      ],
      "stateMutability": "view",
      "type": "function",
      "constant": true
    },
    {
      "inputs": [
        {
          "internalType": "address",
          "name": "from",
          "type": "address"
        },
        {
          "internalType": "address",
          "name": "to",
          "type": "address"
        },
        {
          "internalType": "uint256",
          "name": "tokenId",
          "type": "uint256"
        }
      ],
      "name": "safeTransferFrom",
      "outputs": [],
      "stateMutability": "nonpayable",
      "type": "function"
    },
    {
      "inputs": [
        {
          "internalType": "address",
          "name": "from",
          "type": "address"
        },
        {
          "internalType": "address",
          "name": "to",
          "type": "address"
        },
        {
          "internalType": "uint256",
          "name": "tokenId",
          "type": "uint256"
        },
        {
          "internalType": "bytes",
          "name": "_data",
          "type": "bytes"
        }
      ],
      "name": "safeTransferFrom",
      "outputs": [],
      "stateMutability": "nonpayable",
      "type": "function"
    },
    {
      "inputs": [
        {
          "internalType": "address",
          "name": "operator",
          "type": "address"
        },
        {
          "internalType": "bool",
          "name": "approved",
          "type": "bool"
        }
      ],
      "name": "setApprovalForAll",
      "outputs": [],
      "stateMutability": "nonpayable",
      "type": "function"
    },
    {
      "inputs": [],
      "name": "symbol",
      "outputs": [
        {
          "internalType": "string",
          "name": "",
          "type": "string"
        }
      ],
      "stateMutability": "view",
      "type": "function",
      "constant": true
    },
    {
      "inputs": [
        {
          "internalType": "uint256",
          "name": "index",
          "type": "uint256"
        }
      ],
      "name": "tokenByIndex",
      "outputs": [
        {
          "internalType": "uint256",
          "name": "",
          "type": "uint256"
        }
      ],
      "stateMutability": "view",
      "type": "function",
      "constant": true
    },
    {
      "inputs": [
        {
          "internalType": "address",
          "name": "owner",
          "type": "address"
        },
        {
          "internalType": "uint256",
          "name": "index",
          "type": "uint256"
        }
      ],
      "name": "tokenOfOwnerByIndex",
      "outputs": [
        {
          "internalType": "uint256",
          "name": "",
          "type": "uint256"
        }
      ],
      "stateMutability": "view",
      "type": "function",
      "constant": true
    },
    {
      "inputs": [],
      "name": "totalSupply",
      "outputs": [
        {
          "internalType": "uint256",
          "name": "",
          "type": "uint256"
        }
      ],
      "stateMutability": "view",
      "type": "function",
      "constant": true
    },
    {
      "inputs": [
        {
          "internalType": "address",
          "name": "from",
          "type": "address"
        },
        {
          "internalType": "address",
          "name": "to",
          "type": "address"
        },
        {
          "internalType": "uint256",
          "name": "tokenId",
          "type": "uint256"
        }
      ],
      "name": "transferFrom",
      "outputs": [],
      "stateMutability": "nonpayable",
      "type": "function"
    },
    {
      "inputs": [],
      "name": "trustedForwarder",
      "outputs": [
        {
          "internalType": "address",
          "name": "",
          "type": "address"
        }
      ],
      "stateMutability": "view",
      "type": "function",
      "constant": true
    },
    {
      "inputs": [],
      "name": "versionRecipient",
      "outputs": [
        {
          "internalType": "string",
          "name": "",
          "type": "string"
        }
      ],
      "stateMutability": "view",
      "type": "function",
      "constant": true
    },
    {
      "inputs": [
        {
          "internalType": "address",
          "name": "learner",
          "type": "address"
        },
        {
          "internalType": "string",
          "name": "tokenImg",
          "type": "string"
        }
      ],
      "name": "awardCertificate",
      "outputs": [
        {
          "internalType": "uint256",
          "name": "",
          "type": "uint256"
        }
      ],
      "stateMutability": "nonpayable",
      "type": "function"
    },
    {
      "inputs": [
        {
          "internalType": "uint256",
          "name": "tokenId",
          "type": "uint256"
        }
      ],
      "name": "tokenURI",
      "outputs": [
        {
          "internalType": "string",
          "name": "",
          "type": "string"
        }
      ],
      "stateMutability": "view",
      "type": "function",
      "constant": true
    },
    {
      "inputs": [
        {
          "internalType": "bytes4",
          "name": "interfaceId",
          "type": "bytes4"
        }
      ],
      "name": "supportsInterface",
      "outputs": [
        {
          "internalType": "bool",
          "name": "",
          "type": "bool"
        }
      ],
      "stateMutability": "view",
      "type": "function",
      "constant": true
    }
  ],
  "bytecode": "0x60806040526040518060400160405280600581526020017f322e322e30000000000000000000000000000000000000000000000000000000815250600d90805190602001906200005192919062000180565b503480156200005f57600080fd5b5060405162003a1038038062003a1083398181016040528101906200008591906200029a565b6040518060400160405280600c81526020017f4c31436f6d706c6574696f6e00000000000000000000000000000000000000008152506040518060400160405280600381526020017f4c3143000000000000000000000000000000000000000000000000000000000081525081600190805190602001906200010992919062000180565b5080600290805190602001906200012292919062000180565b50505062000136816200013d60201b60201c565b5062000331565b806000806101000a81548173ffffffffffffffffffffffffffffffffffffffff021916908373ffffffffffffffffffffffffffffffffffffffff16021790555050565b8280546200018e90620002fb565b90600052602060002090601f016020900481019282620001b25760008555620001fe565b82601f10620001cd57805160ff1916838001178555620001fe565b82800160010185558215620001fe579182015b82811115620001fd578251825591602001919060010190620001e0565b5b5090506200020d919062000211565b5090565b5b808211156200022c57600081600090555060010162000212565b5090565b600080fd5b600073ffffffffffffffffffffffffffffffffffffffff82169050919050565b6000620002628262000235565b9050919050565b620002748162000255565b81146200028057600080fd5b50565b600081519050620002948162000269565b92915050565b600060208284031215620002b357620002b262000230565b5b6000620002c38482850162000283565b91505092915050565b7f4e487b7100000000000000000000000000000000000000000000000000000000600052602260045260246000fd5b600060028204905060018216806200031457607f821691505b602082108114156200032b576200032a620002cc565b5b50919050565b6136cf80620003416000396000f3fe608060405234801561001057600080fd5b506004361061012c5760003560e01c8063572b6c05116100ad57806395d89b411161007157806395d89b411461037d578063a22cb4651461039b578063b88d4fde146103b7578063c87b56dd146103d3578063e985e9c5146104035761012c565b8063572b6c051461029f5780636352211e146102cf57806370a08231146102ff5780637da0a8771461032f578063849c9b451461034d5761012c565b806323b872dd116100f457806323b872dd146101e95780632f745c591461020557806342842e0e14610235578063486ff0cd146102515780634f6ccce71461026f5761012c565b806301ffc9a71461013157806306fdde0314610161578063081812fc1461017f578063095ea7b3146101af57806318160ddd146101cb575b600080fd5b61014b6004803603810190610146919061220e565b610433565b6040516101589190612256565b60405180910390f35b610169610445565b604051610176919061230a565b60405180910390f35b61019960048036038101906101949190612362565b6104d7565b6040516101a691906123d0565b60405180910390f35b6101c960048036038101906101c49190612417565b61055c565b005b6101d3610674565b6040516101e09190612466565b60405180910390f35b61020360048036038101906101fe9190612481565b610681565b005b61021f600480360381019061021a9190612417565b6106e1565b60405161022c9190612466565b60405180910390f35b61024f600480360381019061024a9190612481565b610786565b005b6102596107a6565b604051610266919061230a565b60405180910390f35b61028960048036038101906102849190612362565b610834565b6040516102969190612466565b60405180910390f35b6102b960048036038101906102b491906124d4565b6108a5565b6040516102c69190612256565b60405180910390f35b6102e960048036038101906102e49190612362565b6108fe565b6040516102f691906123d0565b60405180910390f35b610319600480360381019061031491906124d4565b6109b0565b6040516103269190612466565b60405180910390f35b610337610a68565b60405161034491906123d0565b60405180910390f35b61036760048036038101906103629190612636565b610a91565b6040516103749190612466565b60405180910390f35b610385610b4e565b604051610392919061230a565b60405180910390f35b6103b560048036038101906103b091906126be565b610be0565b005b6103d160048036038101906103cc919061279f565b610bf6565b005b6103ed60048036038101906103e89190612362565b610c58565b6040516103fa919061230a565b60405180910390f35b61041d60048036038101906104189190612822565b610c6a565b60405161042a9190612256565b60405180910390f35b600061043e82610cfe565b9050919050565b60606001805461045490612891565b80601f016020809104026020016040519081016040528092919081815260200182805461048090612891565b80156104cd5780601f106104a2576101008083540402835291602001916104cd565b820191906000526020600020905b8154815290600101906020018083116104b057829003601f168201915b5050505050905090565b60006104e282610d78565b610521576040517f08c379a000000000000000000000000000000000000000000000000000000000815260040161051890612935565b60405180910390fd5b6005600083815260200190815260200160002060009054906101000a900473ffffffffffffffffffffffffffffffffffffffff169050919050565b6000610567826108fe565b90508073ffffffffffffffffffffffffffffffffffffffff168373ffffffffffffffffffffffffffffffffffffffff1614156105d8576040517f08c379a00000000000000000000000000000000000000000000000000000000081526004016105cf906129c7565b60405180910390fd5b8073ffffffffffffffffffffffffffffffffffffffff166105f7610de4565b73ffffffffffffffffffffffffffffffffffffffff161480610626575061062581610620610de4565b610c6a565b5b610665576040517f08c379a000000000000000000000000000000000000000000000000000000000815260040161065c90612a59565b60405180910390fd5b61066f8383610df3565b505050565b6000600980549050905090565b61069261068c610de4565b82610eac565b6106d1576040517f08c379a00000000000000000000000000000000000000000000000000000000081526004016106c890612aeb565b60405180910390fd5b6106dc838383610f8a565b505050565b60006106ec836109b0565b821061072d576040517f08c379a000000000000000000000000000000000000000000000000000000000815260040161072490612b7d565b60405180910390fd5b600760008473ffffffffffffffffffffffffffffffffffffffff1673ffffffffffffffffffffffffffffffffffffffff168152602001908152602001600020600083815260200190815260200160002054905092915050565b6107a183838360405180602001604052806000815250610bf6565b505050565b600d80546107b390612891565b80601f01602080910402602001604051908101604052809291908181526020018280546107df90612891565b801561082c5780601f106108015761010080835404028352916020019161082c565b820191906000526020600020905b81548152906001019060200180831161080f57829003601f168201915b505050505081565b600061083e610674565b821061087f576040517f08c379a000000000000000000000000000000000000000000000000000000000815260040161087690612c0f565b60405180910390fd5b6009828154811061089357610892612c2f565b5b90600052602060002001549050919050565b60008060009054906101000a900473ffffffffffffffffffffffffffffffffffffffff1673ffffffffffffffffffffffffffffffffffffffff168273ffffffffffffffffffffffffffffffffffffffff16149050919050565b6000806003600084815260200190815260200160002060009054906101000a900473ffffffffffffffffffffffffffffffffffffffff169050600073ffffffffffffffffffffffffffffffffffffffff168173ffffffffffffffffffffffffffffffffffffffff1614156109a7576040517f08c379a000000000000000000000000000000000000000000000000000000000815260040161099e90612cd0565b60405180910390fd5b80915050919050565b60008073ffffffffffffffffffffffffffffffffffffffff168273ffffffffffffffffffffffffffffffffffffffff161415610a21576040517f08c379a0000000000000000000000000000000000000000000000000000000008152600401610a1890612d62565b60405180910390fd5b600460008373ffffffffffffffffffffffffffffffffffffffff1673ffffffffffffffffffffffffffffffffffffffff168152602001908152602001600020549050919050565b60008060009054906101000a900473ffffffffffffffffffffffffffffffffffffffff16905090565b600080610a9d846109b0565b14610add576040517f08c379a0000000000000000000000000000000000000000000000000000000008152600401610ad490612df4565b60405180910390fd5b610ae7600c6111f1565b6000610af3600c611207565b9050610aff8482611215565b610b0981846113ef565b7f19d5993159bd33a0dee1bbda9a4d26e4b0ddf1aee36c3d698682f63ba144ccce848483604051610b3c93929190612e14565b60405180910390a18091505092915050565b606060028054610b5d90612891565b80601f0160208091040260200160405190810160405280929190818152602001828054610b8990612891565b8015610bd65780601f10610bab57610100808354040283529160200191610bd6565b820191906000526020600020905b815481529060010190602001808311610bb957829003601f168201915b5050505050905090565b610bf2610beb610de4565b8383611463565b5050565b610c07610c01610de4565b83610eac565b610c46576040517f08c379a0000000000000000000000000000000000000000000000000000000008152600401610c3d90612aeb565b60405180910390fd5b610c52848484846115d0565b50505050565b6060610c638261162c565b9050919050565b6000600660008473ffffffffffffffffffffffffffffffffffffffff1673ffffffffffffffffffffffffffffffffffffffff16815260200190815260200160002060008373ffffffffffffffffffffffffffffffffffffffff1673ffffffffffffffffffffffffffffffffffffffff16815260200190815260200160002060009054906101000a900460ff16905092915050565b60007f780e9d63000000000000000000000000000000000000000000000000000000007bffffffffffffffffffffffffffffffffffffffffffffffffffffffff1916827bffffffffffffffffffffffffffffffffffffffffffffffffffffffff19161480610d715750610d708261177e565b5b9050919050565b60008073ffffffffffffffffffffffffffffffffffffffff166003600084815260200190815260200160002060009054906101000a900473ffffffffffffffffffffffffffffffffffffffff1673ffffffffffffffffffffffffffffffffffffffff1614159050919050565b6000610dee611860565b905090565b816005600083815260200190815260200160002060006101000a81548173ffffffffffffffffffffffffffffffffffffffff021916908373ffffffffffffffffffffffffffffffffffffffff160217905550808273ffffffffffffffffffffffffffffffffffffffff16610e66836108fe565b73ffffffffffffffffffffffffffffffffffffffff167f8c5be1e5ebec7d5bd14f71427d1e84f3dd0314c0f7b2291e5b200ac8c7c3b92560405160405180910390a45050565b6000610eb782610d78565b610ef6576040517f08c379a0000000000000000000000000000000000000000000000000000000008152600401610eed90612ec4565b60405180910390fd5b6000610f01836108fe565b90508073ffffffffffffffffffffffffffffffffffffffff168473ffffffffffffffffffffffffffffffffffffffff161480610f7057508373ffffffffffffffffffffffffffffffffffffffff16610f58846104d7565b73ffffffffffffffffffffffffffffffffffffffff16145b80610f815750610f808185610c6a565b5b91505092915050565b8273ffffffffffffffffffffffffffffffffffffffff16610faa826108fe565b73ffffffffffffffffffffffffffffffffffffffff1614611000576040517f08c379a0000000000000000000000000000000000000000000000000000000008152600401610ff790612f56565b60405180910390fd5b600073ffffffffffffffffffffffffffffffffffffffff168273ffffffffffffffffffffffffffffffffffffffff161415611070576040517f08c379a000000000000000000000000000000000000000000000000000000000815260040161106790612fe8565b60405180910390fd5b61107b838383611897565b611086600082610df3565b6001600460008573ffffffffffffffffffffffffffffffffffffffff1673ffffffffffffffffffffffffffffffffffffffff16815260200190815260200160002060008282546110d69190613037565b925050819055506001600460008473ffffffffffffffffffffffffffffffffffffffff1673ffffffffffffffffffffffffffffffffffffffff168152602001908152602001600020600082825461112d919061306b565b92505081905550816003600083815260200190815260200160002060006101000a81548173ffffffffffffffffffffffffffffffffffffffff021916908373ffffffffffffffffffffffffffffffffffffffff160217905550808273ffffffffffffffffffffffffffffffffffffffff168473ffffffffffffffffffffffffffffffffffffffff167fddf252ad1be2c89b69c2b068fc378daa952ba7f163c4a11628f55a4df523b3ef60405160405180910390a46111ec8383836118a7565b505050565b6001816000016000828254019250508190555050565b600081600001549050919050565b600073ffffffffffffffffffffffffffffffffffffffff168273ffffffffffffffffffffffffffffffffffffffff161415611285576040517f08c379a000000000000000000000000000000000000000000000000000000000815260040161127c9061310d565b60405180910390fd5b61128e81610d78565b156112ce576040517f08c379a00000000000000000000000000000000000000000000000000000000081526004016112c590613179565b60405180910390fd5b6112da60008383611897565b6001600460008473ffffffffffffffffffffffffffffffffffffffff1673ffffffffffffffffffffffffffffffffffffffff168152602001908152602001600020600082825461132a919061306b565b92505081905550816003600083815260200190815260200160002060006101000a81548173ffffffffffffffffffffffffffffffffffffffff021916908373ffffffffffffffffffffffffffffffffffffffff160217905550808273ffffffffffffffffffffffffffffffffffffffff16600073ffffffffffffffffffffffffffffffffffffffff167fddf252ad1be2c89b69c2b068fc378daa952ba7f163c4a11628f55a4df523b3ef60405160405180910390a46113eb600083836118a7565b5050565b6113f882610d78565b611437576040517f08c379a000000000000000000000000000000000000000000000000000000000815260040161142e9061320b565b60405180910390fd5b80600b6000848152602001908152602001600020908051906020019061145e9291906120ff565b505050565b8173ffffffffffffffffffffffffffffffffffffffff168373ffffffffffffffffffffffffffffffffffffffff1614156114d2576040517f08c379a00000000000000000000000000000000000000000000000000000000081526004016114c990613277565b60405180910390fd5b80600660008573ffffffffffffffffffffffffffffffffffffffff1673ffffffffffffffffffffffffffffffffffffffff16815260200190815260200160002060008473ffffffffffffffffffffffffffffffffffffffff1673ffffffffffffffffffffffffffffffffffffffff16815260200190815260200160002060006101000a81548160ff0219169083151502179055508173ffffffffffffffffffffffffffffffffffffffff168373ffffffffffffffffffffffffffffffffffffffff167f17307eab39ab6107e8899845ad3d59bd9653f200f220920489ca2b5937696c31836040516115c39190612256565b60405180910390a3505050565b6115db848484610f8a565b6115e7848484846118ac565b611626576040517f08c379a000000000000000000000000000000000000000000000000000000000815260040161161d90613309565b60405180910390fd5b50505050565b606061163782610d78565b611676576040517f08c379a000000000000000000000000000000000000000000000000000000000815260040161166d9061339b565b60405180910390fd5b6000600b6000848152602001908152602001600020805461169690612891565b80601f01602080910402602001604051908101604052809291908181526020018280546116c290612891565b801561170f5780601f106116e45761010080835404028352916020019161170f565b820191906000526020600020905b8154815290600101906020018083116116f257829003601f168201915b505050505090506000611720611a34565b9050600081511415611736578192505050611779565b60008251111561176b5780826040516020016117539291906133f7565b60405160208183030381529060405292505050611779565b61177484611a4b565b925050505b919050565b60007f80ac58cd000000000000000000000000000000000000000000000000000000007bffffffffffffffffffffffffffffffffffffffffffffffffffffffff1916827bffffffffffffffffffffffffffffffffffffffffffffffffffffffff1916148061184957507f5b5e139f000000000000000000000000000000000000000000000000000000007bffffffffffffffffffffffffffffffffffffffffffffffffffffffff1916827bffffffffffffffffffffffffffffffffffffffffffffffffffffffff1916145b80611859575061185882611af2565b5b9050919050565b6000601460003690501015801561187c575061187b336108a5565b5b1561189057601436033560601c9050611894565b3390505b90565b6118a2838383611b5c565b505050565b505050565b60006118cd8473ffffffffffffffffffffffffffffffffffffffff16611c70565b15611a27578373ffffffffffffffffffffffffffffffffffffffff1663150b7a026118f6610de4565b8786866040518563ffffffff1660e01b81526004016119189493929190613470565b6020604051808303816000875af192505050801561195457506040513d601f19601f8201168201806040525081019061195191906134d1565b60015b6119d7573d8060008114611984576040519150601f19603f3d011682016040523d82523d6000602084013e611989565b606091505b506000815114156119cf576040517f08c379a00000000000000000000000000000000000000000000000000000000081526004016119c690613309565b60405180910390fd5b805181602001fd5b63150b7a0260e01b7bffffffffffffffffffffffffffffffffffffffffffffffffffffffff1916817bffffffffffffffffffffffffffffffffffffffffffffffffffffffff191614915050611a2c565b600190505b949350505050565b606060405180602001604052806000815250905090565b6060611a5682610d78565b611a95576040517f08c379a0000000000000000000000000000000000000000000000000000000008152600401611a8c90613570565b60405180910390fd5b6000611a9f611a34565b90506000815111611abf5760405180602001604052806000815250611aea565b80611ac984611c93565b604051602001611ada9291906133f7565b6040516020818303038152906040525b915050919050565b60007f01ffc9a7000000000000000000000000000000000000000000000000000000007bffffffffffffffffffffffffffffffffffffffffffffffffffffffff1916827bffffffffffffffffffffffffffffffffffffffffffffffffffffffff1916149050919050565b611b67838383611df4565b600073ffffffffffffffffffffffffffffffffffffffff168373ffffffffffffffffffffffffffffffffffffffff161415611baa57611ba581611df9565b611be9565b8173ffffffffffffffffffffffffffffffffffffffff168373ffffffffffffffffffffffffffffffffffffffff1614611be857611be78382611e42565b5b5b600073ffffffffffffffffffffffffffffffffffffffff168273ffffffffffffffffffffffffffffffffffffffff161415611c2c57611c2781611faf565b611c6b565b8273ffffffffffffffffffffffffffffffffffffffff168273ffffffffffffffffffffffffffffffffffffffff1614611c6a57611c698282612080565b5b5b505050565b6000808273ffffffffffffffffffffffffffffffffffffffff163b119050919050565b60606000821415611cdb576040518060400160405280600181526020017f30000000000000000000000000000000000000000000000000000000000000008152509050611def565b600082905060005b60008214611d0d578080611cf690613590565b915050600a82611d069190613608565b9150611ce3565b60008167ffffffffffffffff811115611d2957611d2861250b565b5b6040519080825280601f01601f191660200182016040528015611d5b5781602001600182028036833780820191505090505b5090505b60008514611de857600182611d749190613037565b9150600a85611d839190613639565b6030611d8f919061306b565b60f81b818381518110611da557611da4612c2f565b5b60200101907effffffffffffffffffffffffffffffffffffffffffffffffffffffffffffff1916908160001a905350600a85611de19190613608565b9450611d5f565b8093505050505b919050565b505050565b600980549050600a600083815260200190815260200160002081905550600981908060018154018082558091505060019003906000526020600020016000909190919091505550565b60006001611e4f846109b0565b611e599190613037565b9050600060086000848152602001908152602001600020549050818114611f3e576000600760008673ffffffffffffffffffffffffffffffffffffffff1673ffffffffffffffffffffffffffffffffffffffff168152602001908152602001600020600084815260200190815260200160002054905080600760008773ffffffffffffffffffffffffffffffffffffffff1673ffffffffffffffffffffffffffffffffffffffff168152602001908152602001600020600084815260200190815260200160002081905550816008600083815260200190815260200160002081905550505b6008600084815260200190815260200160002060009055600760008573ffffffffffffffffffffffffffffffffffffffff1673ffffffffffffffffffffffffffffffffffffffff16815260200190815260200160002060008381526020019081526020016000206000905550505050565b60006001600980549050611fc39190613037565b90506000600a6000848152602001908152602001600020549050600060098381548110611ff357611ff2612c2f565b5b90600052602060002001549050806009838154811061201557612014612c2f565b5b906000526020600020018190555081600a600083815260200190815260200160002081905550600a60008581526020019081526020016000206000905560098054806120645761206361366a565b5b6001900381819060005260206000200160009055905550505050565b600061208b836109b0565b905081600760008573ffffffffffffffffffffffffffffffffffffffff1673ffffffffffffffffffffffffffffffffffffffff168152602001908152602001600020600083815260200190815260200160002081905550806008600084815260200190815260200160002081905550505050565b82805461210b90612891565b90600052602060002090601f01602090048101928261212d5760008555612174565b82601f1061214657805160ff1916838001178555612174565b82800160010185558215612174579182015b82811115612173578251825591602001919060010190612158565b5b5090506121819190612185565b5090565b5b8082111561219e576000816000905550600101612186565b5090565b6000604051905090565b600080fd5b600080fd5b60007fffffffff0000000000000000000000000000000000000000000000000000000082169050919050565b6121eb816121b6565b81146121f657600080fd5b50565b600081359050612208816121e2565b92915050565b600060208284031215612224576122236121ac565b5b6000612232848285016121f9565b91505092915050565b60008115159050919050565b6122508161223b565b82525050565b600060208201905061226b6000830184612247565b92915050565b600081519050919050565b600082825260208201905092915050565b60005b838110156122ab578082015181840152602081019050612290565b838111156122ba576000848401525b50505050565b6000601f19601f8301169050919050565b60006122dc82612271565b6122e6818561227c565b93506122f681856020860161228d565b6122ff816122c0565b840191505092915050565b6000602082019050818103600083015261232481846122d1565b905092915050565b6000819050919050565b61233f8161232c565b811461234a57600080fd5b50565b60008135905061235c81612336565b92915050565b600060208284031215612378576123776121ac565b5b60006123868482850161234d565b91505092915050565b600073ffffffffffffffffffffffffffffffffffffffff82169050919050565b60006123ba8261238f565b9050919050565b6123ca816123af565b82525050565b60006020820190506123e560008301846123c1565b92915050565b6123f4816123af565b81146123ff57600080fd5b50565b600081359050612411816123eb565b92915050565b6000806040838503121561242e5761242d6121ac565b5b600061243c85828601612402565b925050602061244d8582860161234d565b9150509250929050565b6124608161232c565b82525050565b600060208201905061247b6000830184612457565b92915050565b60008060006060848603121561249a576124996121ac565b5b60006124a886828701612402565b93505060206124b986828701612402565b92505060406124ca8682870161234d565b9150509250925092565b6000602082840312156124ea576124e96121ac565b5b60006124f884828501612402565b91505092915050565b600080fd5b600080fd5b7f4e487b7100000000000000000000000000000000000000000000000000000000600052604160045260246000fd5b612543826122c0565b810181811067ffffffffffffffff821117156125625761256161250b565b5b80604052505050565b60006125756121a2565b9050612581828261253a565b919050565b600067ffffffffffffffff8211156125a1576125a061250b565b5b6125aa826122c0565b9050602081019050919050565b82818337600083830152505050565b60006125d96125d484612586565b61256b565b9050828152602081018484840111156125f5576125f4612506565b5b6126008482856125b7565b509392505050565b600082601f83011261261d5761261c612501565b5b813561262d8482602086016125c6565b91505092915050565b6000806040838503121561264d5761264c6121ac565b5b600061265b85828601612402565b925050602083013567ffffffffffffffff81111561267c5761267b6121b1565b5b61268885828601612608565b9150509250929050565b61269b8161223b565b81146126a657600080fd5b50565b6000813590506126b881612692565b92915050565b600080604083850312156126d5576126d46121ac565b5b60006126e385828601612402565b92505060206126f4858286016126a9565b9150509250929050565b600067ffffffffffffffff8211156127195761271861250b565b5b612722826122c0565b9050602081019050919050565b600061274261273d846126fe565b61256b565b90508281526020810184848401111561275e5761275d612506565b5b6127698482856125b7565b509392505050565b600082601f83011261278657612785612501565b5b813561279684826020860161272f565b91505092915050565b600080600080608085870312156127b9576127b86121ac565b5b60006127c787828801612402565b94505060206127d887828801612402565b93505060406127e98782880161234d565b925050606085013567ffffffffffffffff81111561280a576128096121b1565b5b61281687828801612771565b91505092959194509250565b60008060408385031215612839576128386121ac565b5b600061284785828601612402565b925050602061285885828601612402565b9150509250929050565b7f4e487b7100000000000000000000000000000000000000000000000000000000600052602260045260246000fd5b600060028204905060018216806128a957607f821691505b602082108114156128bd576128bc612862565b5b50919050565b7f4552433732313a20617070726f76656420717565727920666f72206e6f6e657860008201527f697374656e7420746f6b656e0000000000000000000000000000000000000000602082015250565b600061291f602c8361227c565b915061292a826128c3565b604082019050919050565b6000602082019050818103600083015261294e81612912565b9050919050565b7f4552433732313a20617070726f76616c20746f2063757272656e74206f776e6560008201527f7200000000000000000000000000000000000000000000000000000000000000602082015250565b60006129b160218361227c565b91506129bc82612955565b604082019050919050565b600060208201905081810360008301526129e0816129a4565b9050919050565b7f4552433732313a20617070726f76652063616c6c6572206973206e6f74206f7760008201527f6e6572206e6f7220617070726f76656420666f7220616c6c0000000000000000602082015250565b6000612a4360388361227c565b9150612a4e826129e7565b604082019050919050565b60006020820190508181036000830152612a7281612a36565b9050919050565b7f4552433732313a207472616e736665722063616c6c6572206973206e6f74206f60008201527f776e6572206e6f7220617070726f766564000000000000000000000000000000602082015250565b6000612ad560318361227c565b9150612ae082612a79565b604082019050919050565b60006020820190508181036000830152612b0481612ac8565b9050919050565b7f455243373231456e756d657261626c653a206f776e657220696e646578206f7560008201527f74206f6620626f756e6473000000000000000000000000000000000000000000602082015250565b6000612b67602b8361227c565b9150612b7282612b0b565b604082019050919050565b60006020820190508181036000830152612b9681612b5a565b9050919050565b7f455243373231456e756d657261626c653a20676c6f62616c20696e646578206f60008201527f7574206f6620626f756e64730000000000000000000000000000000000000000602082015250565b6000612bf9602c8361227c565b9150612c0482612b9d565b604082019050919050565b60006020820190508181036000830152612c2881612bec565b9050919050565b7f4e487b7100000000000000000000000000000000000000000000000000000000600052603260045260246000fd5b7f4552433732313a206f776e657220717565727920666f72206e6f6e657869737460008201527f656e7420746f6b656e0000000000000000000000000000000000000000000000602082015250565b6000612cba60298361227c565b9150612cc582612c5e565b604082019050919050565b60006020820190508181036000830152612ce981612cad565b9050919050565b7f4552433732313a2062616c616e636520717565727920666f7220746865207a6560008201527f726f206164647265737300000000000000000000000000000000000000000000602082015250565b6000612d4c602a8361227c565b9150612d5782612cf0565b604082019050919050565b60006020820190508181036000830152612d7b81612d3f565b9050919050565b7f6c6561726e65722068617320616c7265616479206265656e206177617264656460008201527f207468697320746f6b656e000000000000000000000000000000000000000000602082015250565b6000612dde602b8361227c565b9150612de982612d82565b604082019050919050565b60006020820190508181036000830152612e0d81612dd1565b9050919050565b6000606082019050612e2960008301866123c1565b8181036020830152612e3b81856122d1565b9050612e4a6040830184612457565b949350505050565b7f4552433732313a206f70657261746f7220717565727920666f72206e6f6e657860008201527f697374656e7420746f6b656e0000000000000000000000000000000000000000602082015250565b6000612eae602c8361227c565b9150612eb982612e52565b604082019050919050565b60006020820190508181036000830152612edd81612ea1565b9050919050565b7f4552433732313a207472616e736665722066726f6d20696e636f72726563742060008201527f6f776e6572000000000000000000000000000000000000000000000000000000602082015250565b6000612f4060258361227c565b9150612f4b82612ee4565b604082019050919050565b60006020820190508181036000830152612f6f81612f33565b9050919050565b7f4552433732313a207472616e7366657220746f20746865207a65726f2061646460008201527f7265737300000000000000000000000000000000000000000000000000000000602082015250565b6000612fd260248361227c565b9150612fdd82612f76565b604082019050919050565b6000602082019050818103600083015261300181612fc5565b9050919050565b7f4e487b7100000000000000000000000000000000000000000000000000000000600052601160045260246000fd5b60006130428261232c565b915061304d8361232c565b9250828210156130605761305f613008565b5b828203905092915050565b60006130768261232c565b91506130818361232c565b9250827fffffffffffffffffffffffffffffffffffffffffffffffffffffffffffffffff038211156130b6576130b5613008565b5b828201905092915050565b7f4552433732313a206d696e7420746f20746865207a65726f2061646472657373600082015250565b60006130f760208361227c565b9150613102826130c1565b602082019050919050565b60006020820190508181036000830152613126816130ea565b9050919050565b7f4552433732313a20746f6b656e20616c7265616479206d696e74656400000000600082015250565b6000613163601c8361227c565b915061316e8261312d565b602082019050919050565b6000602082019050818103600083015261319281613156565b9050919050565b7f45524337323155524953746f726167653a2055524920736574206f66206e6f6e60008201527f6578697374656e7420746f6b656e000000000000000000000000000000000000602082015250565b60006131f5602e8361227c565b915061320082613199565b604082019050919050565b60006020820190508181036000830152613224816131e8565b9050919050565b7f4552433732313a20617070726f766520746f2063616c6c657200000000000000600082015250565b600061326160198361227c565b915061326c8261322b565b602082019050919050565b6000602082019050818103600083015261329081613254565b9050919050565b7f4552433732313a207472616e7366657220746f206e6f6e20455243373231526560008201527f63656976657220696d706c656d656e7465720000000000000000000000000000602082015250565b60006132f360328361227c565b91506132fe82613297565b604082019050919050565b60006020820190508181036000830152613322816132e6565b9050919050565b7f45524337323155524953746f726167653a2055524920717565727920666f722060008201527f6e6f6e6578697374656e7420746f6b656e000000000000000000000000000000602082015250565b600061338560318361227c565b915061339082613329565b604082019050919050565b600060208201905081810360008301526133b481613378565b9050919050565b600081905092915050565b60006133d182612271565b6133db81856133bb565b93506133eb81856020860161228d565b80840191505092915050565b600061340382856133c6565b915061340f82846133c6565b91508190509392505050565b600081519050919050565b600082825260208201905092915050565b60006134428261341b565b61344c8185613426565b935061345c81856020860161228d565b613465816122c0565b840191505092915050565b600060808201905061348560008301876123c1565b61349260208301866123c1565b61349f6040830185612457565b81810360608301526134b18184613437565b905095945050505050565b6000815190506134cb816121e2565b92915050565b6000602082840312156134e7576134e66121ac565b5b60006134f5848285016134bc565b91505092915050565b7f4552433732314d657461646174613a2055524920717565727920666f72206e6f60008201527f6e6578697374656e7420746f6b656e0000000000000000000000000000000000602082015250565b600061355a602f8361227c565b9150613565826134fe565b604082019050919050565b600060208201905081810360008301526135898161354d565b9050919050565b600061359b8261232c565b91507fffffffffffffffffffffffffffffffffffffffffffffffffffffffffffffffff8214156135ce576135cd613008565b5b600182019050919050565b7f4e487b7100000000000000000000000000000000000000000000000000000000600052601260045260246000fd5b60006136138261232c565b915061361e8361232c565b92508261362e5761362d6135d9565b5b828204905092915050565b60006136448261232c565b915061364f8361232c565b92508261365f5761365e6135d9565b5b828206905092915050565b7f4e487b7100000000000000000000000000000000000000000000000000000000600052603160045260246000fdfea2646970667358221220e1b99c3461eda4ef6e28ca3dfa0fca7dfed680ad31cda3693f106db6a882ad5664736f6c634300080a0033",
  "immutableReferences": {},
  "source": "// SPDX-License-Identifier: MIT \npragma solidity ^0.8.10;  \n\nimport \"../node_modules/@openzeppelin/contracts/token/ERC721/extensions/ERC721URIStorage.sol\";\nimport \"../node_modules/@openzeppelin/contracts/token/ERC721/extensions/ERC721Enumerable.sol\";\nimport \"@openzeppelin/contracts/utils/Counters.sol\";\nimport \"@opengsn/contracts/src/BaseRelayRecipient.sol\";\n\n\ncontract Level1Completion is BaseRelayRecipient, ERC721Enumerable, ERC721URIStorage {  \n\n    using Counters for Counters.Counter;\n    Counters.Counter private _tokenIds; \n\n  \n        constructor(address _trustedForwarder) ERC721(\"L1Completion\",\"L1C\") {\n        _setTrustedForwarder(_trustedForwarder);\n    } \n\n\n    string public override versionRecipient = \"2.2.0\";\n\n    event SuccessfulLevel1Mint(address, string, uint256); \n\n\n    function awardCertificate(address learner, string memory tokenImg) public returns (uint256) {\n        require(balanceOf(learner) == 0, \"learner has already been awarded this token\");\n        _tokenIds.increment();\n\n        uint256 newItemId = _tokenIds.current();\n        _mint(learner, newItemId);\n        _setTokenURI(newItemId, tokenImg);\n\n        emit SuccessfulLevel1Mint(learner, tokenImg, newItemId);\n\n        return newItemId;\n    }\n\n    //override functions for BaseRelay\n\n    function _msgSender() internal view override(Context, BaseRelayRecipient) returns (address sender) {\n        sender = BaseRelayRecipient._msgSender();\n  }\n\n    function _msgData() internal view override(Context, BaseRelayRecipient) returns (bytes memory) {\n        return BaseRelayRecipient._msgData();\n  }\n\n  //override functions for ERC721 Enummerable\n\n    function _beforeTokenTransfer(address from, address to, uint256 tokenId)\n        internal\n        override(ERC721, ERC721Enumerable)\n    {\n        super._beforeTokenTransfer(from, to, tokenId);\n    }\n\n    function _burn(uint256 tokenId) internal override(ERC721, ERC721URIStorage) {\n        super._burn(tokenId);\n    }\n\n    function tokenURI(uint256 tokenId)\n        public\n        view\n        override(ERC721, ERC721URIStorage)\n        returns (string memory)\n    {\n        return super.tokenURI(tokenId);\n    }\n\n    function supportsInterface(bytes4 interfaceId)\n        public\n        view\n        override(ERC721, ERC721Enumerable)\n        returns (bool)\n    {\n        return super.supportsInterface(interfaceId);\n    }\n\n}\n",
  "sourcePath": "/Users/peter/Development/Level1DAO/react-app-gasless/contracts/Level1Completion.sol",
  "compiler": {
    "name": "solc",
    "version": "0.8.10+commit.fc410830.Emscripten.clang"
  },
  "schemaVersion": "3.4.3",
  "updatedAt": "2022-03-01T16:04:47.405Z",
  "networkType": "ethereum",
  "devdoc": {
    "kind": "dev",
    "methods": {
      "approve(address,uint256)": {
        "details": "See {IERC721-approve}."
      },
      "balanceOf(address)": {
        "details": "See {IERC721-balanceOf}."
      },
      "getApproved(uint256)": {
        "details": "See {IERC721-getApproved}."
      },
      "isApprovedForAll(address,address)": {
        "details": "See {IERC721-isApprovedForAll}."
      },
      "name()": {
        "details": "See {IERC721Metadata-name}."
      },
      "ownerOf(uint256)": {
        "details": "See {IERC721-ownerOf}."
      },
      "safeTransferFrom(address,address,uint256)": {
        "details": "See {IERC721-safeTransferFrom}."
      },
      "safeTransferFrom(address,address,uint256,bytes)": {
        "details": "See {IERC721-safeTransferFrom}."
      },
      "setApprovalForAll(address,bool)": {
        "details": "See {IERC721-setApprovalForAll}."
      },
      "symbol()": {
        "details": "See {IERC721Metadata-symbol}."
      },
      "tokenByIndex(uint256)": {
        "details": "See {IERC721Enumerable-tokenByIndex}."
      },
      "tokenOfOwnerByIndex(address,uint256)": {
        "details": "See {IERC721Enumerable-tokenOfOwnerByIndex}."
      },
      "totalSupply()": {
        "details": "See {IERC721Enumerable-totalSupply}."
      },
      "transferFrom(address,address,uint256)": {
        "details": "See {IERC721-transferFrom}."
      }
    },
    "version": 1
  },
  "userdoc": {
    "kind": "user",
    "methods": {
      "isTrustedForwarder(address)": {
        "notice": "return if the forwarder is trusted to forward relayed transactions to us. the forwarder is required to verify the sender's signature, and verify the call is not a replay."
      }
    },
    "version": 1
  }
}