{
  "contractName": "RelayHub",
  "abi": [
    {
      "inputs": [
        {
          "internalType": "contract IStakeManager",
          "name": "_stakeManager",
          "type": "address"
        },
        {
          "internalType": "address",
          "name": "_penalizer",
          "type": "address"
        },
        {
          "internalType": "uint256",
          "name": "_maxWorkerCount",
          "type": "uint256"
        },
        {
          "internalType": "uint256",
          "name": "_gasReserve",
          "type": "uint256"
        },
        {
          "internalType": "uint256",
          "name": "_postOverhead",
          "type": "uint256"
        },
        {
          "internalType": "uint256",
          "name": "_gasOverhead",
          "type": "uint256"
        },
        {
          "internalType": "uint256",
          "name": "_maximumRecipientDeposit",
          "type": "uint256"
        },
        {
          "internalType": "uint256",
          "name": "_minimumUnstakeDelay",
          "type": "uint256"
        },
        {
          "internalType": "uint256",
          "name": "_minimumStake",
          "type": "uint256"
        },
        {
          "internalType": "uint256",
          "name": "_dataGasCostPerByte",
          "type": "uint256"
        },
        {
          "internalType": "uint256",
          "name": "_externalCallDataCostOverhead",
          "type": "uint256"
        }
      ],
      "stateMutability": "nonpayable",
      "type": "constructor"
    },
    {
      "anonymous": false,
      "inputs": [
        {
          "indexed": true,
          "internalType": "address",
          "name": "paymaster",
          "type": "address"
        },
        {
          "indexed": true,
          "internalType": "address",
          "name": "from",
          "type": "address"
        },
        {
          "indexed": false,
          "internalType": "uint256",
          "name": "amount",
          "type": "uint256"
        }
      ],
      "name": "Deposited",
      "type": "event"
    },
    {
      "anonymous": false,
      "inputs": [
        {
          "indexed": false,
          "internalType": "uint256",
          "name": "fromBlock",
          "type": "uint256"
        }
      ],
      "name": "HubDeprecated",
      "type": "event"
    },
    {
      "anonymous": false,
      "inputs": [
        {
          "indexed": true,
          "internalType": "address",
          "name": "previousOwner",
          "type": "address"
        },
        {
          "indexed": true,
          "internalType": "address",
          "name": "newOwner",
          "type": "address"
        }
      ],
      "name": "OwnershipTransferred",
      "type": "event"
    },
    {
      "anonymous": false,
      "inputs": [
        {
          "components": [
            {
              "internalType": "uint256",
              "name": "maxWorkerCount",
              "type": "uint256"
            },
            {
              "internalType": "uint256",
              "name": "gasReserve",
              "type": "uint256"
            },
            {
              "internalType": "uint256",
              "name": "postOverhead",
              "type": "uint256"
            },
            {
              "internalType": "uint256",
              "name": "gasOverhead",
              "type": "uint256"
            },
            {
              "internalType": "uint256",
              "name": "maximumRecipientDeposit",
              "type": "uint256"
            },
            {
              "internalType": "uint256",
              "name": "minimumUnstakeDelay",
              "type": "uint256"
            },
            {
              "internalType": "uint256",
              "name": "minimumStake",
              "type": "uint256"
            },
            {
              "internalType": "uint256",
              "name": "dataGasCostPerByte",
              "type": "uint256"
            },
            {
              "internalType": "uint256",
              "name": "externalCallDataCostOverhead",
              "type": "uint256"
            }
          ],
          "indexed": false,
          "internalType": "struct IRelayHub.RelayHubConfig",
          "name": "config",
          "type": "tuple"
        }
      ],
      "name": "RelayHubConfigured",
      "type": "event"
    },
    {
      "anonymous": false,
      "inputs": [
        {
          "indexed": true,
          "internalType": "address",
          "name": "relayManager",
          "type": "address"
        },
        {
          "indexed": false,
          "internalType": "uint256",
          "name": "baseRelayFee",
          "type": "uint256"
        },
        {
          "indexed": false,
          "internalType": "uint256",
          "name": "pctRelayFee",
          "type": "uint256"
        },
        {
          "indexed": false,
          "internalType": "string",
          "name": "relayUrl",
          "type": "string"
        }
      ],
      "name": "RelayServerRegistered",
      "type": "event"
    },
    {
      "anonymous": false,
      "inputs": [
        {
          "indexed": true,
          "internalType": "address",
          "name": "relayManager",
          "type": "address"
        },
        {
          "indexed": false,
          "internalType": "address[]",
          "name": "newRelayWorkers",
          "type": "address[]"
        },
        {
          "indexed": false,
          "internalType": "uint256",
          "name": "workersCount",
          "type": "uint256"
        }
      ],
      "name": "RelayWorkersAdded",
      "type": "event"
    },
    {
      "anonymous": false,
      "inputs": [
        {
          "indexed": true,
          "internalType": "address",
          "name": "relayManager",
          "type": "address"
        },
        {
          "indexed": true,
          "internalType": "address",
          "name": "paymaster",
          "type": "address"
        },
        {
          "indexed": true,
          "internalType": "address",
          "name": "from",
          "type": "address"
        },
        {
          "indexed": false,
          "internalType": "address",
          "name": "to",
          "type": "address"
        },
        {
          "indexed": false,
          "internalType": "address",
          "name": "relayWorker",
          "type": "address"
        },
        {
          "indexed": false,
          "internalType": "bytes4",
          "name": "selector",
          "type": "bytes4"
        },
        {
          "indexed": false,
          "internalType": "uint256",
          "name": "innerGasUsed",
          "type": "uint256"
        },
        {
          "indexed": false,
          "internalType": "bytes",
          "name": "reason",
          "type": "bytes"
        }
      ],
      "name": "TransactionRejectedByPaymaster",
      "type": "event"
    },
    {
      "anonymous": false,
      "inputs": [
        {
          "indexed": true,
          "internalType": "address",
          "name": "relayManager",
          "type": "address"
        },
        {
          "indexed": true,
          "internalType": "address",
          "name": "relayWorker",
          "type": "address"
        },
        {
          "indexed": true,
          "internalType": "address",
          "name": "from",
          "type": "address"
        },
        {
          "indexed": false,
          "internalType": "address",
          "name": "to",
          "type": "address"
        },
        {
          "indexed": false,
          "internalType": "address",
          "name": "paymaster",
          "type": "address"
        },
        {
          "indexed": false,
          "internalType": "bytes4",
          "name": "selector",
          "type": "bytes4"
        },
        {
          "indexed": false,
          "internalType": "enum IRelayHub.RelayCallStatus",
          "name": "status",
          "type": "uint8"
        },
        {
          "indexed": false,
          "internalType": "uint256",
          "name": "charge",
          "type": "uint256"
        }
      ],
      "name": "TransactionRelayed",
      "type": "event"
    },
    {
      "anonymous": false,
      "inputs": [
        {
          "indexed": false,
          "internalType": "enum IRelayHub.RelayCallStatus",
          "name": "status",
          "type": "uint8"
        },
        {
          "indexed": false,
          "internalType": "bytes",
          "name": "returnValue",
          "type": "bytes"
        }
      ],
      "name": "TransactionResult",
      "type": "event"
    },
    {
      "anonymous": false,
      "inputs": [
        {
          "indexed": true,
          "internalType": "address",
          "name": "account",
          "type": "address"
        },
        {
          "indexed": true,
          "internalType": "address",
          "name": "dest",
          "type": "address"
        },
        {
          "indexed": false,
          "internalType": "uint256",
          "name": "amount",
          "type": "uint256"
        }
      ],
      "name": "Withdrawn",
      "type": "event"
    },
    {
      "inputs": [],
      "name": "G_NONZERO",
      "outputs": [
        {
          "internalType": "uint256",
          "name": "",
          "type": "uint256"
        }
      ],
      "stateMutability": "view",
      "type": "function",
      "constant": true
    },
    {
      "inputs": [],
      "name": "deprecationBlock",
      "outputs": [
        {
          "internalType": "uint256",
          "name": "",
          "type": "uint256"
        }
      ],
      "stateMutability": "view",
      "type": "function",
      "constant": true
    },
    {
      "inputs": [],
      "name": "owner",
      "outputs": [
        {
          "internalType": "address",
          "name": "",
          "type": "address"
        }
      ],
      "stateMutability": "view",
      "type": "function",
      "constant": true
    },
    {
      "inputs": [],
      "name": "penalizer",
      "outputs": [
        {
          "internalType": "address",
          "name": "",
          "type": "address"
        }
      ],
      "stateMutability": "view",
      "type": "function",
      "constant": true
    },
    {
      "inputs": [],
      "name": "renounceOwnership",
      "outputs": [],
      "stateMutability": "nonpayable",
      "type": "function"
    },
    {
      "inputs": [],
      "name": "stakeManager",
      "outputs": [
        {
          "internalType": "contract IStakeManager",
          "name": "",
          "type": "address"
        }
      ],
      "stateMutability": "view",
      "type": "function",
      "constant": true
    },
    {
      "inputs": [
        {
          "internalType": "address",
          "name": "newOwner",
          "type": "address"
        }
      ],
      "name": "transferOwnership",
      "outputs": [],
      "stateMutability": "nonpayable",
      "type": "function"
    },
    {
      "inputs": [],
      "name": "versionHub",
      "outputs": [
        {
          "internalType": "string",
          "name": "",
          "type": "string"
        }
      ],
      "stateMutability": "view",
      "type": "function",
      "constant": true
    },
    {
      "inputs": [
        {
          "internalType": "address",
          "name": "",
          "type": "address"
        }
      ],
      "name": "workerCount",
      "outputs": [
        {
          "internalType": "uint256",
          "name": "",
          "type": "uint256"
        }
      ],
      "stateMutability": "view",
      "type": "function",
      "constant": true
    },
    {
      "inputs": [
        {
          "internalType": "address",
          "name": "",
          "type": "address"
        }
      ],
      "name": "workerToManager",
      "outputs": [
        {
          "internalType": "address",
          "name": "",
          "type": "address"
        }
      ],
      "stateMutability": "view",
      "type": "function",
      "constant": true
    },
    {
      "inputs": [],
      "name": "getConfiguration",
      "outputs": [
        {
          "components": [
            {
              "internalType": "uint256",
              "name": "maxWorkerCount",
              "type": "uint256"
            },
            {
              "internalType": "uint256",
              "name": "gasReserve",
              "type": "uint256"
            },
            {
              "internalType": "uint256",
              "name": "postOverhead",
              "type": "uint256"
            },
            {
              "internalType": "uint256",
              "name": "gasOverhead",
              "type": "uint256"
            },
            {
              "internalType": "uint256",
              "name": "maximumRecipientDeposit",
              "type": "uint256"
            },
            {
              "internalType": "uint256",
              "name": "minimumUnstakeDelay",
              "type": "uint256"
            },
            {
              "internalType": "uint256",
              "name": "minimumStake",
              "type": "uint256"
            },
            {
              "internalType": "uint256",
              "name": "dataGasCostPerByte",
              "type": "uint256"
            },
            {
              "internalType": "uint256",
              "name": "externalCallDataCostOverhead",
              "type": "uint256"
            }
          ],
          "internalType": "struct IRelayHub.RelayHubConfig",
          "name": "",
          "type": "tuple"
        }
      ],
      "stateMutability": "view",
      "type": "function",
      "constant": true
    },
    {
      "inputs": [
        {
          "components": [
            {
              "internalType": "uint256",
              "name": "maxWorkerCount",
              "type": "uint256"
            },
            {
              "internalType": "uint256",
              "name": "gasReserve",
              "type": "uint256"
            },
            {
              "internalType": "uint256",
              "name": "postOverhead",
              "type": "uint256"
            },
            {
              "internalType": "uint256",
              "name": "gasOverhead",
              "type": "uint256"
            },
            {
              "internalType": "uint256",
              "name": "maximumRecipientDeposit",
              "type": "uint256"
            },
            {
              "internalType": "uint256",
              "name": "minimumUnstakeDelay",
              "type": "uint256"
            },
            {
              "internalType": "uint256",
              "name": "minimumStake",
              "type": "uint256"
            },
            {
              "internalType": "uint256",
              "name": "dataGasCostPerByte",
              "type": "uint256"
            },
            {
              "internalType": "uint256",
              "name": "externalCallDataCostOverhead",
              "type": "uint256"
            }
          ],
          "internalType": "struct IRelayHub.RelayHubConfig",
          "name": "_config",
          "type": "tuple"
        }
      ],
      "name": "setConfiguration",
      "outputs": [],
      "stateMutability": "nonpayable",
      "type": "function"
    },
    {
      "inputs": [
        {
          "internalType": "uint256",
          "name": "baseRelayFee",
          "type": "uint256"
        },
        {
          "internalType": "uint256",
          "name": "pctRelayFee",
          "type": "uint256"
        },
        {
          "internalType": "string",
          "name": "url",
          "type": "string"
        }
      ],
      "name": "registerRelayServer",
      "outputs": [],
      "stateMutability": "nonpayable",
      "type": "function"
    },
    {
      "inputs": [
        {
          "internalType": "address[]",
          "name": "newRelayWorkers",
          "type": "address[]"
        }
      ],
      "name": "addRelayWorkers",
      "outputs": [],
      "stateMutability": "nonpayable",
      "type": "function"
    },
    {
      "inputs": [
        {
          "internalType": "address",
          "name": "target",
          "type": "address"
        }
      ],
      "name": "depositFor",
      "outputs": [],
      "stateMutability": "payable",
      "type": "function",
      "payable": true
    },
    {
      "inputs": [
        {
          "internalType": "address",
          "name": "target",
          "type": "address"
        }
      ],
      "name": "balanceOf",
      "outputs": [
        {
          "internalType": "uint256",
          "name": "",
          "type": "uint256"
        }
      ],
      "stateMutability": "view",
      "type": "function",
      "constant": true
    },
    {
      "inputs": [
        {
          "internalType": "uint256",
          "name": "amount",
          "type": "uint256"
        },
        {
          "internalType": "address payable",
          "name": "dest",
          "type": "address"
        }
      ],
      "name": "withdraw",
      "outputs": [],
      "stateMutability": "nonpayable",
      "type": "function"
    },
    {
      "inputs": [
        {
          "internalType": "uint256",
          "name": "length",
          "type": "uint256"
        }
      ],
      "name": "calldataGasCost",
      "outputs": [
        {
          "internalType": "uint256",
          "name": "",
          "type": "uint256"
        }
      ],
      "stateMutability": "view",
      "type": "function",
      "constant": true
    },
    {
      "inputs": [
        {
          "internalType": "uint256",
          "name": "maxAcceptanceBudget",
          "type": "uint256"
        },
        {
          "components": [
            {
              "components": [
                {
                  "internalType": "address",
                  "name": "from",
                  "type": "address"
                },
                {
                  "internalType": "address",
                  "name": "to",
                  "type": "address"
                },
                {
                  "internalType": "uint256",
                  "name": "value",
                  "type": "uint256"
                },
                {
                  "internalType": "uint256",
                  "name": "gas",
                  "type": "uint256"
                },
                {
                  "internalType": "uint256",
                  "name": "nonce",
                  "type": "uint256"
                },
                {
                  "internalType": "bytes",
                  "name": "data",
                  "type": "bytes"
                },
                {
                  "internalType": "uint256",
                  "name": "validUntil",
                  "type": "uint256"
                }
              ],
              "internalType": "struct IForwarder.ForwardRequest",
              "name": "request",
              "type": "tuple"
            },
            {
              "components": [
                {
                  "internalType": "uint256",
                  "name": "gasPrice",
                  "type": "uint256"
                },
                {
                  "internalType": "uint256",
                  "name": "pctRelayFee",
                  "type": "uint256"
                },
                {
                  "internalType": "uint256",
                  "name": "baseRelayFee",
                  "type": "uint256"
                },
                {
                  "internalType": "address",
                  "name": "relayWorker",
                  "type": "address"
                },
                {
                  "internalType": "address",
                  "name": "paymaster",
                  "type": "address"
                },
                {
                  "internalType": "address",
                  "name": "forwarder",
                  "type": "address"
                },
                {
                  "internalType": "bytes",
                  "name": "paymasterData",
                  "type": "bytes"
                },
                {
                  "internalType": "uint256",
                  "name": "clientId",
                  "type": "uint256"
                }
              ],
              "internalType": "struct GsnTypes.RelayData",
              "name": "relayData",
              "type": "tuple"
            }
          ],
          "internalType": "struct GsnTypes.RelayRequest",
          "name": "relayRequest",
          "type": "tuple"
        },
        {
          "internalType": "bytes",
          "name": "signature",
          "type": "bytes"
        },
        {
          "internalType": "bytes",
          "name": "approvalData",
          "type": "bytes"
        },
        {
          "internalType": "uint256",
          "name": "externalGasLimit",
          "type": "uint256"
        }
      ],
      "name": "relayCall",
      "outputs": [
        {
          "internalType": "bool",
          "name": "paymasterAccepted",
          "type": "bool"
        },
        {
          "internalType": "bytes",
          "name": "returnValue",
          "type": "bytes"
        }
      ],
      "stateMutability": "nonpayable",
      "type": "function"
    },
    {
      "inputs": [
        {
          "components": [
            {
              "components": [
                {
                  "internalType": "address",
                  "name": "from",
                  "type": "address"
                },
                {
                  "internalType": "address",
                  "name": "to",
                  "type": "address"
                },
                {
                  "internalType": "uint256",
                  "name": "value",
                  "type": "uint256"
                },
                {
                  "internalType": "uint256",
                  "name": "gas",
                  "type": "uint256"
                },
                {
                  "internalType": "uint256",
                  "name": "nonce",
                  "type": "uint256"
                },
                {
                  "internalType": "bytes",
                  "name": "data",
                  "type": "bytes"
                },
                {
                  "internalType": "uint256",
                  "name": "validUntil",
                  "type": "uint256"
                }
              ],
              "internalType": "struct IForwarder.ForwardRequest",
              "name": "request",
              "type": "tuple"
            },
            {
              "components": [
                {
                  "internalType": "uint256",
                  "name": "gasPrice",
                  "type": "uint256"
                },
                {
                  "internalType": "uint256",
                  "name": "pctRelayFee",
                  "type": "uint256"
                },
                {
                  "internalType": "uint256",
                  "name": "baseRelayFee",
                  "type": "uint256"
                },
                {
                  "internalType": "address",
                  "name": "relayWorker",
                  "type": "address"
                },
                {
                  "internalType": "address",
                  "name": "paymaster",
                  "type": "address"
                },
                {
                  "internalType": "address",
                  "name": "forwarder",
                  "type": "address"
                },
                {
                  "internalType": "bytes",
                  "name": "paymasterData",
                  "type": "bytes"
                },
                {
                  "internalType": "uint256",
                  "name": "clientId",
                  "type": "uint256"
                }
              ],
              "internalType": "struct GsnTypes.RelayData",
              "name": "relayData",
              "type": "tuple"
            }
          ],
          "internalType": "struct GsnTypes.RelayRequest",
          "name": "relayRequest",
          "type": "tuple"
        },
        {
          "internalType": "bytes",
          "name": "signature",
          "type": "bytes"
        },
        {
          "internalType": "bytes",
          "name": "approvalData",
          "type": "bytes"
        },
        {
          "components": [
            {
              "internalType": "uint256",
              "name": "acceptanceBudget",
              "type": "uint256"
            },
            {
              "internalType": "uint256",
              "name": "preRelayedCallGasLimit",
              "type": "uint256"
            },
            {
              "internalType": "uint256",
              "name": "postRelayedCallGasLimit",
              "type": "uint256"
            },
            {
              "internalType": "uint256",
              "name": "calldataSizeLimit",
              "type": "uint256"
            }
          ],
          "internalType": "struct IPaymaster.GasAndDataLimits",
          "name": "gasAndDataLimits",
          "type": "tuple"
        },
        {
          "internalType": "uint256",
          "name": "totalInitialGas",
          "type": "uint256"
        },
        {
          "internalType": "uint256",
          "name": "maxPossibleGas",
          "type": "uint256"
        }
      ],
      "name": "innerRelayCall",
      "outputs": [
        {
          "internalType": "enum IRelayHub.RelayCallStatus",
          "name": "",
          "type": "uint8"
        },
        {
          "internalType": "bytes",
          "name": "",
          "type": "bytes"
        }
      ],
      "stateMutability": "nonpayable",
      "type": "function"
    },
    {
      "inputs": [
        {
          "internalType": "uint256",
          "name": "gasUsed",
          "type": "uint256"
        },
        {
          "components": [
            {
              "internalType": "uint256",
              "name": "gasPrice",
              "type": "uint256"
            },
            {
              "internalType": "uint256",
              "name": "pctRelayFee",
              "type": "uint256"
            },
            {
              "internalType": "uint256",
              "name": "baseRelayFee",
              "type": "uint256"
            },
            {
              "internalType": "address",
              "name": "relayWorker",
              "type": "address"
            },
            {
              "internalType": "address",
              "name": "paymaster",
              "type": "address"
            },
            {
              "internalType": "address",
              "name": "forwarder",
              "type": "address"
            },
            {
              "internalType": "bytes",
              "name": "paymasterData",
              "type": "bytes"
            },
            {
              "internalType": "uint256",
              "name": "clientId",
              "type": "uint256"
            }
          ],
          "internalType": "struct GsnTypes.RelayData",
          "name": "relayData",
          "type": "tuple"
        }
      ],
      "name": "calculateCharge",
      "outputs": [
        {
          "internalType": "uint256",
          "name": "",
          "type": "uint256"
        }
      ],
      "stateMutability": "view",
      "type": "function",
      "constant": true
    },
    {
      "inputs": [
        {
          "internalType": "address",
          "name": "relayManager",
          "type": "address"
        }
      ],
      "name": "isRelayManagerStaked",
      "outputs": [
        {
          "internalType": "bool",
          "name": "",
          "type": "bool"
        }
      ],
      "stateMutability": "view",
      "type": "function",
      "constant": true
    },
    {
      "inputs": [
        {
          "internalType": "uint256",
          "name": "fromBlock",
          "type": "uint256"
        }
      ],
      "name": "deprecateHub",
      "outputs": [],
      "stateMutability": "nonpayable",
      "type": "function"
    },
    {
      "inputs": [],
      "name": "isDeprecated",
      "outputs": [
        {
          "internalType": "bool",
          "name": "",
          "type": "bool"
        }
      ],
      "stateMutability": "view",
      "type": "function",
      "constant": true
    },
    {
      "inputs": [
        {
          "internalType": "address",
          "name": "relayWorker",
          "type": "address"
        },
        {
          "internalType": "address payable",
          "name": "beneficiary",
          "type": "address"
        }
      ],
      "name": "penalize",
      "outputs": [],
      "stateMutability": "nonpayable",
      "type": "function"
    }
  ],
  "bytecode": "0x60c06040526040518060400160405280601b81526020017f322e322e332b6f70656e67736e2e6875622e6972656c617968756200000000008152506001908051906020019062000051929190620003b4565b507fffffffffffffffffffffffffffffffffffffffffffffffffffffffffffffffff600e553480156200008357600080fd5b5060405162006aab38038062006aab8339818101604052810190620000a991906200054e565b620000c9620000bd6200019260201b60201c565b6200019a60201b60201c565b8a73ffffffffffffffffffffffffffffffffffffffff1660808173ffffffffffffffffffffffffffffffffffffffff16815250508973ffffffffffffffffffffffffffffffffffffffff1660a08173ffffffffffffffffffffffffffffffffffffffff1681525050620001816040518061012001604052808b81526020018a8152602001898152602001888152602001878152602001868152602001858152602001848152602001838152506200025e60201b60201c565b5050505050505050505050620008e6565b600033905090565b60008060009054906101000a900473ffffffffffffffffffffffffffffffffffffffff169050816000806101000a81548173ffffffffffffffffffffffffffffffffffffffff021916908373ffffffffffffffffffffffffffffffffffffffff1602179055508173ffffffffffffffffffffffffffffffffffffffff168173ffffffffffffffffffffffffffffffffffffffff167f8be0079c531659141344cd1fd0a4f28419497f9722a3daafe3b4186f6b6457e060405160405180910390a35050565b6200026e6200019260201b60201c565b73ffffffffffffffffffffffffffffffffffffffff16620002946200038b60201b60201c565b73ffffffffffffffffffffffffffffffffffffffff1614620002ed576040517f08c379a0000000000000000000000000000000000000000000000000000000008152600401620002e490620006bc565b60405180910390fd5b806002600082015181600001556020820151816001015560408201518160020155606082015181600301556080820151816004015560a0820151816005015560c0820151816006015560e0820151816007015561010082015181600801559050507f918ee002eb112844e457f37ea6b320c5572bc73957ebb0423ffcfb03d7b939d7600260405162000380919062000863565b60405180910390a150565b60008060009054906101000a900473ffffffffffffffffffffffffffffffffffffffff16905090565b828054620003c290620008b0565b90600052602060002090601f016020900481019282620003e6576000855562000432565b82601f106200040157805160ff191683800117855562000432565b8280016001018555821562000432579182015b828111156200043157825182559160200191906001019062000414565b5b50905062000441919062000445565b5090565b5b808211156200046057600081600090555060010162000446565b5090565b600080fd5b600073ffffffffffffffffffffffffffffffffffffffff82169050919050565b6000620004968262000469565b9050919050565b6000620004aa8262000489565b9050919050565b620004bc816200049d565b8114620004c857600080fd5b50565b600081519050620004dc81620004b1565b92915050565b620004ed8162000489565b8114620004f957600080fd5b50565b6000815190506200050d81620004e2565b92915050565b6000819050919050565b620005288162000513565b81146200053457600080fd5b50565b60008151905062000548816200051d565b92915050565b60008060008060008060008060008060006101608c8e03121562000577576200057662000464565b5b6000620005878e828f01620004cb565b9b505060206200059a8e828f01620004fc565b9a50506040620005ad8e828f0162000537565b9950506060620005c08e828f0162000537565b9850506080620005d38e828f0162000537565b97505060a0620005e68e828f0162000537565b96505060c0620005f98e828f0162000537565b95505060e06200060c8e828f0162000537565b945050610100620006208e828f0162000537565b935050610120620006348e828f0162000537565b925050610140620006488e828f0162000537565b9150509295989b509295989b9093969950565b600082825260208201905092915050565b7f4f776e61626c653a2063616c6c6572206973206e6f7420746865206f776e6572600082015250565b6000620006a46020836200065b565b9150620006b1826200066c565b602082019050919050565b60006020820190508181036000830152620006d78162000695565b9050919050565b60008160001c9050919050565b6000819050919050565b60006200070c6200070683620006de565b620006eb565b9050919050565b6200071e8162000513565b82525050565b610120820160008083015490506200073c81620006f5565b6200074b600086018262000713565b50600183015490506200075e81620006f5565b6200076d602086018262000713565b50600283015490506200078081620006f5565b6200078f604086018262000713565b5060038301549050620007a281620006f5565b620007b1606086018262000713565b5060048301549050620007c481620006f5565b620007d3608086018262000713565b5060058301549050620007e681620006f5565b620007f560a086018262000713565b50600683015490506200080881620006f5565b6200081760c086018262000713565b50600783015490506200082a81620006f5565b6200083960e086018262000713565b50600883015490506200084c81620006f5565b6200085c61010086018262000713565b5050505050565b6000610120820190506200087b600083018462000724565b92915050565b7f4e487b7100000000000000000000000000000000000000000000000000000000600052602260045260246000fd5b60006002820490506001821680620008c957607f821691505b60208210811415620008e057620008df62000881565b5b50919050565b60805160a051616183620009286000396000818161218d015261239d01526000818161136a01528181611a180152818161250101526125e401526161836000f3fe6080604052600436106101655760003560e01c80638da5cb5b116100d1578063c651bce81161008a578063d6a71c0d11610064578063d6a71c0d14610556578063d904c73214610581578063ebcd31ac146105ac578063f2fde38b146105d557610165565b8063c651bce8146104c5578063c7178230146104ee578063ca998f561461051957610165565b80638da5cb5b146103c45780638e53548b146103ef578063aa67c9191461042c578063af595dfc14610448578063c2da078614610471578063c4775a681461049a57610165565b80636bd50cef116101235780636bd50cef146102b357806370a08231146102de578063715018a61461031b578063746d300c146103325780637542ff951461037057806383b718711461039b57610165565b8062f714ce1461016a5780630dd3eded1461019357806310c45431146101be578063194ac307146101fc57806326595b9d146102395780632ad311b514610276575b600080fd5b34801561017657600080fd5b50610191600480360381019061018c919061351e565b6105fe565b005b34801561019f57600080fd5b506101a86107cb565b6040516101b5919061356d565b60405180910390f35b3480156101ca57600080fd5b506101e560048036038101906101e09190613611565b6107d0565b6040516101f392919061379d565b60405180910390f35b34801561020857600080fd5b50610223600480360381019061021e919061380b565b61132d565b604051610230919061356d565b60405180910390f35b34801561024557600080fd5b50610260600480360381019061025b9190613838565b611345565b60405161026d919061356d565b60405180910390f35b34801561028257600080fd5b5061029d6004803603810190610298919061380b565b611366565b6040516102aa9190613865565b60405180910390f35b3480156102bf57600080fd5b506102c8611419565b6040516102d59190613946565b60405180910390f35b3480156102ea57600080fd5b506103056004803603810190610300919061380b565b61148e565b604051610312919061356d565b60405180910390f35b34801561032757600080fd5b506103306114d7565b005b34801561033e57600080fd5b5061035960048036038101906103549190613981565b61155f565b604051610367929190613ae5565b60405180910390f35b34801561037c57600080fd5b50610385611a16565b6040516103929190613b74565b60405180910390f35b3480156103a757600080fd5b506103c260048036038101906103bd9190613be5565b611a3a565b005b3480156103d057600080fd5b506103d9611b64565b6040516103e69190613c68565b60405180910390f35b3480156103fb57600080fd5b5061041660048036038101906104119190613ca3565b611b8d565b604051610423919061356d565b60405180910390f35b6104466004803603810190610441919061380b565b611c00565b005b34801561045457600080fd5b5061046f600480360381019061046a9190613838565b611d4b565b005b34801561047d57600080fd5b5061049860048036038101906104939190613d55565b611e4c565b005b3480156104a657600080fd5b506104af61218b565b6040516104bc9190613c68565b60405180910390f35b3480156104d157600080fd5b506104ec60048036038101906104e79190613f02565b6121af565b005b3480156104fa57600080fd5b506105036122c7565b6040516105109190613865565b60405180910390f35b34801561052557600080fd5b50610540600480360381019061053b919061380b565b6122d4565b60405161054d9190613c68565b60405180910390f35b34801561056257600080fd5b5061056b612307565b604051610578919061356d565b60405180910390f35b34801561058d57600080fd5b5061059661230d565b6040516105a39190613f85565b60405180910390f35b3480156105b857600080fd5b506105d360048036038101906105ce9190613fa7565b61239b565b005b3480156105e157600080fd5b506105fc60048036038101906105f7919061380b565b61267b565b005b600033905082600d60008373ffffffffffffffffffffffffffffffffffffffff1673ffffffffffffffffffffffffffffffffffffffff168152602001908152602001600020541015610685576040517f08c379a000000000000000000000000000000000000000000000000000000000815260040161067c90614033565b60405180910390fd5b6106d783600d60008473ffffffffffffffffffffffffffffffffffffffff1673ffffffffffffffffffffffffffffffffffffffff1681526020019081526020016000205461277390919063ffffffff16565b600d60008373ffffffffffffffffffffffffffffffffffffffff1673ffffffffffffffffffffffffffffffffffffffff168152602001908152602001600020819055508173ffffffffffffffffffffffffffffffffffffffff166108fc849081150290604051600060405180830381858888f19350505050158015610760573d6000803e3d6000fd5b508173ffffffffffffffffffffffffffffffffffffffff168173ffffffffffffffffffffffffffffffffffffffff167fd1c19fbcd4551a5edfb66d43d2e337c04837afda3482b42bdf569a8fccdae5fb856040516107be919061356d565b60405180910390a3505050565b601081565b600060606107dc613307565b5a8160400181815250506107ee6122c7565b1561082e576040517f08c379a00000000000000000000000000000000000000000000000000000000081526004016108259061409f565b60405180910390fd5b600489806000019061084091906140ce565b8060a0019061084f91906140f6565b9050101561086157600060e01b6108ce565b6108cd89806000019061087491906140ce565b8060a0019061088391906140f6565b8080601f016020809104026020016040519081016040528093929190818152602001838380828437600081840152601f19601f820116905080830192505050505050506000612789565b5b81602001907bffffffffffffffffffffffffffffffffffffffffffffffffffffffff191690817bffffffffffffffffffffffffffffffffffffffffffffffffffffffff1916815250503273ffffffffffffffffffffffffffffffffffffffff163373ffffffffffffffffffffffffffffffffffffffff1614610985576040517f08c379a000000000000000000000000000000000000000000000000000000000815260040161097c906141a5565b60405180910390fd5b600b60003373ffffffffffffffffffffffffffffffffffffffff1673ffffffffffffffffffffffffffffffffffffffff16815260200190815260200160002060009054906101000a900473ffffffffffffffffffffffffffffffffffffffff1681610160019073ffffffffffffffffffffffffffffffffffffffff16908173ffffffffffffffffffffffffffffffffffffffff1681525050600073ffffffffffffffffffffffffffffffffffffffff1681610160015173ffffffffffffffffffffffffffffffffffffffff161415610a92576040517f08c379a0000000000000000000000000000000000000000000000000000000008152600401610a8990614211565b60405180910390fd5b3373ffffffffffffffffffffffffffffffffffffffff16898060200190610ab99190614231565b6060016020810190610acb919061380b565b73ffffffffffffffffffffffffffffffffffffffff1614610b21576040517f08c379a0000000000000000000000000000000000000000000000000000000008152600401610b18906142a6565b60405180910390fd5b610b2f816101600151611366565b610b6e576040517f08c379a0000000000000000000000000000000000000000000000000000000008152600401610b6590614312565b60405180910390fd5b3a898060200190610b7f9190614231565b600001351115610bc4576040517f08c379a0000000000000000000000000000000000000000000000000000000008152600401610bbb9061437e565b60405180910390fd5b45841115610c07576040517f08c379a0000000000000000000000000000000000000000000000000000000008152600401610bfe906143ea565b60405180910390fd5b610c178a8a83604001518761280f565b8260a0018361010001828152508290525050610c368989898989612ba1565b60006002600101546040603f5a610c4d9190614439565b610c5791906144c2565b610c6191906144f3565b90505a82610120018181525050600060028001546002600301548784610c879190614527565b610c919190614527565b610c9b9190614527565b90506000803073ffffffffffffffffffffffffffffffffffffffff168463746d300c60e01b8f8f8f8f8f8c60a001515a8c610cd691906144f3565b8e6101000151604051602401610cf3989796959493929190614968565b604051602081830303815290604052907bffffffffffffffffffffffffffffffffffffffffffffffffffffffff19166020820180517bffffffffffffffffffffffffffffffffffffffffffffffffffffffff8381831617835250505050604051610d5d9190614a20565b60006040518083038160008787f1925050503d8060008114610d9b576040519150601f19603f3d011682016040523d82523d6000602084013e610da0565b606091505b5091509150818560000190151590811515815250505a856101200151610dc691906144f3565b8560e001818152505080806020019051810190610de39190614b02565b8660c00187608001829052826006811115610e0157610e00613a6e565b5b6006811115610e1357610e12613a6e565b5b815250505060008560800151511115610e68577fa1478a4242848419db824250a0dddc645dca0d6a9b12ab1fd79b00145a0ba98e8560c001518660800151604051610e5f929190613ae5565b60405180910390a15b50505050610e796000369050611345565b8161018001818152505080600001516110605760026006811115610ea057610e9f613a6e565b5b8160c001516006811115610eb757610eb6613a6e565b5b1480610f4d5750610ede8161018001518260a0015160000151612cc790919063ffffffff16565b8160e0015111158015610f4c575060036006811115610f0057610eff613a6e565b5b8160c001516006811115610f1757610f16613a6e565b5b1480610f4b575060046006811115610f3257610f31613a6e565b5b8160c001516006811115610f4957610f48613a6e565b5b145b5b5b1561105f5760009250888060000190610f6691906140ce565b6000016020810190610f78919061380b565b73ffffffffffffffffffffffffffffffffffffffff16898060200190610f9e9190614231565b6080016020810190610fb0919061380b565b73ffffffffffffffffffffffffffffffffffffffff1682610160015173ffffffffffffffffffffffffffffffffffffffff167fddb88484d11f800b80fe63aa67488ec56ee001d85896d528912c5d850cbcd06a8c806000019061101391906140ce565b6020016020810190611025919061380b565b3386602001518760e001518860800151604051611046959493929190614b99565b60405180910390a4600081608001519250925050611321565b5b60006002600301545a8661107491906144f3565b61107e9190614527565b9050600061109b828c80602001906110969190614231565b611b8d565b905061111081600d60008e80602001906110b59190614231565b60800160208101906110c7919061380b565b73ffffffffffffffffffffffffffffffffffffffff1673ffffffffffffffffffffffffffffffffffffffff1681526020019081526020016000205461277390919063ffffffff16565b600d60008d80602001906111249190614231565b6080016020810190611136919061380b565b73ffffffffffffffffffffffffffffffffffffffff1673ffffffffffffffffffffffffffffffffffffffff168152602001908152602001600020819055506111cb81600d600086610160015173ffffffffffffffffffffffffffffffffffffffff1673ffffffffffffffffffffffffffffffffffffffff16815260200190815260200160002054612cc790919063ffffffff16565b600d600085610160015173ffffffffffffffffffffffffffffffffffffffff1673ffffffffffffffffffffffffffffffffffffffff168152602001908152602001600020819055508a806000019061122391906140ce565b6000016020810190611235919061380b565b73ffffffffffffffffffffffffffffffffffffffff163373ffffffffffffffffffffffffffffffffffffffff1684610160015173ffffffffffffffffffffffffffffffffffffffff167fc9aa709786a3d5fe2cc947abc1ba8cbb0f6decb57aa74b84eb7f558125fee4548e80600001906112af91906140ce565b60200160208101906112c1919061380b565b8f80602001906112d19190614231565b60800160208101906112e3919061380b565b88602001518960c00151886040516112ff959493929190614bf3565b60405180910390a4600160405180602001604052806000815250945094505050505b97509795505050505050565b600c6020528060005260406000206000915090505481565b600061135f82600260070154612cdd90919063ffffffff16565b9050919050565b60007f000000000000000000000000000000000000000000000000000000000000000073ffffffffffffffffffffffffffffffffffffffff16636de8dd4183306002600601546002600501546040518563ffffffff1660e01b81526004016113d19493929190614c46565b602060405180830381865afa1580156113ee573d6000803e3d6000fd5b505050506040513d601f19601f820116820180604052508101906114129190614cb7565b9050919050565b6114216133be565b6002604051806101200160405290816000820154815260200160018201548152602001600282015481526020016003820154815260200160048201548152602001600582015481526020016006820154815260200160078201548152602001600882015481525050905090565b6000600d60008373ffffffffffffffffffffffffffffffffffffffff1673ffffffffffffffffffffffffffffffffffffffff168152602001908152602001600020549050919050565b6114df612cf3565b73ffffffffffffffffffffffffffffffffffffffff166114fd611b64565b73ffffffffffffffffffffffffffffffffffffffff1614611553576040517f08c379a000000000000000000000000000000000000000000000000000000000815260040161154a90614d30565b60405180910390fd5b61155d6000612cfb565b565b6000606061156b61340a565b3073ffffffffffffffffffffffffffffffffffffffff163373ffffffffffffffffffffffffffffffffffffffff16146115d9576040517f08c379a00000000000000000000000000000000000000000000000000000000081526004016115d090614d9c565b60405180910390fd5b600d60008c80602001906115ed9190614231565b60800160208101906115ff919061380b565b73ffffffffffffffffffffffffffffffffffffffff1673ffffffffffffffffffffffffffffffffffffffff1681526020019081526020016000205481600001818152505062be5dd460e01b8b8b8b8b8b8960405160240161166596959493929190614dbc565b604051602081830303815290604052907bffffffffffffffffffffffffffffffffffffffffffffffffffffffff19166020820180517bffffffffffffffffffffffffffffffffffffffffffffffffffffffff83818316178352505050508160a00181905250600060608c80602001906116de9190614231565b60800160208101906116f0919061380b565b73ffffffffffffffffffffffffffffffffffffffff1688602001358460a0015160405161171d9190614a20565b60006040518083038160008787f1925050503d806000811461175b576040519150601f19603f3d011682016040523d82523d6000602084013e611760565b606091505b508092508193505050816117835761177781612dbf565b611782600282612dce565b5b808060200190518101906117979190614e1a565b846080018560c00182151515158152508290525050505060006117bb8c8c8c612e07565b84604001856060018290528215151515815250829350505050806117e9576117e860038360600151612dce565b5b8160c0015180156117fc57508160400151155b156118115761181060048360600151612dce565b5b506376fa01c360e01b816080015182604001515a8861183091906144f3565b8e80602001906118409190614231565b6040516024016118539493929190614f68565b604051602081830303815290604052907bffffffffffffffffffffffffffffffffffffffffffffffffffffffff19166020820180517bffffffffffffffffffffffffffffffffffffffffffffffffffffffff83818316178352505050508160a001819052506000808c80602001906118cb9190614231565b60800160208101906118dd919061380b565b73ffffffffffffffffffffffffffffffffffffffff1688604001358460a0015160405161190a9190614a20565b60006040518083038160008787f1925050503d8060008114611948576040519150601f19603f3d011682016040523d82523d6000602084013e61194d565b606091505b50915091508161196357611962600582612dce565b5b50508060000151600d60008d806020019061197e9190614231565b6080016020810190611990919061380b565b73ffffffffffffffffffffffffffffffffffffffff1673ffffffffffffffffffffffffffffffffffffffff1681526020019081526020016000205410156119ec576119eb600660405180602001604052806000815250612dce565b5b80604001516119fc5760016119ff565b60005b816060015192509250509850989650505050505050565b7f000000000000000000000000000000000000000000000000000000000000000081565b6000339050611a4881611366565b611a87576040517f08c379a0000000000000000000000000000000000000000000000000000000008152600401611a7e90614312565b60405180910390fd5b6000600c60008373ffffffffffffffffffffffffffffffffffffffff1673ffffffffffffffffffffffffffffffffffffffff1681526020019081526020016000205411611b09576040517f08c379a0000000000000000000000000000000000000000000000000000000008152600401611b0090615007565b60405180910390fd5b8073ffffffffffffffffffffffffffffffffffffffff167f77f2d8afec4b9d82ffa0dea525320620292bd1067f575964994d5c4501479aed86868686604051611b559493929190615054565b60405180910390a25050505050565b60008060009054906101000a900473ffffffffffffffffffffffffffffffffffffffff16905090565b6000611bf8611be56064611bd7611bb260648760200135612cc790919063ffffffff16565b611bc9876000013589612cdd90919063ffffffff16565b612cdd90919063ffffffff16565b61304b90919063ffffffff16565b8360400135612cc790919063ffffffff16565b905092915050565b6000349050600260040154811115611c4d576040517f08c379a0000000000000000000000000000000000000000000000000000000008152600401611c44906150e0565b60405180910390fd5b611c9f81600d60008573ffffffffffffffffffffffffffffffffffffffff1673ffffffffffffffffffffffffffffffffffffffff16815260200190815260200160002054612cc790919063ffffffff16565b600d60008473ffffffffffffffffffffffffffffffffffffffff1673ffffffffffffffffffffffffffffffffffffffff168152602001908152602001600020819055503373ffffffffffffffffffffffffffffffffffffffff168273ffffffffffffffffffffffffffffffffffffffff167f8752a472e571a816aea92eec8dae9baf628e840f4929fbcc2d155e6233ff68a783604051611d3f919061356d565b60405180910390a35050565b611d53612cf3565b73ffffffffffffffffffffffffffffffffffffffff16611d71611b64565b73ffffffffffffffffffffffffffffffffffffffff1614611dc7576040517f08c379a0000000000000000000000000000000000000000000000000000000008152600401611dbe90614d30565b60405180910390fd5b43600e5411611e0b576040517f08c379a0000000000000000000000000000000000000000000000000000000008152600401611e029061514c565b60405180910390fd5b80600e819055507f1c0aa0c666483fbf0cf795d9d646ea3552d1e3008162ba9ab1d6d6dfd8c6ec6b81604051611e41919061356d565b60405180910390a150565b6000339050600083839050600c60008473ffffffffffffffffffffffffffffffffffffffff1673ffffffffffffffffffffffffffffffffffffffff16815260200190815260200160002054611ea19190614527565b905080600c60008473ffffffffffffffffffffffffffffffffffffffff1673ffffffffffffffffffffffffffffffffffffffff16815260200190815260200160002081905550600260000154811115611f2f576040517f08c379a0000000000000000000000000000000000000000000000000000000008152600401611f26906151b8565b60405180910390fd5b611f3882611366565b611f77576040517f08c379a0000000000000000000000000000000000000000000000000000000008152600401611f6e90614312565b60405180910390fd5b60005b8484905081101561213257600073ffffffffffffffffffffffffffffffffffffffff16600b6000878785818110611fb457611fb36151d8565b5b9050602002016020810190611fc9919061380b565b73ffffffffffffffffffffffffffffffffffffffff1673ffffffffffffffffffffffffffffffffffffffff16815260200190815260200160002060009054906101000a900473ffffffffffffffffffffffffffffffffffffffff1673ffffffffffffffffffffffffffffffffffffffff161461207a576040517f08c379a000000000000000000000000000000000000000000000000000000000815260040161207190615253565b60405180910390fd5b82600b6000878785818110612092576120916151d8565b5b90506020020160208101906120a7919061380b565b73ffffffffffffffffffffffffffffffffffffffff1673ffffffffffffffffffffffffffffffffffffffff16815260200190815260200160002060006101000a81548173ffffffffffffffffffffffffffffffffffffffff021916908373ffffffffffffffffffffffffffffffffffffffff160217905550808061212a90615273565b915050611f7a565b508173ffffffffffffffffffffffffffffffffffffffff167febf4a9bffb39f7c5dbf3f65540183b9381ae226ac3d0a45b4cad484713bd4a2885858460405161217d93929190615359565b60405180910390a250505050565b7f000000000000000000000000000000000000000000000000000000000000000081565b6121b7612cf3565b73ffffffffffffffffffffffffffffffffffffffff166121d5611b64565b73ffffffffffffffffffffffffffffffffffffffff161461222b576040517f08c379a000000000000000000000000000000000000000000000000000000000815260040161222290614d30565b60405180910390fd5b806002600082015181600001556020820151816001015560408201518160020155606082015181600301556080820151816004015560a0820151816005015560c0820151816006015560e0820151816007015561010082015181600801559050507f918ee002eb112844e457f37ea6b320c5572bc73957ebb0423ffcfb03d7b939d760026040516122bc91906154d7565b60405180910390a150565b6000600e54431015905090565b600b6020528060005260406000206000915054906101000a900473ffffffffffffffffffffffffffffffffffffffff1681565b600e5481565b6001805461231a90615522565b80601f016020809104026020016040519081016040528092919081815260200182805461234690615522565b80156123935780601f1061236857610100808354040283529160200191612393565b820191906000526020600020905b81548152906001019060200180831161237657829003601f168201915b505050505081565b7f000000000000000000000000000000000000000000000000000000000000000073ffffffffffffffffffffffffffffffffffffffff163373ffffffffffffffffffffffffffffffffffffffff1614612429576040517f08c379a0000000000000000000000000000000000000000000000000000000008152600401612420906155a0565b60405180910390fd5b6000600b60008473ffffffffffffffffffffffffffffffffffffffff1673ffffffffffffffffffffffffffffffffffffffff16815260200190815260200160002060009054906101000a900473ffffffffffffffffffffffffffffffffffffffff169050600073ffffffffffffffffffffffffffffffffffffffff168173ffffffffffffffffffffffffffffffffffffffff1614156124fd576040517f08c379a00000000000000000000000000000000000000000000000000000000081526004016124f490614211565b60405180910390fd5b60007f000000000000000000000000000000000000000000000000000000000000000073ffffffffffffffffffffffffffffffffffffffff1663c3453153836040518263ffffffff1660e01b81526004016125589190613c68565b608060405180830381865afa158015612575573d6000803e3d6000fd5b505050506040513d601f19601f820116820180604052508101906125999190615662565b905060008160000151116125e2576040517f08c379a00000000000000000000000000000000000000000000000000000000081526004016125d990614312565b60405180910390fd5b7f000000000000000000000000000000000000000000000000000000000000000073ffffffffffffffffffffffffffffffffffffffff166309a08af4838584600001516040518463ffffffff1660e01b81526004016126439392919061569e565b600060405180830381600087803b15801561265d57600080fd5b505af1158015612671573d6000803e3d6000fd5b5050505050505050565b612683612cf3565b73ffffffffffffffffffffffffffffffffffffffff166126a1611b64565b73ffffffffffffffffffffffffffffffffffffffff16146126f7576040517f08c379a00000000000000000000000000000000000000000000000000000000081526004016126ee90614d30565b60405180910390fd5b600073ffffffffffffffffffffffffffffffffffffffff168173ffffffffffffffffffffffffffffffffffffffff161415612767576040517f08c379a000000000000000000000000000000000000000000000000000000000815260040161275e90615747565b60405180910390fd5b61277081612cfb565b50565b6000818361278191906144f3565b905092915050565b60006004826127989190614527565b835110156127db576040517f08c379a00000000000000000000000000000000000000000000000000000000081526004016127d2906157b3565b60405180910390fd5b6020820183015190507fffffffff000000000000000000000000000000000000000000000000000000008116905092915050565b61281761344e565b60008480602001906128299190614231565b608001602081019061283b919061380b565b73ffffffffffffffffffffffffffffffffffffffff1663b039a88f61c3506040518263ffffffff1660e01b81526004016080604051808303818786fa158015612888573d6000803e3d6000fd5b50505050506040513d601f19601f820116820180604052508101906128ad919061584b565b91508160600151600036905011156128fa576040517f08c379a00000000000000000000000000000000000000000000000000000000081526004016128f1906158c4565b60405180910390fd5b60006129096000369050611345565b90506000600260080154868661291f91906144f3565b61292991906144f3565b90506000803690508261293c91906144c2565b90506010811115612982576040517f08c379a000000000000000000000000000000000000000000000000000000000815260040161297990615930565b60405180910390fd5b84600001518910156129c9576040517f08c379a00000000000000000000000000000000000000000000000000000000081526004016129c09061599c565b60405180910390fd5b846020015185600001511015612a14576040517f08c379a0000000000000000000000000000000000000000000000000000000008152600401612a0b90615a08565b60405180910390fd5b612a8f82612a8185612a738c8060000190612a2f91906140ce565b60600135612a658b60400151612a578d60200151600260030154612cc790919063ffffffff16565b612cc790919063ffffffff16565b612cc790919063ffffffff16565b612cc790919063ffffffff16565b612cc790919063ffffffff16565b935083861015612ad4576040517f08c379a0000000000000000000000000000000000000000000000000000000008152600401612acb90615a74565b60405180910390fd5b6000612aef858a8060200190612aea9190614231565b611b8d565b9050600d60008a8060200190612b059190614231565b6080016020810190612b17919061380b565b73ffffffffffffffffffffffffffffffffffffffff1673ffffffffffffffffffffffffffffffffffffffff16815260200190815260200160002054811115612b94576040517f08c379a0000000000000000000000000000000000000000000000000000000008152600401612b8b90615ae0565b60405180910390fd5b5050505094509492505050565b6000612bca868060200190612bb69190614231565b8060c00190612bc591906140f6565b613061565b612bf1878060000190612bdd91906140ce565b8060a00190612bec91906140f6565b613061565b612bfb8585613061565b612c058888613061565b6102c4612c129190614527565b612c1c9190614527565b612c269190614527565b612c309190614527565b90506041858590501115612c79576040517f08c379a0000000000000000000000000000000000000000000000000000000008152600401612c7090615b4c565b60405180910390fd5b60003690508114612cbf576040517f08c379a0000000000000000000000000000000000000000000000000000000008152600401612cb690615bb8565b60405180910390fd5b505050505050565b60008183612cd59190614527565b905092915050565b60008183612ceb9190614439565b905092915050565b600033905090565b60008060009054906101000a900473ffffffffffffffffffffffffffffffffffffffff169050816000806101000a81548173ffffffffffffffffffffffffffffffffffffffff021916908373ffffffffffffffffffffffffffffffffffffffff1602179055508173ffffffffffffffffffffffffffffffffffffffff168173ffffffffffffffffffffffffffffffffffffffff167f8be0079c531659141344cd1fd0a4f28419497f9722a3daafe3b4186f6b6457e060405160405180910390a35050565b612dcb816104006130b5565b50565b60008282604051602001612de3929190613ae5565b6040516020818303038152906040529050612dfd81612dbf565b8051602082018181fd5b60008060606000612e17876130c6565b90506000612e45888060200190612e2e9190614231565b60a0016020810190612e40919061380b565b613106565b9050878060200190612e579190614231565b60a0016020810190612e69919061380b565b73ffffffffffffffffffffffffffffffffffffffff1663e024dc7f60e01b898060000190612e9791906140ce565b836040518060400160405280600c81526020017f52656c61795265717565737400000000000000000000000000000000000000008152506040518060800160405280605d8152602001616050605d91396040518060e0016040528060a181526020016160ad60a19139604051602001612f109190615c2f565b604051602081830303815290604052604051602001612f3193929190615d1a565b60405160208183030381529060405280519060200120868c8c604051602401612f5f96959493929190615e50565b604051602081830303815290604052907bffffffffffffffffffffffffffffffffffffffffffffffffffffffff19166020820180517bffffffffffffffffffffffffffffffffffffffffffffffffffffffff8381831617835250505050604051612fc99190614a20565b6000604051808303816000865af19150503d8060008114613006576040519150601f19603f3d011682016040523d82523d6000602084013e61300b565b606091505b5080945081965050508415613037578280602001905181019061302e9190615eba565b80945081955050505b61304083612dbf565b505093509350939050565b6000818361305991906144c2565b905092915050565b6000601f7fffffffffffffffffffffffffffffffffffffffffffffffffffffffffffffffff61309091906144f3565b601f848490506130a09190614527565b1660206130ad9190614527565b905092915050565b80825111156130c2578082525b5050565b60606130e08280602001906130db9190614231565b6131bf565b6040516020016130f09190615f16565b6040516020818303038152906040529050919050565b60006131b860405180608001604052806040518060400160405280601781526020017f47534e2052656c61796564205472616e73616374696f6e00000000000000000081525081526020016040518060400160405280600181526020017f32000000000000000000000000000000000000000000000000000000000000008152508152602001613194613289565b81526020018473ffffffffffffffffffffffffffffffffffffffff16815250613291565b9050919050565b60006040518060e0016040528060a181526020016160ad60a1913980519060200120826000013583602001358460400135856060016020810190613203919061380b565b866080016020810190613216919061380b565b8760a0016020810190613229919061380b565b888060c0019061323991906140f6565b604051613247929190615f56565b60405180910390208960e0013560405160200161326c99989796959493929190615f6f565b604051602081830303815290604052805190602001209050919050565b600046905090565b60007f8b73c3c69bb8fe3d512ecc4cf759cc79239f7b179b0ffacaa9a75d522b39400f826000015180519060200120836020015180519060200120846040015185606001516040516020016132ea959493929190615ffc565b604051602081830303815290604052805190602001209050919050565b604051806101a0016040528060001515815260200160007bffffffffffffffffffffffffffffffffffffffffffffffffffffffff1916815260200160008152602001606081526020016060815260200161335f61344e565b81526020016000600681111561337857613377613a6e565b5b815260200160008152602001600081526020016000815260200160608152602001600073ffffffffffffffffffffffffffffffffffffffff168152602001600081525090565b6040518061012001604052806000815260200160008152602001600081526020016000815260200160008152602001600081526020016000815260200160008152602001600081525090565b6040518060e0016040528060008152602001600080191681526020016000151581526020016060815260200160608152602001606081526020016000151581525090565b6040518060800160405280600081526020016000815260200160008152602001600081525090565b6000604051905090565b600080fd5b600080fd5b6000819050919050565b61349d8161348a565b81146134a857600080fd5b50565b6000813590506134ba81613494565b92915050565b600073ffffffffffffffffffffffffffffffffffffffff82169050919050565b60006134eb826134c0565b9050919050565b6134fb816134e0565b811461350657600080fd5b50565b600081359050613518816134f2565b92915050565b6000806040838503121561353557613534613480565b5b6000613543858286016134ab565b925050602061355485828601613509565b9150509250929050565b6135678161348a565b82525050565b6000602082019050613582600083018461355e565b92915050565b600080fd5b6000604082840312156135a3576135a2613588565b5b81905092915050565b600080fd5b600080fd5b600080fd5b60008083601f8401126135d1576135d06135ac565b5b8235905067ffffffffffffffff8111156135ee576135ed6135b1565b5b60208301915083600182028301111561360a576136096135b6565b5b9250929050565b600080600080600080600060a0888a0312156136305761362f613480565b5b600061363e8a828b016134ab565b975050602088013567ffffffffffffffff81111561365f5761365e613485565b5b61366b8a828b0161358d565b965050604088013567ffffffffffffffff81111561368c5761368b613485565b5b6136988a828b016135bb565b9550955050606088013567ffffffffffffffff8111156136bb576136ba613485565b5b6136c78a828b016135bb565b935093505060806136da8a828b016134ab565b91505092959891949750929550565b60008115159050919050565b6136fe816136e9565b82525050565b600081519050919050565b600082825260208201905092915050565b60005b8381101561373e578082015181840152602081019050613723565b8381111561374d576000848401525b50505050565b6000601f19601f8301169050919050565b600061376f82613704565b613779818561370f565b9350613789818560208601613720565b61379281613753565b840191505092915050565b60006040820190506137b260008301856136f5565b81810360208301526137c48184613764565b90509392505050565b60006137d8826134c0565b9050919050565b6137e8816137cd565b81146137f357600080fd5b50565b600081359050613805816137df565b92915050565b60006020828403121561382157613820613480565b5b600061382f848285016137f6565b91505092915050565b60006020828403121561384e5761384d613480565b5b600061385c848285016134ab565b91505092915050565b600060208201905061387a60008301846136f5565b92915050565b6138898161348a565b82525050565b610120820160008201516138a66000850182613880565b5060208201516138b96020850182613880565b5060408201516138cc6040850182613880565b5060608201516138df6060850182613880565b5060808201516138f26080850182613880565b5060a082015161390560a0850182613880565b5060c082015161391860c0850182613880565b5060e082015161392b60e0850182613880565b50610100820151613940610100850182613880565b50505050565b60006101208201905061395c600083018461388f565b92915050565b60006080828403121561397857613977613588565b5b81905092915050565b600080600080600080600080610120898b0312156139a2576139a1613480565b5b600089013567ffffffffffffffff8111156139c0576139bf613485565b5b6139cc8b828c0161358d565b985050602089013567ffffffffffffffff8111156139ed576139ec613485565b5b6139f98b828c016135bb565b9750975050604089013567ffffffffffffffff811115613a1c57613a1b613485565b5b613a288b828c016135bb565b95509550506060613a3b8b828c01613962565b93505060e0613a4c8b828c016134ab565b925050610100613a5e8b828c016134ab565b9150509295985092959890939650565b7f4e487b7100000000000000000000000000000000000000000000000000000000600052602160045260246000fd5b60078110613aae57613aad613a6e565b5b50565b6000819050613abf82613a9d565b919050565b6000613acf82613ab1565b9050919050565b613adf81613ac4565b82525050565b6000604082019050613afa6000830185613ad6565b8181036020830152613b0c8184613764565b90509392505050565b6000819050919050565b6000613b3a613b35613b30846134c0565b613b15565b6134c0565b9050919050565b6000613b4c82613b1f565b9050919050565b6000613b5e82613b41565b9050919050565b613b6e81613b53565b82525050565b6000602082019050613b896000830184613b65565b92915050565b60008083601f840112613ba557613ba46135ac565b5b8235905067ffffffffffffffff811115613bc257613bc16135b1565b5b602083019150836001820283011115613bde57613bdd6135b6565b5b9250929050565b60008060008060608587031215613bff57613bfe613480565b5b6000613c0d878288016134ab565b9450506020613c1e878288016134ab565b935050604085013567ffffffffffffffff811115613c3f57613c3e613485565b5b613c4b87828801613b8f565b925092505092959194509250565b613c62816137cd565b82525050565b6000602082019050613c7d6000830184613c59565b92915050565b60006101008284031215613c9a57613c99613588565b5b81905092915050565b60008060408385031215613cba57613cb9613480565b5b6000613cc8858286016134ab565b925050602083013567ffffffffffffffff811115613ce957613ce8613485565b5b613cf585828601613c83565b9150509250929050565b60008083601f840112613d1557613d146135ac565b5b8235905067ffffffffffffffff811115613d3257613d316135b1565b5b602083019150836020820283011115613d4e57613d4d6135b6565b5b9250929050565b60008060208385031215613d6c57613d6b613480565b5b600083013567ffffffffffffffff811115613d8a57613d89613485565b5b613d9685828601613cff565b92509250509250929050565b600080fd5b7f4e487b7100000000000000000000000000000000000000000000000000000000600052604160045260246000fd5b613ddf82613753565b810181811067ffffffffffffffff82111715613dfe57613dfd613da7565b5b80604052505050565b6000613e11613476565b9050613e1d8282613dd6565b919050565b60006101208284031215613e3957613e38613da2565b5b613e44610120613e07565b90506000613e54848285016134ab565b6000830152506020613e68848285016134ab565b6020830152506040613e7c848285016134ab565b6040830152506060613e90848285016134ab565b6060830152506080613ea4848285016134ab565b60808301525060a0613eb8848285016134ab565b60a08301525060c0613ecc848285016134ab565b60c08301525060e0613ee0848285016134ab565b60e083015250610100613ef5848285016134ab565b6101008301525092915050565b60006101208284031215613f1957613f18613480565b5b6000613f2784828501613e22565b91505092915050565b600081519050919050565b600082825260208201905092915050565b6000613f5782613f30565b613f618185613f3b565b9350613f71818560208601613720565b613f7a81613753565b840191505092915050565b60006020820190508181036000830152613f9f8184613f4c565b905092915050565b60008060408385031215613fbe57613fbd613480565b5b6000613fcc858286016137f6565b9250506020613fdd85828601613509565b9150509250929050565b7f696e73756666696369656e742066756e64730000000000000000000000000000600082015250565b600061401d601283613f3b565b915061402882613fe7565b602082019050919050565b6000602082019050818103600083015261404c81614010565b9050919050565b7f6875622064657072656361746564000000000000000000000000000000000000600082015250565b6000614089600e83613f3b565b915061409482614053565b602082019050919050565b600060208201905081810360008301526140b88161407c565b9050919050565b600080fd5b600080fd5b600080fd5b60008235600160e0038336030381126140ea576140e96140bf565b5b80830191505092915050565b60008083356001602003843603038112614113576141126140bf565b5b80840192508235915067ffffffffffffffff821115614135576141346140c4565b5b602083019250600182023603831315614151576141506140c9565b5b509250929050565b7f72656c617920776f726b6572206d75737420626520454f410000000000000000600082015250565b600061418f601883613f3b565b915061419a82614159565b602082019050919050565b600060208201905081810360008301526141be81614182565b9050919050565b7f556e6b6e6f776e2072656c617920776f726b6572000000000000000000000000600082015250565b60006141fb601483613f3b565b9150614206826141c5565b602082019050919050565b6000602082019050818103600083015261422a816141ee565b9050919050565b6000823560016101000383360303811261424e5761424d6140bf565b5b80830191505092915050565b7f4e6f74206120726967687420776f726b65720000000000000000000000000000600082015250565b6000614290601283613f3b565b915061429b8261425a565b602082019050919050565b600060208201905081810360008301526142bf81614283565b9050919050565b7f72656c6179206d616e61676572206e6f74207374616b65640000000000000000600082015250565b60006142fc601883613f3b565b9150614307826142c6565b602082019050919050565b6000602082019050818103600083015261432b816142ef565b9050919050565b7f496e76616c696420676173207072696365000000000000000000000000000000600082015250565b6000614368601183613f3b565b915061437382614332565b602082019050919050565b600060208201905081810360008301526143978161435b565b9050919050565b7f496d706f737369626c6520676173206c696d6974000000000000000000000000600082015250565b60006143d4601483613f3b565b91506143df8261439e565b602082019050919050565b60006020820190508181036000830152614403816143c7565b9050919050565b7f4e487b7100000000000000000000000000000000000000000000000000000000600052601160045260246000fd5b60006144448261348a565b915061444f8361348a565b9250817fffffffffffffffffffffffffffffffffffffffffffffffffffffffffffffffff04831182151516156144885761448761440a565b5b828202905092915050565b7f4e487b7100000000000000000000000000000000000000000000000000000000600052601260045260246000fd5b60006144cd8261348a565b91506144d88361348a565b9250826144e8576144e7614493565b5b828204905092915050565b60006144fe8261348a565b91506145098361348a565b92508282101561451c5761451b61440a565b5b828203905092915050565b60006145328261348a565b915061453d8361348a565b9250827fffffffffffffffffffffffffffffffffffffffffffffffffffffffffffffffff038211156145725761457161440a565b5b828201905092915050565b600080fd5b60008235600160e00383360303811261459e5761459d61457d565b5b82810191505092915050565b60006145b960208401846137f6565b905092915050565b6145ca816137cd565b82525050565b60006145df60208401846134ab565b905092915050565b600080fd5b600080fd5b6000808335600160200384360303811261460e5761460d61457d565b5b83810192508235915060208301925067ffffffffffffffff821115614636576146356145e7565b5b60018202360384131561464c5761464b6145ec565b5b509250929050565b600082825260208201905092915050565b82818337600083830152505050565b60006146808385614654565b935061468d838584614665565b61469683613753565b840190509392505050565b600060e083016146b460008401846145aa565b6146c160008601826145c1565b506146cf60208401846145aa565b6146dc60208601826145c1565b506146ea60408401846145d0565b6146f76040860182613880565b5061470560608401846145d0565b6147126060860182613880565b5061472060808401846145d0565b61472d6080860182613880565b5061473b60a08401846145f1565b85830360a087015261474e838284614674565b9250505061475f60c08401846145d0565b61476c60c0860182613880565b508091505092915050565b600082356001610100038336030381126147945761479361457d565b5b82810191505092915050565b600061010083016147b460008401846145d0565b6147c16000860182613880565b506147cf60208401846145d0565b6147dc6020860182613880565b506147ea60408401846145d0565b6147f76040860182613880565b5061480560608401846145aa565b61481260608601826145c1565b5061482060808401846145aa565b61482d60808601826145c1565b5061483b60a08401846145aa565b61484860a08601826145c1565b5061485660c08401846145f1565b85830360c0870152614869838284614674565b9250505061487a60e08401846145d0565b61488760e0860182613880565b508091505092915050565b6000604083016148a56000840184614582565b84820360008601526148b782826146a1565b9150506148c76020840184614777565b84820360208601526148d982826147a0565b9150508091505092915050565b60006148f2838561370f565b93506148ff838584614665565b61490883613753565b840190509392505050565b6080820160008201516149296000850182613880565b50602082015161493c6020850182613880565b50604082015161494f6040850182613880565b5060608201516149626060850182613880565b50505050565b6000610120820190508181036000830152614983818b614892565b9050818103602083015261499881898b6148e6565b905081810360408301526149ad8187896148e6565b90506149bc6060830186614913565b6149c960e083018561355e565b6149d761010083018461355e565b9998505050505050505050565b600081905092915050565b60006149fa82613704565b614a0481856149e4565b9350614a14818560208601613720565b80840191505092915050565b6000614a2c82846149ef565b915081905092915050565b60078110614a4457600080fd5b50565b600081519050614a5681614a37565b92915050565b600080fd5b600067ffffffffffffffff821115614a7c57614a7b613da7565b5b614a8582613753565b9050602081019050919050565b6000614aa5614aa084614a61565b613e07565b905082815260208101848484011115614ac157614ac0614a5c565b5b614acc848285613720565b509392505050565b600082601f830112614ae957614ae86135ac565b5b8151614af9848260208601614a92565b91505092915050565b60008060408385031215614b1957614b18613480565b5b6000614b2785828601614a47565b925050602083015167ffffffffffffffff811115614b4857614b47613485565b5b614b5485828601614ad4565b9150509250929050565b60007fffffffff0000000000000000000000000000000000000000000000000000000082169050919050565b614b9381614b5e565b82525050565b600060a082019050614bae6000830188613c59565b614bbb6020830187613c59565b614bc86040830186614b8a565b614bd5606083018561355e565b8181036080830152614be78184613764565b90509695505050505050565b600060a082019050614c086000830188613c59565b614c156020830187613c59565b614c226040830186614b8a565b614c2f6060830185613ad6565b614c3c608083018461355e565b9695505050505050565b6000608082019050614c5b6000830187613c59565b614c686020830186613c59565b614c75604083018561355e565b614c82606083018461355e565b95945050505050565b614c94816136e9565b8114614c9f57600080fd5b50565b600081519050614cb181614c8b565b92915050565b600060208284031215614ccd57614ccc613480565b5b6000614cdb84828501614ca2565b91505092915050565b7f4f776e61626c653a2063616c6c6572206973206e6f7420746865206f776e6572600082015250565b6000614d1a602083613f3b565b9150614d2582614ce4565b602082019050919050565b60006020820190508181036000830152614d4981614d0d565b9050919050565b7f4d7573742062652063616c6c65642062792052656c6179487562000000000000600082015250565b6000614d86601a83613f3b565b9150614d9182614d50565b602082019050919050565b60006020820190508181036000830152614db581614d79565b9050919050565b60006080820190508181036000830152614dd68189614892565b90508181036020830152614deb8187896148e6565b90508181036040830152614e008185876148e6565b9050614e0f606083018461355e565b979650505050505050565b60008060408385031215614e3157614e30613480565b5b600083015167ffffffffffffffff811115614e4f57614e4e613485565b5b614e5b85828601614ad4565b9250506020614e6c85828601614ca2565b9150509250929050565b60006101008301614e8a60008401846145d0565b614e976000860182613880565b50614ea560208401846145d0565b614eb26020860182613880565b50614ec060408401846145d0565b614ecd6040860182613880565b50614edb60608401846145aa565b614ee860608601826145c1565b50614ef660808401846145aa565b614f0360808601826145c1565b50614f1160a08401846145aa565b614f1e60a08601826145c1565b50614f2c60c08401846145f1565b85830360c0870152614f3f838284614674565b92505050614f5060e08401846145d0565b614f5d60e0860182613880565b508091505092915050565b60006080820190508181036000830152614f828187613764565b9050614f9160208301866136f5565b614f9e604083018561355e565b8181036060830152614fb08184614e76565b905095945050505050565b7f6e6f2072656c617920776f726b65727300000000000000000000000000000000600082015250565b6000614ff1601083613f3b565b9150614ffc82614fbb565b602082019050919050565b6000602082019050818103600083015261502081614fe4565b9050919050565b60006150338385613f3b565b9350615040838584614665565b61504983613753565b840190509392505050565b6000606082019050615069600083018761355e565b615076602083018661355e565b8181036040830152615089818486615027565b905095945050505050565b7f6465706f73697420746f6f206269670000000000000000000000000000000000600082015250565b60006150ca600f83613f3b565b91506150d582615094565b602082019050919050565b600060208201905081810360008301526150f9816150bd565b9050919050565b7f416c726561647920646570726563617465640000000000000000000000000000600082015250565b6000615136601283613f3b565b915061514182615100565b602082019050919050565b6000602082019050818103600083015261516581615129565b9050919050565b7f746f6f206d616e7920776f726b65727300000000000000000000000000000000600082015250565b60006151a2601083613f3b565b91506151ad8261516c565b602082019050919050565b600060208201905081810360008301526151d181615195565b9050919050565b7f4e487b7100000000000000000000000000000000000000000000000000000000600052603260045260246000fd5b7f7468697320776f726b6572206861732061206d616e6167657200000000000000600082015250565b600061523d601983613f3b565b915061524882615207565b602082019050919050565b6000602082019050818103600083015261526c81615230565b9050919050565b600061527e8261348a565b91507fffffffffffffffffffffffffffffffffffffffffffffffffffffffffffffffff8214156152b1576152b061440a565b5b600182019050919050565b600082825260208201905092915050565b6000819050919050565b60006152e383836145c1565b60208301905092915050565b6000602082019050919050565b600061530883856152bc565b9350615313826152cd565b8060005b8581101561534c5761532982846145aa565b61533388826152d7565b975061533e836152ef565b925050600181019050615317565b5085925050509392505050565b600060408201905081810360008301526153748185876152fc565b9050615383602083018461355e565b949350505050565b60008160001c9050919050565b6000819050919050565b60006153b56153b08361538b565b615398565b9050919050565b610120820160008083015490506153d2816153a2565b6153df6000860182613880565b50600183015490506153f0816153a2565b6153fd6020860182613880565b506002830154905061540e816153a2565b61541b6040860182613880565b506003830154905061542c816153a2565b6154396060860182613880565b506004830154905061544a816153a2565b6154576080860182613880565b5060058301549050615468816153a2565b61547560a0860182613880565b5060068301549050615486816153a2565b61549360c0860182613880565b50600783015490506154a4816153a2565b6154b160e0860182613880565b50600883015490506154c2816153a2565b6154d0610100860182613880565b5050505050565b6000610120820190506154ed60008301846153bc565b92915050565b7f4e487b7100000000000000000000000000000000000000000000000000000000600052602260045260246000fd5b6000600282049050600182168061553a57607f821691505b6020821081141561554e5761554d6154f3565b5b50919050565b7f4e6f742070656e616c697a657200000000000000000000000000000000000000600082015250565b600061558a600d83613f3b565b915061559582615554565b602082019050919050565b600060208201905081810360008301526155b98161557d565b9050919050565b6000815190506155cf81613494565b92915050565b6000815190506155e4816134f2565b92915050565b600060808284031215615600576155ff613da2565b5b61560a6080613e07565b9050600061561a848285016155c0565b600083015250602061562e848285016155c0565b6020830152506040615642848285016155c0565b6040830152506060615656848285016155d5565b60608301525092915050565b60006080828403121561567857615677613480565b5b6000615686848285016155ea565b91505092915050565b615698816134e0565b82525050565b60006060820190506156b36000830186613c59565b6156c0602083018561568f565b6156cd604083018461355e565b949350505050565b7f4f776e61626c653a206e6577206f776e657220697320746865207a65726f206160008201527f6464726573730000000000000000000000000000000000000000000000000000602082015250565b6000615731602683613f3b565b915061573c826156d5565b604082019050919050565b6000602082019050818103600083015261576081615724565b9050919050565b7f726561644279746573343a206461746120746f6f2073686f7274000000000000600082015250565b600061579d601a83613f3b565b91506157a882615767565b602082019050919050565b600060208201905081810360008301526157cc81615790565b9050919050565b6000608082840312156157e9576157e8613da2565b5b6157f36080613e07565b90506000615803848285016155c0565b6000830152506020615817848285016155c0565b602083015250604061582b848285016155c0565b604083015250606061583f848285016155c0565b60608301525092915050565b60006080828403121561586157615860613480565b5b600061586f848285016157d3565b91505092915050565b7f6d73672e64617461206578636565646564206c696d6974000000000000000000600082015250565b60006158ae601783613f3b565b91506158b982615878565b602082019050919050565b600060208201905081810360008301526158dd816158a1565b9050919050565b7f696e76616c69642065787465726e616c4761734c696d69740000000000000000600082015250565b600061591a601883613f3b565b9150615925826158e4565b602082019050919050565b600060208201905081810360008301526159498161590d565b9050919050565b7f616363657074616e63652062756467657420746f6f2068696768000000000000600082015250565b6000615986601a83613f3b565b915061599182615950565b602082019050919050565b600060208201905081810360008301526159b581615979565b9050919050565b7f616363657074616e63652062756467657420746f6f206c6f7700000000000000600082015250565b60006159f2601983613f3b565b91506159fd826159bc565b602082019050919050565b60006020820190508181036000830152615a21816159e5565b9050919050565b7f6e6f2067617320666f7220696e6e657252656c617943616c6c00000000000000600082015250565b6000615a5e601983613f3b565b9150615a6982615a28565b602082019050919050565b60006020820190508181036000830152615a8d81615a51565b9050919050565b7f5061796d61737465722062616c616e636520746f6f206c6f7700000000000000600082015250565b6000615aca601983613f3b565b9150615ad582615a94565b602082019050919050565b60006020820190508181036000830152615af981615abd565b9050919050565b7f696e76616c6964207369676e6174757265206c656e6774680000000000000000600082015250565b6000615b36601883613f3b565b9150615b4182615b00565b602082019050919050565b60006020820190508181036000830152615b6581615b29565b9050919050565b7f6578747261206d73672e64617461206279746573000000000000000000000000600082015250565b6000615ba2601483613f3b565b9150615bad82615b6c565b602082019050919050565b60006020820190508181036000830152615bd181615b95565b9050919050565b600081905092915050565b7f52656c6179446174612072656c61794461746129000000000000000000000000600082015250565b6000615c19601483615bd8565b9150615c2482615be3565b601482019050919050565b6000615c3a82615c0c565b9150615c4682846149ef565b915081905092915050565b6000615c5c82613f30565b615c668185615bd8565b9350615c76818560208601613720565b80840191505092915050565b7f2800000000000000000000000000000000000000000000000000000000000000600082015250565b6000615cb8600183615bd8565b9150615cc382615c82565b600182019050919050565b7f2c00000000000000000000000000000000000000000000000000000000000000600082015250565b6000615d04600183615bd8565b9150615d0f82615cce565b600182019050919050565b6000615d268286615c51565b9150615d3182615cab565b9150615d3d8285615c51565b9150615d4882615cf7565b9150615d548284615c51565b9150819050949350505050565b600060e08301615d7460008401846145aa565b615d8160008601826145c1565b50615d8f60208401846145aa565b615d9c60208601826145c1565b50615daa60408401846145d0565b615db76040860182613880565b50615dc560608401846145d0565b615dd26060860182613880565b50615de060808401846145d0565b615ded6080860182613880565b50615dfb60a08401846145f1565b85830360a0870152615e0e838284614674565b92505050615e1f60c08401846145d0565b615e2c60c0860182613880565b508091505092915050565b6000819050919050565b615e4a81615e37565b82525050565b600060a0820190508181036000830152615e6a8189615d61565b9050615e796020830188615e41565b615e866040830187615e41565b8181036060830152615e988186613764565b90508181036080830152615ead8184866148e6565b9050979650505050505050565b60008060408385031215615ed157615ed0613480565b5b6000615edf85828601614ca2565b925050602083015167ffffffffffffffff811115615f0057615eff613485565b5b615f0c85828601614ad4565b9150509250929050565b6000602082019050615f2b6000830184615e41565b92915050565b6000615f3d83856149e4565b9350615f4a838584614665565b82840190509392505050565b6000615f63828486615f31565b91508190509392505050565b600061012082019050615f85600083018c615e41565b615f92602083018b61355e565b615f9f604083018a61355e565b615fac606083018961355e565b615fb96080830188613c59565b615fc660a0830187613c59565b615fd360c0830186613c59565b615fe060e0830185615e41565b615fee61010083018461355e565b9a9950505050505050505050565b600060a0820190506160116000830188615e41565b61601e6020830187615e41565b61602b6040830186615e41565b616038606083018561355e565b6160456080830184613c59565b969550505050505056fe616464726573732066726f6d2c6164647265737320746f2c75696e743235362076616c75652c75696e74323536206761732c75696e74323536206e6f6e63652c627974657320646174612c75696e743235362076616c6964556e74696c52656c6179446174612875696e743235362067617350726963652c75696e743235362070637452656c61794665652c75696e74323536206261736552656c61794665652c616464726573732072656c6179576f726b65722c61646472657373207061796d61737465722c6164647265737320666f727761726465722c6279746573207061796d6173746572446174612c75696e7432353620636c69656e74496429a2646970667358221220ebbff00648fc7d797b60622aa00aeaf7308ea144db8483266ca150ae9a78123c64736f6c634300080a0033",
  "immutableReferences": {
    "329": [
      {
        "length": 32,
        "start": 4970
      },
      {
        "length": 32,
        "start": 6680
      },
      {
        "length": 32,
        "start": 9473
      },
      {
        "length": 32,
        "start": 9700
      }
    ],
    "332": [
      {
        "length": 32,
        "start": 8589
      },
      {
        "length": 32,
        "start": 9117
      }
    ]
  },
  "source": "/* solhint-disable avoid-low-level-calls */\n/* solhint-disable no-inline-assembly */\n/* solhint-disable not-rely-on-time */\n/* solhint-disable avoid-tx-origin */\n/* solhint-disable bracket-align */\n// SPDX-License-Identifier: GPL-3.0-only\npragma solidity ^0.8.0;\npragma abicoder v2;\n\nimport \"./utils/MinLibBytes.sol\";\nimport \"@openzeppelin/contracts/utils/math/SafeMath.sol\";\nimport \"@openzeppelin/contracts/access/Ownable.sol\";\n\nimport \"./utils/GsnUtils.sol\";\nimport \"./utils/GsnEip712Library.sol\";\nimport \"./utils/RelayHubValidator.sol\";\nimport \"./utils/GsnTypes.sol\";\nimport \"./interfaces/IRelayHub.sol\";\nimport \"./interfaces/IPaymaster.sol\";\nimport \"./forwarder/IForwarder.sol\";\nimport \"./interfaces/IStakeManager.sol\";\n\ncontract RelayHub is IRelayHub, Ownable {\n    using SafeMath for uint256;\n\n    string public override versionHub = \"2.2.3+opengsn.hub.irelayhub\";\n\n    IStakeManager public immutable override stakeManager;\n    address public immutable override penalizer;\n\n    RelayHubConfig private config;\n\n    function getConfiguration() public override view returns (RelayHubConfig memory) {\n        return config;\n    }\n\n    function setConfiguration(RelayHubConfig memory _config) public override onlyOwner {\n        config = _config;\n        emit RelayHubConfigured(config);\n    }\n\n    uint256 public constant G_NONZERO = 16;\n\n    // maps relay worker's address to its manager's address\n    mapping(address => address) public override workerToManager;\n\n    // maps relay managers to the number of their workers\n    mapping(address => uint256) public override workerCount;\n\n    mapping(address => uint256) private balances;\n\n    uint256 public override deprecationBlock = type(uint).max;\n\n    constructor (\n        IStakeManager _stakeManager,\n        address _penalizer,\n        uint256 _maxWorkerCount,\n        uint256 _gasReserve,\n        uint256 _postOverhead,\n        uint256 _gasOverhead,\n        uint256 _maximumRecipientDeposit,\n        uint256 _minimumUnstakeDelay,\n        uint256 _minimumStake,\n        uint256 _dataGasCostPerByte,\n        uint256 _externalCallDataCostOverhead\n    ) {\n        stakeManager = _stakeManager;\n        penalizer = _penalizer;\n        setConfiguration(RelayHubConfig(\n            _maxWorkerCount,\n            _gasReserve,\n            _postOverhead,\n            _gasOverhead,\n            _maximumRecipientDeposit,\n            _minimumUnstakeDelay,\n            _minimumStake,\n            _dataGasCostPerByte,\n            _externalCallDataCostOverhead\n        ));\n    }\n\n    function registerRelayServer(uint256 baseRelayFee, uint256 pctRelayFee, string calldata url) external override {\n        address relayManager = msg.sender;\n        require(\n            isRelayManagerStaked(relayManager),\n            \"relay manager not staked\"\n        );\n        require(workerCount[relayManager] > 0, \"no relay workers\");\n        emit RelayServerRegistered(relayManager, baseRelayFee, pctRelayFee, url);\n    }\n\n    function addRelayWorkers(address[] calldata newRelayWorkers) external override {\n        address relayManager = msg.sender;\n        uint256 newWorkerCount = workerCount[relayManager] + newRelayWorkers.length;\n        workerCount[relayManager] = newWorkerCount;\n        require(newWorkerCount <= config.maxWorkerCount, \"too many workers\");\n\n        require(\n            isRelayManagerStaked(relayManager),\n            \"relay manager not staked\"\n        );\n\n        for (uint256 i = 0; i < newRelayWorkers.length; i++) {\n            require(workerToManager[newRelayWorkers[i]] == address(0), \"this worker has a manager\");\n            workerToManager[newRelayWorkers[i]] = relayManager;\n        }\n\n        emit RelayWorkersAdded(relayManager, newRelayWorkers, newWorkerCount);\n    }\n\n    function depositFor(address target) public override payable {\n        uint256 amount = msg.value;\n        require(amount <= config.maximumRecipientDeposit, \"deposit too big\");\n\n        balances[target] = balances[target].add(amount);\n\n        emit Deposited(target, msg.sender, amount);\n    }\n\n    function balanceOf(address target) external override view returns (uint256) {\n        return balances[target];\n    }\n\n    function withdraw(uint256 amount, address payable dest) public override {\n        address payable account = payable(msg.sender);\n        require(balances[account] >= amount, \"insufficient funds\");\n\n        balances[account] = balances[account].sub(amount);\n        dest.transfer(amount);\n\n        emit Withdrawn(account, dest, amount);\n    }\n\n    function calldataGasCost(uint256 length) public override view returns (uint256) {\n        return config.dataGasCostPerByte.mul(length);\n}\n\n    function verifyGasAndDataLimits(\n        uint256 maxAcceptanceBudget,\n        GsnTypes.RelayRequest calldata relayRequest,\n        uint256 initialGasLeft,\n        uint256 externalGasLimit\n    )\n    private\n    view\n    returns (IPaymaster.GasAndDataLimits memory gasAndDataLimits, uint256 maxPossibleGas) {\n        gasAndDataLimits =\n            IPaymaster(relayRequest.relayData.paymaster).getGasAndDataLimits{gas:50000}();\n        require(msg.data.length <= gasAndDataLimits.calldataSizeLimit, \"msg.data exceeded limit\" );\n        uint256 dataGasCost = calldataGasCost(msg.data.length);\n        uint256 externalCallDataCost = externalGasLimit - initialGasLeft - config.externalCallDataCostOverhead;\n        uint256 txDataCostPerByte = externalCallDataCost/msg.data.length;\n        require(txDataCostPerByte <= G_NONZERO, \"invalid externalGasLimit\");\n\n        require(maxAcceptanceBudget >= gasAndDataLimits.acceptanceBudget, \"acceptance budget too high\");\n        require(gasAndDataLimits.acceptanceBudget >= gasAndDataLimits.preRelayedCallGasLimit, \"acceptance budget too low\");\n\n        maxPossibleGas =\n            config.gasOverhead.add(\n            gasAndDataLimits.preRelayedCallGasLimit).add(\n            gasAndDataLimits.postRelayedCallGasLimit).add(\n            relayRequest.request.gas).add(\n            dataGasCost).add(\n            externalCallDataCost);\n\n        // This transaction must have enough gas to forward the call to the recipient with the requested amount, and not\n        // run out of gas later in this function.\n        require(\n            externalGasLimit >= maxPossibleGas,\n            \"no gas for innerRelayCall\");\n\n        uint256 maxPossibleCharge = calculateCharge(\n            maxPossibleGas,\n            relayRequest.relayData\n        );\n\n        // We don't yet know how much gas will be used by the recipient, so we make sure there are enough funds to pay\n        // for the maximum possible charge.\n        require(maxPossibleCharge <= balances[relayRequest.relayData.paymaster],\n            \"Paymaster balance too low\");\n    }\n\n    struct RelayCallData {\n        bool success;\n        bytes4 functionSelector;\n        uint256 initialGasLeft;\n        bytes recipientContext;\n        bytes relayedCallReturnValue;\n        IPaymaster.GasAndDataLimits gasAndDataLimits;\n        RelayCallStatus status;\n        uint256 innerGasUsed;\n        uint256 maxPossibleGas;\n        uint256 gasBeforeInner;\n        bytes retData;\n        address relayManager;\n        uint256 dataGasCost;\n    }\n\n    function relayCall(\n        uint maxAcceptanceBudget,\n        GsnTypes.RelayRequest calldata relayRequest,\n        bytes calldata signature,\n        bytes calldata approvalData,\n        uint externalGasLimit\n    )\n    external\n    override\n    returns (bool paymasterAccepted, bytes memory returnValue)\n    {\n        RelayCallData memory vars;\n        vars.initialGasLeft = gasleft();\n        require(!isDeprecated(), \"hub deprecated\");\n        vars.functionSelector = relayRequest.request.data.length>=4 ? MinLibBytes.readBytes4(relayRequest.request.data, 0) : bytes4(0);\n        require(msg.sender == tx.origin, \"relay worker must be EOA\");\n        vars.relayManager = workerToManager[msg.sender];\n        require(vars.relayManager != address(0), \"Unknown relay worker\");\n        require(relayRequest.relayData.relayWorker == msg.sender, \"Not a right worker\");\n        require(\n            isRelayManagerStaked(vars.relayManager),\n            \"relay manager not staked\"\n        );\n        require(relayRequest.relayData.gasPrice <= tx.gasprice, \"Invalid gas price\");\n        require(externalGasLimit <= block.gaslimit, \"Impossible gas limit\");\n\n        (vars.gasAndDataLimits, vars.maxPossibleGas) =\n             verifyGasAndDataLimits(maxAcceptanceBudget, relayRequest, vars.initialGasLeft, externalGasLimit);\n\n        RelayHubValidator.verifyTransactionPacking(relayRequest,signature,approvalData);\n\n    {\n\n        //How much gas to pass down to innerRelayCall. must be lower than the default 63/64\n        // actually, min(gasleft*63/64, gasleft-GAS_RESERVE) might be enough.\n        uint256 innerGasLimit = gasleft()*63/64- config.gasReserve;\n        vars.gasBeforeInner = gasleft();\n\n        uint256 _tmpInitialGas = innerGasLimit + externalGasLimit + config.gasOverhead + config.postOverhead;\n        // Calls to the recipient are performed atomically inside an inner transaction which may revert in case of\n        // errors in the recipient. In either case (revert or regular execution) the return data encodes the\n        // RelayCallStatus value.\n        (bool success, bytes memory relayCallStatus) = address(this).call{gas:innerGasLimit}(\n            abi.encodeWithSelector(RelayHub.innerRelayCall.selector, relayRequest, signature, approvalData, vars.gasAndDataLimits,\n                _tmpInitialGas - gasleft(),\n                vars.maxPossibleGas\n                )\n        );\n        vars.success = success;\n        vars.innerGasUsed = vars.gasBeforeInner-gasleft();\n        (vars.status, vars.relayedCallReturnValue) = abi.decode(relayCallStatus, (RelayCallStatus, bytes));\n        if ( vars.relayedCallReturnValue.length>0 ) {\n            emit TransactionResult(vars.status, vars.relayedCallReturnValue);\n        }\n    }\n    {\n        vars.dataGasCost = calldataGasCost(msg.data.length);\n        if (!vars.success) {\n            //Failure cases where the PM doesn't pay\n            if (vars.status == RelayCallStatus.RejectedByPreRelayed ||\n                    (vars.innerGasUsed <= vars.gasAndDataLimits.acceptanceBudget.add(vars.dataGasCost)) && (\n                    vars.status == RelayCallStatus.RejectedByForwarder ||\n                    vars.status == RelayCallStatus.RejectedByRecipientRevert  //can only be thrown if rejectOnRecipientRevert==true\n            )) {\n                paymasterAccepted=false;\n\n                emit TransactionRejectedByPaymaster(\n                    vars.relayManager,\n                    relayRequest.relayData.paymaster,\n                    relayRequest.request.from,\n                    relayRequest.request.to,\n                    msg.sender,\n                    vars.functionSelector,\n                    vars.innerGasUsed,\n                    vars.relayedCallReturnValue);\n                return (false, vars.relayedCallReturnValue);\n            }\n        }\n        // We now perform the actual charge calculation, based on the measured gas used\n        uint256 gasUsed = (externalGasLimit - gasleft()) + config.gasOverhead;\n        uint256 charge = calculateCharge(gasUsed, relayRequest.relayData);\n\n        balances[relayRequest.relayData.paymaster] = balances[relayRequest.relayData.paymaster].sub(charge);\n        balances[vars.relayManager] = balances[vars.relayManager].add(charge);\n\n        emit TransactionRelayed(\n            vars.relayManager,\n            msg.sender,\n            relayRequest.request.from,\n            relayRequest.request.to,\n            relayRequest.relayData.paymaster,\n            vars.functionSelector,\n            vars.status,\n            charge);\n        return (true, \"\");\n    }\n    }\n\n    struct InnerRelayCallData {\n        uint256 balanceBefore;\n        bytes32 preReturnValue;\n        bool relayedCallSuccess;\n        bytes relayedCallReturnValue;\n        bytes recipientContext;\n        bytes data;\n        bool rejectOnRecipientRevert;\n    }\n\n    function innerRelayCall(\n        GsnTypes.RelayRequest calldata relayRequest,\n        bytes calldata signature,\n        bytes calldata approvalData,\n        IPaymaster.GasAndDataLimits calldata gasAndDataLimits,\n        uint256 totalInitialGas,\n        uint256 maxPossibleGas\n    )\n    external\n    returns (RelayCallStatus, bytes memory)\n    {\n        InnerRelayCallData memory vars;\n        // A new gas measurement is performed inside innerRelayCall, since\n        // due to EIP150 available gas amounts cannot be directly compared across external calls\n\n        // This external function can only be called by RelayHub itself, creating an internal transaction. Calls to the\n        // recipient (preRelayedCall, the relayedCall, and postRelayedCall) are called from inside this transaction.\n        require(msg.sender == address(this), \"Must be called by RelayHub\");\n\n        // If either pre or post reverts, the whole internal transaction will be reverted, reverting all side effects on\n        // the recipient. The recipient will still be charged for the used gas by the relay.\n\n        // The paymaster is no allowed to withdraw balance from RelayHub during a relayed transaction. We check pre and\n        // post state to ensure this doesn't happen.\n        vars.balanceBefore = balances[relayRequest.relayData.paymaster];\n\n        // First preRelayedCall is executed.\n        // Note: we open a new block to avoid growing the stack too much.\n        vars.data = abi.encodeWithSelector(\n            IPaymaster.preRelayedCall.selector,\n                relayRequest, signature, approvalData, maxPossibleGas\n        );\n        {\n            bool success;\n            bytes memory retData;\n            (success, retData) = relayRequest.relayData.paymaster.call{gas:gasAndDataLimits.preRelayedCallGasLimit}(vars.data);\n            if (!success) {\n                GsnEip712Library.truncateInPlace(retData);\n                revertWithStatus(RelayCallStatus.RejectedByPreRelayed, retData);\n            }\n            (vars.recipientContext, vars.rejectOnRecipientRevert) = abi.decode(retData, (bytes,bool));\n        }\n\n        // The actual relayed call is now executed. The sender's address is appended at the end of the transaction data\n\n        {\n            bool forwarderSuccess;\n            (forwarderSuccess, vars.relayedCallSuccess, vars.relayedCallReturnValue) = GsnEip712Library.execute(relayRequest, signature);\n            if ( !forwarderSuccess ) {\n                revertWithStatus(RelayCallStatus.RejectedByForwarder, vars.relayedCallReturnValue);\n            }\n\n            if (vars.rejectOnRecipientRevert && !vars.relayedCallSuccess) {\n                // we trusted the recipient, but it reverted...\n                revertWithStatus(RelayCallStatus.RejectedByRecipientRevert, vars.relayedCallReturnValue);\n            }\n        }\n        // Finally, postRelayedCall is executed, with the relayedCall execution's status and a charge estimate\n        // We now determine how much the recipient will be charged, to pass this value to postRelayedCall for accurate\n        // accounting.\n        vars.data = abi.encodeWithSelector(\n            IPaymaster.postRelayedCall.selector,\n            vars.recipientContext,\n            vars.relayedCallSuccess,\n            totalInitialGas - gasleft(), /*gasUseWithoutPost*/\n            relayRequest.relayData\n        );\n\n        {\n        (bool successPost,bytes memory ret) = relayRequest.relayData.paymaster.call{gas:gasAndDataLimits.postRelayedCallGasLimit}(vars.data);\n\n        if (!successPost) {\n            revertWithStatus(RelayCallStatus.PostRelayedFailed, ret);\n        }\n        }\n\n        if (balances[relayRequest.relayData.paymaster] < vars.balanceBefore) {\n            revertWithStatus(RelayCallStatus.PaymasterBalanceChanged, \"\");\n        }\n\n        return (vars.relayedCallSuccess ? RelayCallStatus.OK : RelayCallStatus.RelayedCallFailed, vars.relayedCallReturnValue);\n    }\n\n    /**\n     * @dev Reverts the transaction with return data set to the ABI encoding of the status argument (and revert reason data)\n     */\n    function revertWithStatus(RelayCallStatus status, bytes memory ret) private pure {\n        bytes memory data = abi.encode(status, ret);\n        GsnEip712Library.truncateInPlace(data);\n\n        assembly {\n            let dataSize := mload(data)\n            let dataPtr := add(data, 32)\n\n            revert(dataPtr, dataSize)\n        }\n    }\n\n    function calculateCharge(uint256 gasUsed, GsnTypes.RelayData calldata relayData) public override virtual view returns (uint256) {\n        return relayData.baseRelayFee.add((gasUsed.mul(relayData.gasPrice).mul(relayData.pctRelayFee.add(100))).div(100));\n    }\n\n    function isRelayManagerStaked(address relayManager) public override view returns (bool) {\n        return stakeManager.isRelayManagerStaked(relayManager, address(this), config.minimumStake, config.minimumUnstakeDelay);\n    }\n\n    function deprecateHub(uint256 fromBlock) public override onlyOwner {\n        require(deprecationBlock > block.number, \"Already deprecated\");\n        deprecationBlock = fromBlock;\n        emit HubDeprecated(fromBlock);\n    }\n\n    function isDeprecated() public override view returns (bool) {\n        return block.number >= deprecationBlock;\n    }\n\n    modifier penalizerOnly () {\n        require(msg.sender == penalizer, \"Not penalizer\");\n        _;\n    }\n\n    function penalize(address relayWorker, address payable beneficiary) external override penalizerOnly {\n        address relayManager = workerToManager[relayWorker];\n        // The worker must be controlled by a manager with a locked stake\n        require(relayManager != address(0), \"Unknown relay worker\");\n        IStakeManager.StakeInfo memory stakeInfo = stakeManager.getStakeInfo(relayManager);\n        require(stakeInfo.stake > 0, \"relay manager not staked\");\n        stakeManager.penalizeRelayManager(relayManager, beneficiary, stakeInfo.stake);\n    }\n}\n",
  "sourcePath": "@opengsn/contracts/src/RelayHub.sol",
  "compiler": {
    "name": "solc",
    "version": "0.8.10+commit.fc410830.Emscripten.clang"
  },
  "schemaVersion": "3.4.3",
  "updatedAt": "2022-03-01T16:04:47.454Z",
  "networkType": "ethereum",
  "devdoc": {
    "kind": "dev",
    "methods": {
      "isRelayManagerStaked(address)": {
        "returns": {
          "_0": "true if stake size and delay satisfy all requirements"
        }
      },
      "owner()": {
        "details": "Returns the address of the current owner."
      },
      "relayCall(uint256,((address,address,uint256,uint256,uint256,bytes,uint256),(uint256,uint256,uint256,address,address,address,bytes,uint256)),bytes,bytes,uint256)": {
        "params": {
          "approvalData": ": dapp-specific data forwarded to preRelayedCall.        This value is *not* verified by the Hub. For example, it can be used to pass a signature to the Paymaster",
          "externalGasLimit": "- the value passed as gasLimit to the transaction. Emits a TransactionRelayed event.",
          "maxAcceptanceBudget": "- max valid value for paymaster.getGasLimits().acceptanceBudget",
          "relayRequest": "- all details of the requested relayed call",
          "signature": "- client's EIP-712 signature over the relayRequest struct"
        }
      },
      "renounceOwnership()": {
        "details": "Leaves the contract without owner. It will not be possible to call `onlyOwner` functions anymore. Can only be called by the current owner. NOTE: Renouncing ownership will leave the contract without an owner, thereby removing any functionality that is only available to the owner."
      },
      "transferOwnership(address)": {
        "details": "Transfers ownership of the contract to a new account (`newOwner`). Can only be called by the current owner."
      }
    },
    "stateVariables": {
      "versionHub": {
        "return": "a SemVer-compliant version of the hub contract",
        "returns": {
          "_0": "a SemVer-compliant version of the hub contract"
        }
      }
    },
    "version": 1
  },
  "userdoc": {
    "events": {
      "Deposited(address,address,uint256)": {
        "notice": "Emitted when depositFor is called, including the amount and account that was funded."
      },
      "RelayServerRegistered(address,uint256,uint256,string)": {
        "notice": "Emitted when a relay server registers or updates its details Looking at these events lets a client discover relay servers"
      },
      "RelayWorkersAdded(address,address[],uint256)": {
        "notice": "Emitted when relays are added by a relayManager"
      },
      "TransactionRejectedByPaymaster(address,address,address,address,address,bytes4,uint256,bytes)": {
        "notice": "Emitted when an attempt to relay a call fails and Paymaster does not accept the transaction. The actual relayed call was not executed, and the recipient not charged."
      },
      "TransactionRelayed(address,address,address,address,address,bytes4,uint8,uint256)": {
        "notice": "Emitted when a transaction is relayed. Note that the actual encoded function might be reverted: this will be indicated in the status field. Useful when monitoring a relay's operation and relayed calls to a contract. Charge is the ether value deducted from the recipient's balance, paid to the relay's manager."
      },
      "Withdrawn(address,address,uint256)": {
        "notice": "Emitted when an account withdraws funds from RelayHub."
      }
    },
    "kind": "user",
    "methods": {
      "addRelayWorkers(address[])": {
        "notice": "Add new worker addresses controlled by sender who must be a staked Relay Manager address. Emits a RelayWorkersAdded event. This function can be called multiple times, emitting new events"
      },
      "balanceOf(address)": {
        "notice": "Returns an account's deposits. It can be either a deposit of a paymaster, or a revenue of a relay manager."
      },
      "calculateCharge(uint256,(uint256,uint256,uint256,address,address,address,bytes,uint256))": {
        "notice": "The fee is expressed as a base fee in wei plus percentage on actual charge. E.g. a value of 40 stands for a 40% fee, so the recipient will be charged for 1.4 times the spent amount."
      },
      "depositFor(address)": {
        "notice": "Deposits ether for a contract, so that it can receive (and pay for) relayed transactions. Unused balance can only be withdrawn by the contract itself, by calling withdraw. Emits a Deposited event."
      },
      "getConfiguration()": {
        "notice": "Returns the whole hub configuration"
      },
      "isRelayManagerStaked(address)": {
        "notice": "Uses StakeManager info to decide if the Relay Manager can be considered staked"
      },
      "relayCall(uint256,((address,address,uint256,uint256,uint256,bytes,uint256),(uint256,uint256,uint256,address,address,address,bytes,uint256)),bytes,bytes,uint256)": {
        "notice": "Relays a transaction. For this to succeed, multiple conditions must be met:  - Paymaster's \"preRelayCall\" method must succeed and not revert  - the sender must be a registered Relay Worker that the user signed  - the transaction's gas price must be equal or larger than the one that was signed by the sender  - the transaction must have enough gas to run all internal transactions if they use all gas available to them  - the Paymaster must have enough balance to pay the Relay Worker for the scenario when all gas is spent If all conditions are met, the call will be relayed and the recipient charged. Arguments:"
      },
      "withdraw(uint256,address)": {
        "notice": "Withdraws from an account's balance, sending it back to it. Relay managers call this to retrieve their revenue, and contracts can also use it to reduce their funding. Emits a Withdrawn event."
      }
    },
    "version": 1
  }
}