{
  "contractName": "WhitelistPaymaster",
  "abi": [
    {
      "anonymous": false,
      "inputs": [
        {
          "indexed": true,
          "internalType": "address",
          "name": "previousOwner",
          "type": "address"
        },
        {
          "indexed": true,
          "internalType": "address",
          "name": "newOwner",
          "type": "address"
        }
      ],
      "name": "OwnershipTransferred",
      "type": "event"
    },
    {
      "inputs": [],
      "name": "CALLDATA_SIZE_LIMIT",
      "outputs": [
        {
          "internalType": "uint256",
          "name": "",
          "type": "uint256"
        }
      ],
      "stateMutability": "view",
      "type": "function",
      "constant": true
    },
    {
      "inputs": [],
      "name": "FORWARDER_HUB_OVERHEAD",
      "outputs": [
        {
          "internalType": "uint256",
          "name": "",
          "type": "uint256"
        }
      ],
      "stateMutability": "view",
      "type": "function",
      "constant": true
    },
    {
      "inputs": [],
      "name": "PAYMASTER_ACCEPTANCE_BUDGET",
      "outputs": [
        {
          "internalType": "uint256",
          "name": "",
          "type": "uint256"
        }
      ],
      "stateMutability": "view",
      "type": "function",
      "constant": true
    },
    {
      "inputs": [],
      "name": "POST_RELAYED_CALL_GAS_LIMIT",
      "outputs": [
        {
          "internalType": "uint256",
          "name": "",
          "type": "uint256"
        }
      ],
      "stateMutability": "view",
      "type": "function",
      "constant": true
    },
    {
      "inputs": [],
      "name": "PRE_RELAYED_CALL_GAS_LIMIT",
      "outputs": [
        {
          "internalType": "uint256",
          "name": "",
          "type": "uint256"
        }
      ],
      "stateMutability": "view",
      "type": "function",
      "constant": true
    },
    {
      "inputs": [
        {
          "components": [
            {
              "components": [
                {
                  "internalType": "address",
                  "name": "from",
                  "type": "address"
                },
                {
                  "internalType": "address",
                  "name": "to",
                  "type": "address"
                },
                {
                  "internalType": "uint256",
                  "name": "value",
                  "type": "uint256"
                },
                {
                  "internalType": "uint256",
                  "name": "gas",
                  "type": "uint256"
                },
                {
                  "internalType": "uint256",
                  "name": "nonce",
                  "type": "uint256"
                },
                {
                  "internalType": "bytes",
                  "name": "data",
                  "type": "bytes"
                },
                {
                  "internalType": "uint256",
                  "name": "validUntil",
                  "type": "uint256"
                }
              ],
              "internalType": "struct IForwarder.ForwardRequest",
              "name": "request",
              "type": "tuple"
            },
            {
              "components": [
                {
                  "internalType": "uint256",
                  "name": "gasPrice",
                  "type": "uint256"
                },
                {
                  "internalType": "uint256",
                  "name": "pctRelayFee",
                  "type": "uint256"
                },
                {
                  "internalType": "uint256",
                  "name": "baseRelayFee",
                  "type": "uint256"
                },
                {
                  "internalType": "address",
                  "name": "relayWorker",
                  "type": "address"
                },
                {
                  "internalType": "address",
                  "name": "paymaster",
                  "type": "address"
                },
                {
                  "internalType": "address",
                  "name": "forwarder",
                  "type": "address"
                },
                {
                  "internalType": "bytes",
                  "name": "paymasterData",
                  "type": "bytes"
                },
                {
                  "internalType": "uint256",
                  "name": "clientId",
                  "type": "uint256"
                }
              ],
              "internalType": "struct GsnTypes.RelayData",
              "name": "relayData",
              "type": "tuple"
            }
          ],
          "internalType": "struct GsnTypes.RelayRequest",
          "name": "relayRequest",
          "type": "tuple"
        }
      ],
      "name": "_verifyForwarder",
      "outputs": [],
      "stateMutability": "view",
      "type": "function",
      "constant": true
    },
    {
      "inputs": [],
      "name": "getGasAndDataLimits",
      "outputs": [
        {
          "components": [
            {
              "internalType": "uint256",
              "name": "acceptanceBudget",
              "type": "uint256"
            },
            {
              "internalType": "uint256",
              "name": "preRelayedCallGasLimit",
              "type": "uint256"
            },
            {
              "internalType": "uint256",
              "name": "postRelayedCallGasLimit",
              "type": "uint256"
            },
            {
              "internalType": "uint256",
              "name": "calldataSizeLimit",
              "type": "uint256"
            }
          ],
          "internalType": "struct IPaymaster.GasAndDataLimits",
          "name": "limits",
          "type": "tuple"
        }
      ],
      "stateMutability": "view",
      "type": "function",
      "constant": true
    },
    {
      "inputs": [],
      "name": "getHubAddr",
      "outputs": [
        {
          "internalType": "address",
          "name": "",
          "type": "address"
        }
      ],
      "stateMutability": "view",
      "type": "function",
      "constant": true
    },
    {
      "inputs": [],
      "name": "getRelayHubDeposit",
      "outputs": [
        {
          "internalType": "uint256",
          "name": "",
          "type": "uint256"
        }
      ],
      "stateMutability": "view",
      "type": "function",
      "constant": true
    },
    {
      "inputs": [],
      "name": "owner",
      "outputs": [
        {
          "internalType": "address",
          "name": "",
          "type": "address"
        }
      ],
      "stateMutability": "view",
      "type": "function",
      "constant": true
    },
    {
      "inputs": [
        {
          "internalType": "bytes",
          "name": "context",
          "type": "bytes"
        },
        {
          "internalType": "bool",
          "name": "success",
          "type": "bool"
        },
        {
          "internalType": "uint256",
          "name": "gasUseWithoutPost",
          "type": "uint256"
        },
        {
          "components": [
            {
              "internalType": "uint256",
              "name": "gasPrice",
              "type": "uint256"
            },
            {
              "internalType": "uint256",
              "name": "pctRelayFee",
              "type": "uint256"
            },
            {
              "internalType": "uint256",
              "name": "baseRelayFee",
              "type": "uint256"
            },
            {
              "internalType": "address",
              "name": "relayWorker",
              "type": "address"
            },
            {
              "internalType": "address",
              "name": "paymaster",
              "type": "address"
            },
            {
              "internalType": "address",
              "name": "forwarder",
              "type": "address"
            },
            {
              "internalType": "bytes",
              "name": "paymasterData",
              "type": "bytes"
            },
            {
              "internalType": "uint256",
              "name": "clientId",
              "type": "uint256"
            }
          ],
          "internalType": "struct GsnTypes.RelayData",
          "name": "relayData",
          "type": "tuple"
        }
      ],
      "name": "postRelayedCall",
      "outputs": [],
      "stateMutability": "nonpayable",
      "type": "function"
    },
    {
      "inputs": [],
      "name": "renounceOwnership",
      "outputs": [],
      "stateMutability": "nonpayable",
      "type": "function"
    },
    {
      "inputs": [
        {
          "internalType": "address",
          "name": "",
          "type": "address"
        }
      ],
      "name": "senderWhitelist",
      "outputs": [
        {
          "internalType": "bool",
          "name": "",
          "type": "bool"
        }
      ],
      "stateMutability": "view",
      "type": "function",
      "constant": true
    },
    {
      "inputs": [
        {
          "internalType": "contract IRelayHub",
          "name": "hub",
          "type": "address"
        }
      ],
      "name": "setRelayHub",
      "outputs": [],
      "stateMutability": "nonpayable",
      "type": "function"
    },
    {
      "inputs": [
        {
          "internalType": "address",
          "name": "forwarder",
          "type": "address"
        }
      ],
      "name": "setTrustedForwarder",
      "outputs": [],
      "stateMutability": "nonpayable",
      "type": "function"
    },
    {
      "inputs": [
        {
          "internalType": "address",
          "name": "",
          "type": "address"
        }
      ],
      "name": "targetWhitelist",
      "outputs": [
        {
          "internalType": "bool",
          "name": "",
          "type": "bool"
        }
      ],
      "stateMutability": "view",
      "type": "function",
      "constant": true
    },
    {
      "inputs": [
        {
          "internalType": "address",
          "name": "newOwner",
          "type": "address"
        }
      ],
      "name": "transferOwnership",
      "outputs": [],
      "stateMutability": "nonpayable",
      "type": "function"
    },
    {
      "inputs": [],
      "name": "trustedForwarder",
      "outputs": [
        {
          "internalType": "address",
          "name": "",
          "type": "address"
        }
      ],
      "stateMutability": "view",
      "type": "function",
      "constant": true
    },
    {
      "inputs": [],
      "name": "useSenderWhitelist",
      "outputs": [
        {
          "internalType": "bool",
          "name": "",
          "type": "bool"
        }
      ],
      "stateMutability": "view",
      "type": "function",
      "constant": true
    },
    {
      "inputs": [],
      "name": "useTargetWhitelist",
      "outputs": [
        {
          "internalType": "bool",
          "name": "",
          "type": "bool"
        }
      ],
      "stateMutability": "view",
      "type": "function",
      "constant": true
    },
    {
      "inputs": [],
      "name": "versionPaymaster",
      "outputs": [
        {
          "internalType": "string",
          "name": "",
          "type": "string"
        }
      ],
      "stateMutability": "view",
      "type": "function",
      "constant": true
    },
    {
      "inputs": [
        {
          "internalType": "uint256",
          "name": "amount",
          "type": "uint256"
        },
        {
          "internalType": "address payable",
          "name": "target",
          "type": "address"
        }
      ],
      "name": "withdrawRelayHubDepositTo",
      "outputs": [],
      "stateMutability": "nonpayable",
      "type": "function"
    },
    {
      "stateMutability": "payable",
      "type": "receive",
      "payable": true
    },
    {
      "inputs": [
        {
          "internalType": "address",
          "name": "sender",
          "type": "address"
        }
      ],
      "name": "whitelistSender",
      "outputs": [],
      "stateMutability": "nonpayable",
      "type": "function"
    },
    {
      "inputs": [
        {
          "internalType": "address",
          "name": "target",
          "type": "address"
        }
      ],
      "name": "whitelistTarget",
      "outputs": [],
      "stateMutability": "nonpayable",
      "type": "function"
    },
    {
      "inputs": [
        {
          "components": [
            {
              "components": [
                {
                  "internalType": "address",
                  "name": "from",
                  "type": "address"
                },
                {
                  "internalType": "address",
                  "name": "to",
                  "type": "address"
                },
                {
                  "internalType": "uint256",
                  "name": "value",
                  "type": "uint256"
                },
                {
                  "internalType": "uint256",
                  "name": "gas",
                  "type": "uint256"
                },
                {
                  "internalType": "uint256",
                  "name": "nonce",
                  "type": "uint256"
                },
                {
                  "internalType": "bytes",
                  "name": "data",
                  "type": "bytes"
                },
                {
                  "internalType": "uint256",
                  "name": "validUntil",
                  "type": "uint256"
                }
              ],
              "internalType": "struct IForwarder.ForwardRequest",
              "name": "request",
              "type": "tuple"
            },
            {
              "components": [
                {
                  "internalType": "uint256",
                  "name": "gasPrice",
                  "type": "uint256"
                },
                {
                  "internalType": "uint256",
                  "name": "pctRelayFee",
                  "type": "uint256"
                },
                {
                  "internalType": "uint256",
                  "name": "baseRelayFee",
                  "type": "uint256"
                },
                {
                  "internalType": "address",
                  "name": "relayWorker",
                  "type": "address"
                },
                {
                  "internalType": "address",
                  "name": "paymaster",
                  "type": "address"
                },
                {
                  "internalType": "address",
                  "name": "forwarder",
                  "type": "address"
                },
                {
                  "internalType": "bytes",
                  "name": "paymasterData",
                  "type": "bytes"
                },
                {
                  "internalType": "uint256",
                  "name": "clientId",
                  "type": "uint256"
                }
              ],
              "internalType": "struct GsnTypes.RelayData",
              "name": "relayData",
              "type": "tuple"
            }
          ],
          "internalType": "struct GsnTypes.RelayRequest",
          "name": "relayRequest",
          "type": "tuple"
        },
        {
          "internalType": "bytes",
          "name": "signature",
          "type": "bytes"
        },
        {
          "internalType": "bytes",
          "name": "approvalData",
          "type": "bytes"
        },
        {
          "internalType": "uint256",
          "name": "maxPossibleGas",
          "type": "uint256"
        }
      ],
      "name": "preRelayedCall",
      "outputs": [
        {
          "internalType": "bytes",
          "name": "context",
          "type": "bytes"
        },
        {
          "internalType": "bool",
          "name": "revertOnRecipientRevert",
          "type": "bool"
        }
      ],
      "stateMutability": "nonpayable",
      "type": "function"
    }
  ],
  "bytecode": "0x608060405234801561001057600080fd5b5061002d61002261003260201b60201c565b61003a60201b60201c565b6100fe565b600033905090565b60008060009054906101000a900473ffffffffffffffffffffffffffffffffffffffff169050816000806101000a81548173ffffffffffffffffffffffffffffffffffffffff021916908373ffffffffffffffffffffffffffffffffffffffff1602179055508173ffffffffffffffffffffffffffffffffffffffff168173ffffffffffffffffffffffffffffffffffffffff167f8be0079c531659141344cd1fd0a4f28419497f9722a3daafe3b4186f6b6457e060405160405180910390a35050565b6122f5806200010e6000396000f3fe6080604052600436106101695760003560e01c80638222f07d116100d1578063b90b41cf1161008a578063dd1bcaa111610064578063dd1bcaa114610631578063df463a661461065c578063f2fde38b14610687578063f9c002f7146106b057610290565b8063b90b41cf146105b2578063bbdaa3c9146105dd578063da7422281461060857610290565b80638222f07d1461048e578063858437b0146104cb5780638da5cb5b14610508578063921276ea14610533578063a5dcd07b1461055e578063b039a88f1461058757610290565b80635c5e3db1116101235780635c5e3db1146103a4578063715018a6146103cf57806374e861d6146103e657806376fa01c3146104115780637bb052641461043a5780637da0a8771461046357610290565b8062be5dd4146102955780631cfda9fa146102d35780632afe31c1146102fc5780632d14c4b7146103275780632f10a6c6146103505780634f28bfb91461037957610290565b3661029057600073ffffffffffffffffffffffffffffffffffffffff16600160009054906101000a900473ffffffffffffffffffffffffffffffffffffffff1673ffffffffffffffffffffffffffffffffffffffff161415610200576040517f08c379a00000000000000000000000000000000000000000000000000000000081526004016101f790611550565b60405180910390fd5b600160009054906101000a900473ffffffffffffffffffffffffffffffffffffffff1673ffffffffffffffffffffffffffffffffffffffff1663aa67c91934306040518363ffffffff1660e01b815260040161025c91906115b1565b6000604051808303818588803b15801561027557600080fd5b505af1158015610289573d6000803e3d6000fd5b5050505050005b600080fd5b3480156102a157600080fd5b506102bc60048036038101906102b79190611695565b6106db565b6040516102ca92919061180c565b60405180910390f35b3480156102df57600080fd5b506102fa60048036038101906102f59190611868565b61092f565b005b34801561030857600080fd5b50610311610a21565b60405161031e91906118a4565b60405180910390f35b34801561033357600080fd5b5061034e600480360381019061034991906118fd565b610ac4565b005b34801561035c57600080fd5b5061037760048036038101906103729190611868565b610bd2565b005b34801561038557600080fd5b5061038e610cc4565b60405161039b919061193d565b60405180910390f35b3480156103b057600080fd5b506103b9610cd7565b6040516103c691906118a4565b60405180910390f35b3480156103db57600080fd5b506103e4610cdd565b005b3480156103f257600080fd5b506103fb610d65565b60405161040891906115b1565b60405180910390f35b34801561041d57600080fd5b50610438600480360381019061043391906119a4565b610d8f565b005b34801561044657600080fd5b50610461600480360381019061045c9190611a86565b610d96565b005b34801561046f57600080fd5b50610478610e56565b60405161048591906115b1565b60405180910390f35b34801561049a57600080fd5b506104b560048036038101906104b09190611868565b610e80565b6040516104c2919061193d565b60405180910390f35b3480156104d757600080fd5b506104f260048036038101906104ed9190611868565b610ea0565b6040516104ff919061193d565b60405180910390f35b34801561051457600080fd5b5061051d610ec0565b60405161052a91906115b1565b60405180910390f35b34801561053f57600080fd5b50610548610ee9565b6040516105559190611af7565b60405180910390f35b34801561056a57600080fd5b5061058560048036038101906105809190611b19565b610f09565b005b34801561059357600080fd5b5061059c610fc6565b6040516105a99190611bc6565b60405180910390f35b3480156105be57600080fd5b506105c761100c565b6040516105d491906118a4565b60405180910390f35b3480156105e957600080fd5b506105f2611012565b6040516105ff91906118a4565b60405180910390f35b34801561061457600080fd5b5061062f600480360381019061062a9190611868565b611019565b005b34801561063d57600080fd5b506106466110d9565b604051610653919061193d565b60405180910390f35b34801561066857600080fd5b506106716110ec565b60405161067e91906118a4565b60405180910390f35b34801561069357600080fd5b506106ae60048036038101906106a99190611868565b611100565b005b3480156106bc57600080fd5b506106c56111f8565b6040516106d291906118a4565b60405180910390f35b60606000808585905014610724576040517f08c379a000000000000000000000000000000000000000000000000000000000815260040161071b90611c2d565b60405180910390fd5b60008880602001906107369190611c5c565b8060c001906107459190611c85565b905014610787576040517f08c379a000000000000000000000000000000000000000000000000000000000815260040161077e90611d34565b60405180910390fd5b600260149054906101000a900460ff161561084a57600360008980600001906107b09190611d54565b60000160208101906107c29190611868565b73ffffffffffffffffffffffffffffffffffffffff1673ffffffffffffffffffffffffffffffffffffffff16815260200190815260200160002060009054906101000a900460ff16610849576040517f08c379a000000000000000000000000000000000000000000000000000000000815260040161084090611dc8565b60405180910390fd5b5b600260159054906101000a900460ff161561090d57600460008980600001906108739190611d54565b60200160208101906108859190611868565b73ffffffffffffffffffffffffffffffffffffffff1673ffffffffffffffffffffffffffffffffffffffff16815260200190815260200160002060009054906101000a900460ff1661090c576040517f08c379a000000000000000000000000000000000000000000000000000000000815260040161090390611e34565b60405180910390fd5b5b6000604051806020016040528060008152509091509150965096945050505050565b6109376111ff565b73ffffffffffffffffffffffffffffffffffffffff16610955610ec0565b73ffffffffffffffffffffffffffffffffffffffff16146109ab576040517f08c379a00000000000000000000000000000000000000000000000000000000081526004016109a290611ea0565b60405180910390fd5b6001600460008373ffffffffffffffffffffffffffffffffffffffff1673ffffffffffffffffffffffffffffffffffffffff16815260200190815260200160002060006101000a81548160ff0219169083151502179055506001600260156101000a81548160ff02191690831515021790555050565b6000600160009054906101000a900473ffffffffffffffffffffffffffffffffffffffff1673ffffffffffffffffffffffffffffffffffffffff166370a08231306040518263ffffffff1660e01b8152600401610a7e91906115b1565b602060405180830381865afa158015610a9b573d6000803e3d6000fd5b505050506040513d601f19601f82011682018060405250810190610abf9190611ed5565b905090565b610acc6111ff565b73ffffffffffffffffffffffffffffffffffffffff16610aea610ec0565b73ffffffffffffffffffffffffffffffffffffffff1614610b40576040517f08c379a0000000000000000000000000000000000000000000000000000000008152600401610b3790611ea0565b60405180910390fd5b600160009054906101000a900473ffffffffffffffffffffffffffffffffffffffff1673ffffffffffffffffffffffffffffffffffffffff1662f714ce83836040518363ffffffff1660e01b8152600401610b9c929190611f11565b600060405180830381600087803b158015610bb657600080fd5b505af1158015610bca573d6000803e3d6000fd5b505050505050565b610bda6111ff565b73ffffffffffffffffffffffffffffffffffffffff16610bf8610ec0565b73ffffffffffffffffffffffffffffffffffffffff1614610c4e576040517f08c379a0000000000000000000000000000000000000000000000000000000008152600401610c4590611ea0565b60405180910390fd5b6001600360008373ffffffffffffffffffffffffffffffffffffffff1673ffffffffffffffffffffffffffffffffffffffff16815260200190815260200160002060006101000a81548160ff0219169083151502179055506001600260146101000a81548160ff02191690831515021790555050565b600260159054906101000a900460ff1681565b61290481565b610ce56111ff565b73ffffffffffffffffffffffffffffffffffffffff16610d03610ec0565b73ffffffffffffffffffffffffffffffffffffffff1614610d59576040517f08c379a0000000000000000000000000000000000000000000000000000000008152600401610d5090611ea0565b60405180910390fd5b610d636000611207565b565b6000600160009054906101000a900473ffffffffffffffffffffffffffffffffffffffff16905090565b5050505050565b610d9e6111ff565b73ffffffffffffffffffffffffffffffffffffffff16610dbc610ec0565b73ffffffffffffffffffffffffffffffffffffffff1614610e12576040517f08c379a0000000000000000000000000000000000000000000000000000000008152600401610e0990611ea0565b60405180910390fd5b80600160006101000a81548173ffffffffffffffffffffffffffffffffffffffff021916908373ffffffffffffffffffffffffffffffffffffffff16021790555050565b6000600260009054906101000a900473ffffffffffffffffffffffffffffffffffffffff16905090565b60036020528060005260406000206000915054906101000a900460ff1681565b60046020528060005260406000206000915054906101000a900460ff1681565b60008060009054906101000a900473ffffffffffffffffffffffffffffffffffffffff16905090565b606060405180606001604052806029815260200161229760299139905090565b808060200190610f199190611c5c565b60a0016020810190610f2b9190611868565b73ffffffffffffffffffffffffffffffffffffffff16600260009054906101000a900473ffffffffffffffffffffffffffffffffffffffff1673ffffffffffffffffffffffffffffffffffffffff1614610fba576040517f08c379a0000000000000000000000000000000000000000000000000000000008152600401610fb190611f86565b60405180910390fd5b610fc3816112cb565b50565b610fce6114cb565b604051806080016040528061c350620186a0610fea9190611fd5565b8152602001620186a081526020016201adb08152602001612904815250905090565b61c35081565b6201adb081565b6110216111ff565b73ffffffffffffffffffffffffffffffffffffffff1661103f610ec0565b73ffffffffffffffffffffffffffffffffffffffff1614611095576040517f08c379a000000000000000000000000000000000000000000000000000000000815260040161108c90611ea0565b60405180910390fd5b80600260006101000a81548173ffffffffffffffffffffffffffffffffffffffff021916908373ffffffffffffffffffffffffffffffffffffffff16021790555050565b600260149054906101000a900460ff1681565b61c350620186a06110fd9190611fd5565b81565b6111086111ff565b73ffffffffffffffffffffffffffffffffffffffff16611126610ec0565b73ffffffffffffffffffffffffffffffffffffffff161461117c576040517f08c379a000000000000000000000000000000000000000000000000000000000815260040161117390611ea0565b60405180910390fd5b600073ffffffffffffffffffffffffffffffffffffffff168173ffffffffffffffffffffffffffffffffffffffff1614156111ec576040517f08c379a00000000000000000000000000000000000000000000000000000000081526004016111e39061209d565b60405180910390fd5b6111f581611207565b50565b620186a081565b600033905090565b60008060009054906101000a900473ffffffffffffffffffffffffffffffffffffffff169050816000806101000a81548173ffffffffffffffffffffffffffffffffffffffff021916908373ffffffffffffffffffffffffffffffffffffffff1602179055508173ffffffffffffffffffffffffffffffffffffffff168173ffffffffffffffffffffffffffffffffffffffff167f8be0079c531659141344cd1fd0a4f28419497f9722a3daafe3b4186f6b6457e060405160405180910390a35050565b6000808280600001906112de9190611d54565b60200160208101906112f09190611868565b73ffffffffffffffffffffffffffffffffffffffff1663572b6c0560e01b84806020019061131e9190611c5c565b60a00160208101906113309190611868565b60405160240161134091906115b1565b604051602081830303815290604052907bffffffffffffffffffffffffffffffffffffffffffffffffffffffff19166020820180517bffffffffffffffffffffffffffffffffffffffffffffffffffffffff83818316178352505050506040516113aa91906120f9565b600060405180830381855afa9150503d80600081146113e5576040519150601f19603f3d011682016040523d82523d6000602084013e6113ea565b606091505b50915091508161142f576040517f08c379a00000000000000000000000000000000000000000000000000000000081526004016114269061215c565b60405180910390fd5b6020815114611473576040517f08c379a000000000000000000000000000000000000000000000000000000000815260040161146a906121c8565b60405180910390fd5b8080602001905181019061148791906121fd565b6114c6576040517f08c379a00000000000000000000000000000000000000000000000000000000081526004016114bd90612276565b60405180910390fd5b505050565b6040518060800160405280600081526020016000815260200160008152602001600081525090565b600082825260208201905092915050565b7f72656c6179206875622061646472657373206e6f742073657400000000000000600082015250565b600061153a6019836114f3565b915061154582611504565b602082019050919050565b600060208201905081810360008301526115698161152d565b9050919050565b600073ffffffffffffffffffffffffffffffffffffffff82169050919050565b600061159b82611570565b9050919050565b6115ab81611590565b82525050565b60006020820190506115c660008301846115a2565b92915050565b600080fd5b600080fd5b600080fd5b6000604082840312156115f1576115f06115d6565b5b81905092915050565b600080fd5b600080fd5b600080fd5b60008083601f84011261161f5761161e6115fa565b5b8235905067ffffffffffffffff81111561163c5761163b6115ff565b5b60208301915083600182028301111561165857611657611604565b5b9250929050565b6000819050919050565b6116728161165f565b811461167d57600080fd5b50565b60008135905061168f81611669565b92915050565b600080600080600080608087890312156116b2576116b16115cc565b5b600087013567ffffffffffffffff8111156116d0576116cf6115d1565b5b6116dc89828a016115db565b965050602087013567ffffffffffffffff8111156116fd576116fc6115d1565b5b61170989828a01611609565b9550955050604087013567ffffffffffffffff81111561172c5761172b6115d1565b5b61173889828a01611609565b9350935050606061174b89828a01611680565b9150509295509295509295565b600081519050919050565b600082825260208201905092915050565b60005b83811015611792578082015181840152602081019050611777565b838111156117a1576000848401525b50505050565b6000601f19601f8301169050919050565b60006117c382611758565b6117cd8185611763565b93506117dd818560208601611774565b6117e6816117a7565b840191505092915050565b60008115159050919050565b611806816117f1565b82525050565b6000604082019050818103600083015261182681856117b8565b905061183560208301846117fd565b9392505050565b61184581611590565b811461185057600080fd5b50565b6000813590506118628161183c565b92915050565b60006020828403121561187e5761187d6115cc565b5b600061188c84828501611853565b91505092915050565b61189e8161165f565b82525050565b60006020820190506118b96000830184611895565b92915050565b60006118ca82611570565b9050919050565b6118da816118bf565b81146118e557600080fd5b50565b6000813590506118f7816118d1565b92915050565b60008060408385031215611914576119136115cc565b5b600061192285828601611680565b9250506020611933858286016118e8565b9150509250929050565b600060208201905061195260008301846117fd565b92915050565b611961816117f1565b811461196c57600080fd5b50565b60008135905061197e81611958565b92915050565b6000610100828403121561199b5761199a6115d6565b5b81905092915050565b6000806000806000608086880312156119c0576119bf6115cc565b5b600086013567ffffffffffffffff8111156119de576119dd6115d1565b5b6119ea88828901611609565b955095505060206119fd8882890161196f565b9350506040611a0e88828901611680565b925050606086013567ffffffffffffffff811115611a2f57611a2e6115d1565b5b611a3b88828901611984565b9150509295509295909350565b6000611a5382611590565b9050919050565b611a6381611a48565b8114611a6e57600080fd5b50565b600081359050611a8081611a5a565b92915050565b600060208284031215611a9c57611a9b6115cc565b5b6000611aaa84828501611a71565b91505092915050565b600081519050919050565b6000611ac982611ab3565b611ad381856114f3565b9350611ae3818560208601611774565b611aec816117a7565b840191505092915050565b60006020820190508181036000830152611b118184611abe565b905092915050565b600060208284031215611b2f57611b2e6115cc565b5b600082013567ffffffffffffffff811115611b4d57611b4c6115d1565b5b611b59848285016115db565b91505092915050565b611b6b8161165f565b82525050565b608082016000820151611b876000850182611b62565b506020820151611b9a6020850182611b62565b506040820151611bad6040850182611b62565b506060820151611bc06060850182611b62565b50505050565b6000608082019050611bdb6000830184611b71565b92915050565b7f617070726f76616c446174613a20696e76616c6964206c656e67746800000000600082015250565b6000611c17601c836114f3565b9150611c2282611be1565b602082019050919050565b60006020820190508181036000830152611c4681611c0a565b9050919050565b600080fd5b600080fd5b600080fd5b60008235600161010003833603038112611c7957611c78611c4d565b5b80830191505092915050565b60008083356001602003843603038112611ca257611ca1611c4d565b5b80840192508235915067ffffffffffffffff821115611cc457611cc3611c52565b5b602083019250600182023603831315611ce057611cdf611c57565b5b509250929050565b7f7061796d6173746572446174613a20696e76616c6964206c656e677468000000600082015250565b6000611d1e601d836114f3565b9150611d2982611ce8565b602082019050919050565b60006020820190508181036000830152611d4d81611d11565b9050919050565b60008235600160e003833603038112611d7057611d6f611c4d565b5b80830191505092915050565b7f73656e646572206e6f742077686974656c697374656400000000000000000000600082015250565b6000611db26016836114f3565b9150611dbd82611d7c565b602082019050919050565b60006020820190508181036000830152611de181611da5565b9050919050565b7f746172676574206e6f742077686974656c697374656400000000000000000000600082015250565b6000611e1e6016836114f3565b9150611e2982611de8565b602082019050919050565b60006020820190508181036000830152611e4d81611e11565b9050919050565b7f4f776e61626c653a2063616c6c6572206973206e6f7420746865206f776e6572600082015250565b6000611e8a6020836114f3565b9150611e9582611e54565b602082019050919050565b60006020820190508181036000830152611eb981611e7d565b9050919050565b600081519050611ecf81611669565b92915050565b600060208284031215611eeb57611eea6115cc565b5b6000611ef984828501611ec0565b91505092915050565b611f0b816118bf565b82525050565b6000604082019050611f266000830185611895565b611f336020830184611f02565b9392505050565b7f466f72776172646572206973206e6f7420747275737465640000000000000000600082015250565b6000611f706018836114f3565b9150611f7b82611f3a565b602082019050919050565b60006020820190508181036000830152611f9f81611f63565b9050919050565b7f4e487b7100000000000000000000000000000000000000000000000000000000600052601160045260246000fd5b6000611fe08261165f565b9150611feb8361165f565b9250827fffffffffffffffffffffffffffffffffffffffffffffffffffffffffffffffff038211156120205761201f611fa6565b5b828201905092915050565b7f4f776e61626c653a206e6577206f776e657220697320746865207a65726f206160008201527f6464726573730000000000000000000000000000000000000000000000000000602082015250565b60006120876026836114f3565b91506120928261202b565b604082019050919050565b600060208201905081810360008301526120b68161207a565b9050919050565b600081905092915050565b60006120d382611758565b6120dd81856120bd565b93506120ed818560208601611774565b80840191505092915050565b600061210582846120c8565b915081905092915050565b7f697354727573746564466f727761726465723a20726576657274656400000000600082015250565b6000612146601c836114f3565b915061215182612110565b602082019050919050565b6000602082019050818103600083015261217581612139565b9050919050565b7f697354727573746564466f727761726465723a2062616420726573706f6e7365600082015250565b60006121b26020836114f3565b91506121bd8261217c565b602082019050919050565b600060208201905081810360008301526121e1816121a5565b9050919050565b6000815190506121f781611958565b92915050565b600060208284031215612213576122126115cc565b5b6000612221848285016121e8565b91505092915050565b7f696e76616c696420666f7277617264657220666f7220726563697069656e7400600082015250565b6000612260601f836114f3565b915061226b8261222a565b602082019050919050565b6000602082019050818103600083015261228f81612253565b905091905056fe322e322e332b6f70656e67736e2e61636365707465766572797468696e672e697061796d6173746572a26469706673582212205f90867834a508c3cbb1cbcbb3487d51bf7d0148d58e81971771471dfabe84e764736f6c634300080a0033",
  "immutableReferences": {},
  "source": "//SPDX-License-Identifier: MIT\npragma solidity ^0.8.0;\npragma experimental ABIEncoderV2;\n\nimport \"./AcceptEverythingPaymaster.sol\";\n\n///a sample paymaster that has whitelists for senders and targets.\n/// - if at least one sender is whitelisted, then ONLY whitelisted senders are allowed.\n/// - if at least one target is whitelisted, then ONLY whitelisted targets are allowed.\ncontract WhitelistPaymaster is AcceptEverythingPaymaster {\n\n    bool public useSenderWhitelist;\n    bool public useTargetWhitelist;\n    mapping (address=>bool) public senderWhitelist;\n    mapping (address=>bool) public targetWhitelist;\n\n    function whitelistSender(address sender) public onlyOwner {\n        senderWhitelist[sender]=true;\n        useSenderWhitelist = true;\n    }\n    function whitelistTarget(address target) public onlyOwner {\n        targetWhitelist[target]=true;\n        useTargetWhitelist = true;\n    }\n\n    function preRelayedCall(\n        GsnTypes.RelayRequest calldata relayRequest,\n        bytes calldata signature,\n        bytes calldata approvalData,\n        uint256 maxPossibleGas\n    )\n    external\n    override\n    virtual\n    returns (bytes memory context, bool revertOnRecipientRevert) {\n        (signature, maxPossibleGas);\n        require(approvalData.length == 0, \"approvalData: invalid length\");\n        require(relayRequest.relayData.paymasterData.length == 0, \"paymasterData: invalid length\");\n\n        if ( useSenderWhitelist ) {\n            require( senderWhitelist[relayRequest.request.from], \"sender not whitelisted\");\n        }\n        if ( useTargetWhitelist ) {\n            require( targetWhitelist[relayRequest.request.to], \"target not whitelisted\");\n        }\n        return (\"\", false);\n    }\n}\n",
  "sourcePath": "@opengsn/paymasters/contracts/WhiteListPaymaster.sol",
  "compiler": {
    "name": "solc",
    "version": "0.8.10+commit.fc410830.Emscripten.clang"
  },
  "schemaVersion": "3.4.3",
  "updatedAt": "2022-03-01T16:04:47.422Z",
  "networkType": "ethereum",
  "devdoc": {
    "kind": "dev",
    "methods": {
      "owner()": {
        "details": "Returns the address of the current owner."
      },
      "postRelayedCall(bytes,bool,uint256,(uint256,uint256,uint256,address,address,address,bytes,uint256))": {
        "params": {
          "context": "- the call context, as returned by the preRelayedCall",
          "gasUseWithoutPost": "- the actual amount of gas used by the entire transaction, EXCEPT        the gas used by the postRelayedCall itself.",
          "relayData": "- the relay params of the request. can be used by relayHub.calculateCharge() Revert in this functions causes a revert of the client's relayed call (and preRelayedCall(), but the Paymaster is still committed to pay the relay for the entire transaction.",
          "success": "- true if the relayed call succeeded, false if it reverted"
        }
      },
      "preRelayedCall(((address,address,uint256,uint256,uint256,bytes,uint256),(uint256,uint256,uint256,address,address,address,bytes,uint256)),bytes,bytes,uint256)": {
        "params": {
          "approvalData": "- extra dapp-specific data (e.g. signature from trusted party)",
          "maxPossibleGas": "- based on values returned from {@link getGasAndDataLimits},         the RelayHub will calculate the maximum possible amount of gas the user may be charged for.         In order to convert this value to wei, the Paymaster has to call \"relayHub.calculateCharge()\"  return:      a context to be passed to postRelayedCall      rejectOnRecipientRevert - TRUE if paymaster want to reject the TX if the recipient reverts.          FALSE means that rejects by the recipient will be completed on chain, and paid by the paymaster.          (note that in the latter case, the preRelayedCall and postRelayedCall are not reverted).",
          "relayRequest": "- the full relay request structure",
          "signature": "- user's EIP712-compatible signature of the {@link relayRequest}.              Note that in most cases the paymaster shouldn't try use it at all. It is always checked              by the forwarder immediately after preRelayedCall returns."
        }
      },
      "renounceOwnership()": {
        "details": "Leaves the contract without owner. It will not be possible to call `onlyOwner` functions anymore. Can only be called by the current owner. NOTE: Renouncing ownership will leave the contract without an owner, thereby removing any functionality that is only available to the owner."
      },
      "transferOwnership(address)": {
        "details": "Transfers ownership of the contract to a new account (`newOwner`). Can only be called by the current owner."
      }
    },
    "version": 1
  },
  "userdoc": {
    "kind": "user",
    "methods": {
      "getGasAndDataLimits()": {
        "notice": "Return the Gas Limits and msg.data max size constants used by the Paymaster."
      },
      "getHubAddr()": {
        "notice": "return the relayHub of this contract."
      },
      "getRelayHubDeposit()": {
        "notice": "check current deposit on relay hub."
      },
      "postRelayedCall(bytes,bool,uint256,(uint256,uint256,uint256,address,address,address,bytes,uint256))": {
        "notice": "This method is called after the actual relayed function call. It may be used to record the transaction (e.g. charge the caller by some contract logic) for this call. MUST be protected with relayHubOnly() in case it modifies state."
      },
      "preRelayedCall(((address,address,uint256,uint256,uint256,bytes,uint256),(uint256,uint256,uint256,address,address,address,bytes,uint256)),bytes,bytes,uint256)": {
        "notice": "Called by Relay (and RelayHub), to validate if the paymaster agrees to pay for this call. MUST be protected with relayHubOnly() in case it modifies state. The Paymaster rejects by the following \"revert\" operations  - preRelayedCall() method reverts  - the forwarder reverts because of nonce or signature error  - the paymaster returned \"rejectOnRecipientRevert\", and the recipient contract reverted. In any of the above cases, all paymaster calls (and recipient call) are reverted. In any other case, the paymaster agrees to pay for the gas cost of the transaction (note  that this includes also postRelayedCall revert) The rejectOnRecipientRevert flag means the Paymaster \"delegate\" the rejection to the recipient  code.  It also means the Paymaster trust the recipient to reject fast: both preRelayedCall,  forwarder check and receipient checks must fit into the GasLimits.acceptanceBudget,  otherwise the TX is paid by the Paymaster."
      },
      "withdrawRelayHubDepositTo(uint256,address)": {
        "notice": "withdraw deposit from relayHub"
      }
    },
    "notice": "a sample paymaster that has whitelists for senders and targets. - if at least one sender is whitelisted, then ONLY whitelisted senders are allowed. - if at least one target is whitelisted, then ONLY whitelisted targets are allowed.",
    "version": 1
  }
}