{
  "contractName": "Learn2Earn",
  "abi": [
    {
      "inputs": [
        {
          "internalType": "address",
          "name": "tokenContract",
          "type": "address"
        },
        {
          "internalType": "address",
          "name": "nftContract",
          "type": "address"
        }
      ],
      "stateMutability": "nonpayable",
      "type": "constructor"
    },
    {
      "inputs": [
        {
          "internalType": "address",
          "name": "learner",
          "type": "address"
        },
        {
          "internalType": "uint256",
          "name": "tokenAmount",
          "type": "uint256"
        }
      ],
      "name": "awardUser",
      "outputs": [
        {
          "internalType": "bool",
          "name": "",
          "type": "bool"
        }
      ],
      "stateMutability": "payable",
      "type": "function",
      "payable": true
    },
    {
      "inputs": [
        {
          "internalType": "address",
          "name": "learner",
          "type": "address"
        },
        {
          "internalType": "string",
          "name": "tokenURI",
          "type": "string"
        }
      ],
      "name": "awardCertificate",
      "outputs": [
        {
          "internalType": "uint256",
          "name": "",
          "type": "uint256"
        }
      ],
      "stateMutability": "view",
      "type": "function",
      "constant": true
    },
    {
      "inputs": [
        {
          "internalType": "address",
          "name": "learner",
          "type": "address"
        },
        {
          "internalType": "address",
          "name": "daoToken",
          "type": "address"
        }
      ],
      "name": "isDaoHolder",
      "outputs": [
        {
          "internalType": "bool",
          "name": "",
          "type": "bool"
        }
      ],
      "stateMutability": "nonpayable",
      "type": "function"
    },
    {
      "inputs": [
        {
          "internalType": "address",
          "name": "learner",
          "type": "address"
        }
      ],
      "name": "hasLevelOneToken",
      "outputs": [
        {
          "internalType": "bool",
          "name": "",
          "type": "bool"
        }
      ],
      "stateMutability": "view",
      "type": "function",
      "constant": true
    },
    {
      "inputs": [
        {
          "internalType": "address",
          "name": "learner",
          "type": "address"
        }
      ],
      "name": "hasLevelOneNft",
      "outputs": [
        {
          "internalType": "bool",
          "name": "",
          "type": "bool"
        }
      ],
      "stateMutability": "view",
      "type": "function",
      "constant": true
    }
  ],
  "bytecode": "0x608060405234801561001057600080fd5b50604051610ae7380380610ae78339818101604052810190610032919061011d565b816000806101000a81548173ffffffffffffffffffffffffffffffffffffffff021916908373ffffffffffffffffffffffffffffffffffffffff16021790555080600160006101000a81548173ffffffffffffffffffffffffffffffffffffffff021916908373ffffffffffffffffffffffffffffffffffffffff160217905550505061015d565b600080fd5b600073ffffffffffffffffffffffffffffffffffffffff82169050919050565b60006100ea826100bf565b9050919050565b6100fa816100df565b811461010557600080fd5b50565b600081519050610117816100f1565b92915050565b60008060408385031215610134576101336100ba565b5b600061014285828601610108565b925050602061015385828601610108565b9150509250929050565b61097b8061016c6000396000f3fe60806040526004361061004a5760003560e01c8063849c9b451461004f578063987f90851461008c578063a6e458e5146100c9578063adf26f4714610106578063bd7fbbd614610143575b600080fd5b34801561005b57600080fd5b5061007660048036038101906100719190610600565b610173565b6040516100839190610675565b60405180910390f35b34801561009857600080fd5b506100b360048036038101906100ae9190610690565b61021b565b6040516100c091906106d8565b60405180910390f35b3480156100d557600080fd5b506100f060048036038101906100eb9190610690565b6102da565b6040516100fd91906106d8565b60405180910390f35b34801561011257600080fd5b5061012d600480360381019061012891906106f3565b610397565b60405161013a91906106d8565b60405180910390f35b61015d6004803603810190610158919061075f565b61039f565b60405161016a91906106d8565b60405180910390f35b6000600160009054906101000a900473ffffffffffffffffffffffffffffffffffffffff1673ffffffffffffffffffffffffffffffffffffffff1663849c9b4584846040518363ffffffff1660e01b81526004016101d2929190610836565b602060405180830381865afa1580156101ef573d6000803e3d6000fd5b505050506040513d601f19601f82011682018060405250810190610213919061087b565b905092915050565b600080600160009054906101000a900473ffffffffffffffffffffffffffffffffffffffff1673ffffffffffffffffffffffffffffffffffffffff166370a08231846040518263ffffffff1660e01b815260040161027991906108a8565b602060405180830381865afa158015610296573d6000803e3d6000fd5b505050506040513d601f19601f820116820180604052508101906102ba919061087b565b905060008111156102cf5760019150506102d5565b60009150505b919050565b60008060008054906101000a900473ffffffffffffffffffffffffffffffffffffffff1673ffffffffffffffffffffffffffffffffffffffff166370a08231846040518263ffffffff1660e01b815260040161033691906108a8565b602060405180830381865afa158015610353573d6000803e3d6000fd5b505050506040513d601f19601f82011682018060405250810190610377919061087b565b9050600081111561038c576001915050610392565b60009150505b919050565b600092915050565b60008060009054906101000a900473ffffffffffffffffffffffffffffffffffffffff1673ffffffffffffffffffffffffffffffffffffffff1663a9059cbb84846040518363ffffffff1660e01b81526004016103fd9291906108c3565b6020604051808303816000875af115801561041c573d6000803e3d6000fd5b505050506040513d601f19601f820116820180604052508101906104409190610918565b905092915050565b6000604051905090565b600080fd5b600080fd5b600073ffffffffffffffffffffffffffffffffffffffff82169050919050565b60006104878261045c565b9050919050565b6104978161047c565b81146104a257600080fd5b50565b6000813590506104b48161048e565b92915050565b600080fd5b600080fd5b6000601f19601f8301169050919050565b7f4e487b7100000000000000000000000000000000000000000000000000000000600052604160045260246000fd5b61050d826104c4565b810181811067ffffffffffffffff8211171561052c5761052b6104d5565b5b80604052505050565b600061053f610448565b905061054b8282610504565b919050565b600067ffffffffffffffff82111561056b5761056a6104d5565b5b610574826104c4565b9050602081019050919050565b82818337600083830152505050565b60006105a361059e84610550565b610535565b9050828152602081018484840111156105bf576105be6104bf565b5b6105ca848285610581565b509392505050565b600082601f8301126105e7576105e66104ba565b5b81356105f7848260208601610590565b91505092915050565b6000806040838503121561061757610616610452565b5b6000610625858286016104a5565b925050602083013567ffffffffffffffff81111561064657610645610457565b5b610652858286016105d2565b9150509250929050565b6000819050919050565b61066f8161065c565b82525050565b600060208201905061068a6000830184610666565b92915050565b6000602082840312156106a6576106a5610452565b5b60006106b4848285016104a5565b91505092915050565b60008115159050919050565b6106d2816106bd565b82525050565b60006020820190506106ed60008301846106c9565b92915050565b6000806040838503121561070a57610709610452565b5b6000610718858286016104a5565b9250506020610729858286016104a5565b9150509250929050565b61073c8161065c565b811461074757600080fd5b50565b60008135905061075981610733565b92915050565b6000806040838503121561077657610775610452565b5b6000610784858286016104a5565b92505060206107958582860161074a565b9150509250929050565b6107a88161047c565b82525050565b600081519050919050565b600082825260208201905092915050565b60005b838110156107e85780820151818401526020810190506107cd565b838111156107f7576000848401525b50505050565b6000610808826107ae565b61081281856107b9565b93506108228185602086016107ca565b61082b816104c4565b840191505092915050565b600060408201905061084b600083018561079f565b818103602083015261085d81846107fd565b90509392505050565b60008151905061087581610733565b92915050565b60006020828403121561089157610890610452565b5b600061089f84828501610866565b91505092915050565b60006020820190506108bd600083018461079f565b92915050565b60006040820190506108d8600083018561079f565b6108e56020830184610666565b9392505050565b6108f5816106bd565b811461090057600080fd5b50565b600081519050610912816108ec565b92915050565b60006020828403121561092e5761092d610452565b5b600061093c84828501610903565b9150509291505056fea2646970667358221220197734c1639697241a78e8421929f4bbfc8f2bc94fad67893761346fa2890b5764736f6c634300080a0033",
  "immutableReferences": {},
  "source": "// SPDX-License-Identifier: MIT \npragma solidity ^0.8.10;   \n\ninterface LevelOneToken {  \n    function approve(address spender, uint256 amount) external returns (bool); \n\n    function transfer(address recipient, uint256 amount) external returns (bool) ; \n\n    function balanceOf(address account) external view returns (uint256);\n} \n\ninterface LevelOneNFT { \n    function awardCertificate(address learner, string memory tokenURI) external view returns (uint256); \n    function balanceOf(address owner) external view returns (uint256);\n}\n\ncontract Learn2Earn {  \n    //internal values\n    // levelone token smart contract address  \n    address private levelOneContract; //add the actual test net address\n\n    // nft smart contract address \n    address private levelOneNftContract; // add the actual testnet address \n\n    //(TODO): Adam - approve this smart contract as a spender for the L1 token contract in the construction\n    constructor(address tokenContract, address nftContract) {  \n        levelOneContract = tokenContract; \n        levelOneNftContract = nftContract;\n    }\n\n    //functions \n    function awardUser(address learner, uint256 tokenAmount) public payable returns (bool)  { \n        return LevelOneToken(levelOneContract).transfer(learner, tokenAmount);\n    }   \n\n    function awardCertificate(address learner, string memory tokenURI) external view returns (uint256) { \n        return LevelOneNFT(levelOneNftContract).awardCertificate(learner, tokenURI);\n    }\n\n    //(TODO): Adam - check if user is apart of a dao. just use gitcoin for testing\n    function isDaoHolder(address learner, address daoToken) public returns (bool) { \n\n    }\n\n    function hasLevelOneToken(address learner) public view returns (bool) {  \n        uint tokenAmount = LevelOneToken(levelOneContract).balanceOf(learner);\n        if (tokenAmount > 0) { \n            return true;\n        } \n        return false ;\n    }\n\n    function hasLevelOneNft(address learner) public view returns (bool) {  \n        uint nftAmount = LevelOneNFT(levelOneNftContract).balanceOf(learner);  \n        if (nftAmount > 0) { \n            return true;\n        } \n        return false ;\n    }\n}",
  "sourcePath": "/Users/god/Desktop/level-1-dao/contracts/Learn2Earn.sol",
  "compiler": {
    "name": "solc",
    "version": "0.8.10+commit.fc410830.Emscripten.clang"
  },
  "schemaVersion": "3.4.4",
  "updatedAt": "2022-01-16T22:57:13.430Z",
  "networkType": "ethereum",
  "devdoc": {
    "kind": "dev",
    "methods": {},
    "version": 1
  },
  "userdoc": {
    "kind": "user",
    "methods": {},
    "version": 1
  }
}