{
  "contractName": "Level1Completion",
  "abi": [
    {
      "inputs": [],
      "stateMutability": "nonpayable",
      "type": "constructor"
    },
    {
      "anonymous": false,
      "inputs": [
        {
          "indexed": true,
          "internalType": "address",
          "name": "owner",
          "type": "address"
        },
        {
          "indexed": true,
          "internalType": "address",
          "name": "approved",
          "type": "address"
        },
        {
          "indexed": true,
          "internalType": "uint256",
          "name": "tokenId",
          "type": "uint256"
        }
      ],
      "name": "Approval",
      "type": "event"
    },
    {
      "anonymous": false,
      "inputs": [
        {
          "indexed": true,
          "internalType": "address",
          "name": "owner",
          "type": "address"
        },
        {
          "indexed": true,
          "internalType": "address",
          "name": "operator",
          "type": "address"
        },
        {
          "indexed": false,
          "internalType": "bool",
          "name": "approved",
          "type": "bool"
        }
      ],
      "name": "ApprovalForAll",
      "type": "event"
    },
    {
      "anonymous": false,
      "inputs": [
        {
          "indexed": true,
          "internalType": "address",
          "name": "from",
          "type": "address"
        },
        {
          "indexed": true,
          "internalType": "address",
          "name": "to",
          "type": "address"
        },
        {
          "indexed": true,
          "internalType": "uint256",
          "name": "tokenId",
          "type": "uint256"
        }
      ],
      "name": "Transfer",
      "type": "event"
    },
    {
      "inputs": [
        {
          "internalType": "address",
          "name": "to",
          "type": "address"
        },
        {
          "internalType": "uint256",
          "name": "tokenId",
          "type": "uint256"
        }
      ],
      "name": "approve",
      "outputs": [],
      "stateMutability": "nonpayable",
      "type": "function"
    },
    {
      "inputs": [
        {
          "internalType": "address",
          "name": "owner",
          "type": "address"
        }
      ],
      "name": "balanceOf",
      "outputs": [
        {
          "internalType": "uint256",
          "name": "",
          "type": "uint256"
        }
      ],
      "stateMutability": "view",
      "type": "function",
      "constant": true
    },
    {
      "inputs": [
        {
          "internalType": "uint256",
          "name": "tokenId",
          "type": "uint256"
        }
      ],
      "name": "getApproved",
      "outputs": [
        {
          "internalType": "address",
          "name": "",
          "type": "address"
        }
      ],
      "stateMutability": "view",
      "type": "function",
      "constant": true
    },
    {
      "inputs": [
        {
          "internalType": "address",
          "name": "owner",
          "type": "address"
        },
        {
          "internalType": "address",
          "name": "operator",
          "type": "address"
        }
      ],
      "name": "isApprovedForAll",
      "outputs": [
        {
          "internalType": "bool",
          "name": "",
          "type": "bool"
        }
      ],
      "stateMutability": "view",
      "type": "function",
      "constant": true
    },
    {
      "inputs": [],
      "name": "name",
      "outputs": [
        {
          "internalType": "string",
          "name": "",
          "type": "string"
        }
      ],
      "stateMutability": "view",
      "type": "function",
      "constant": true
    },
    {
      "inputs": [
        {
          "internalType": "uint256",
          "name": "tokenId",
          "type": "uint256"
        }
      ],
      "name": "ownerOf",
      "outputs": [
        {
          "internalType": "address",
          "name": "",
          "type": "address"
        }
      ],
      "stateMutability": "view",
      "type": "function",
      "constant": true
    },
    {
      "inputs": [
        {
          "internalType": "address",
          "name": "from",
          "type": "address"
        },
        {
          "internalType": "address",
          "name": "to",
          "type": "address"
        },
        {
          "internalType": "uint256",
          "name": "tokenId",
          "type": "uint256"
        }
      ],
      "name": "safeTransferFrom",
      "outputs": [],
      "stateMutability": "nonpayable",
      "type": "function"
    },
    {
      "inputs": [
        {
          "internalType": "address",
          "name": "from",
          "type": "address"
        },
        {
          "internalType": "address",
          "name": "to",
          "type": "address"
        },
        {
          "internalType": "uint256",
          "name": "tokenId",
          "type": "uint256"
        },
        {
          "internalType": "bytes",
          "name": "_data",
          "type": "bytes"
        }
      ],
      "name": "safeTransferFrom",
      "outputs": [],
      "stateMutability": "nonpayable",
      "type": "function"
    },
    {
      "inputs": [
        {
          "internalType": "address",
          "name": "operator",
          "type": "address"
        },
        {
          "internalType": "bool",
          "name": "approved",
          "type": "bool"
        }
      ],
      "name": "setApprovalForAll",
      "outputs": [],
      "stateMutability": "nonpayable",
      "type": "function"
    },
    {
      "inputs": [
        {
          "internalType": "bytes4",
          "name": "interfaceId",
          "type": "bytes4"
        }
      ],
      "name": "supportsInterface",
      "outputs": [
        {
          "internalType": "bool",
          "name": "",
          "type": "bool"
        }
      ],
      "stateMutability": "view",
      "type": "function",
      "constant": true
    },
    {
      "inputs": [],
      "name": "symbol",
      "outputs": [
        {
          "internalType": "string",
          "name": "",
          "type": "string"
        }
      ],
      "stateMutability": "view",
      "type": "function",
      "constant": true
    },
    {
      "inputs": [
        {
          "internalType": "uint256",
          "name": "tokenId",
          "type": "uint256"
        }
      ],
      "name": "tokenURI",
      "outputs": [
        {
          "internalType": "string",
          "name": "",
          "type": "string"
        }
      ],
      "stateMutability": "view",
      "type": "function",
      "constant": true
    },
    {
      "inputs": [
        {
          "internalType": "address",
          "name": "from",
          "type": "address"
        },
        {
          "internalType": "address",
          "name": "to",
          "type": "address"
        },
        {
          "internalType": "uint256",
          "name": "tokenId",
          "type": "uint256"
        }
      ],
      "name": "transferFrom",
      "outputs": [],
      "stateMutability": "nonpayable",
      "type": "function"
    },
    {
      "inputs": [
        {
          "internalType": "address",
          "name": "learner",
          "type": "address"
        },
        {
          "internalType": "string",
          "name": "tokenURI",
          "type": "string"
        }
      ],
      "name": "awardCertificate",
      "outputs": [
        {
          "internalType": "uint256",
          "name": "",
          "type": "uint256"
        }
      ],
      "stateMutability": "nonpayable",
      "type": "function"
    }
  ],
  "bytecode": "0x60806040523480156200001157600080fd5b506040518060400160405280600c81526020017f4c31436f6d706c6574696f6e00000000000000000000000000000000000000008152506040518060400160405280600381526020017f4c31430000000000000000000000000000000000000000000000000000000000815250816000908051906020019062000096929190620000b8565b508060019080519060200190620000af929190620000b8565b505050620001cd565b828054620000c69062000197565b90600052602060002090601f016020900481019282620000ea576000855562000136565b82601f106200010557805160ff191683800117855562000136565b8280016001018555821562000136579182015b828111156200013557825182559160200191906001019062000118565b5b50905062000145919062000149565b5090565b5b80821115620001645760008160009055506001016200014a565b5090565b7f4e487b7100000000000000000000000000000000000000000000000000000000600052602260045260246000fd5b60006002820490506001821680620001b057607f821691505b60208210811415620001c757620001c662000168565b5b50919050565b612b9680620001dd6000396000f3fe608060405234801561001057600080fd5b50600436106100ea5760003560e01c806370a082311161008c578063a22cb46511610066578063a22cb4651461026f578063b88d4fde1461028b578063c87b56dd146102a7578063e985e9c5146102d7576100ea565b806370a08231146101f1578063849c9b451461022157806395d89b4114610251576100ea565b8063095ea7b3116100c8578063095ea7b31461016d57806323b872dd1461018957806342842e0e146101a55780636352211e146101c1576100ea565b806301ffc9a7146100ef57806306fdde031461011f578063081812fc1461013d575b600080fd5b610109600480360381019061010491906118f8565b610307565b6040516101169190611940565b60405180910390f35b6101276103e9565b60405161013491906119f4565b60405180910390f35b61015760048036038101906101529190611a4c565b61047b565b6040516101649190611aba565b60405180910390f35b61018760048036038101906101829190611b01565b610500565b005b6101a3600480360381019061019e9190611b41565b610618565b005b6101bf60048036038101906101ba9190611b41565b610678565b005b6101db60048036038101906101d69190611a4c565b610698565b6040516101e89190611aba565b60405180910390f35b61020b60048036038101906102069190611b94565b61074a565b6040516102189190611bd0565b60405180910390f35b61023b60048036038101906102369190611d20565b610802565b6040516102489190611bd0565b60405180910390f35b61025961083a565b60405161026691906119f4565b60405180910390f35b61028960048036038101906102849190611da8565b6108cc565b005b6102a560048036038101906102a09190611e89565b6108e2565b005b6102c160048036038101906102bc9190611a4c565b610944565b6040516102ce91906119f4565b60405180910390f35b6102f160048036038101906102ec9190611f0c565b610a96565b6040516102fe9190611940565b60405180910390f35b60007f80ac58cd000000000000000000000000000000000000000000000000000000007bffffffffffffffffffffffffffffffffffffffffffffffffffffffff1916827bffffffffffffffffffffffffffffffffffffffffffffffffffffffff191614806103d257507f5b5e139f000000000000000000000000000000000000000000000000000000007bffffffffffffffffffffffffffffffffffffffffffffffffffffffff1916827bffffffffffffffffffffffffffffffffffffffffffffffffffffffff1916145b806103e257506103e182610b2a565b5b9050919050565b6060600080546103f890611f7b565b80601f016020809104026020016040519081016040528092919081815260200182805461042490611f7b565b80156104715780601f1061044657610100808354040283529160200191610471565b820191906000526020600020905b81548152906001019060200180831161045457829003601f168201915b5050505050905090565b600061048682610b94565b6104c5576040517f08c379a00000000000000000000000000000000000000000000000000000000081526004016104bc9061201f565b60405180910390fd5b6004600083815260200190815260200160002060009054906101000a900473ffffffffffffffffffffffffffffffffffffffff169050919050565b600061050b82610698565b90508073ffffffffffffffffffffffffffffffffffffffff168373ffffffffffffffffffffffffffffffffffffffff16141561057c576040517f08c379a0000000000000000000000000000000000000000000000000000000008152600401610573906120b1565b60405180910390fd5b8073ffffffffffffffffffffffffffffffffffffffff1661059b610c00565b73ffffffffffffffffffffffffffffffffffffffff1614806105ca57506105c9816105c4610c00565b610a96565b5b610609576040517f08c379a000000000000000000000000000000000000000000000000000000000815260040161060090612143565b60405180910390fd5b6106138383610c08565b505050565b610629610623610c00565b82610cc1565b610668576040517f08c379a000000000000000000000000000000000000000000000000000000000815260040161065f906121d5565b60405180910390fd5b610673838383610d9f565b505050565b610693838383604051806020016040528060008152506108e2565b505050565b6000806002600084815260200190815260200160002060009054906101000a900473ffffffffffffffffffffffffffffffffffffffff169050600073ffffffffffffffffffffffffffffffffffffffff168173ffffffffffffffffffffffffffffffffffffffff161415610741576040517f08c379a000000000000000000000000000000000000000000000000000000000815260040161073890612267565b60405180910390fd5b80915050919050565b60008073ffffffffffffffffffffffffffffffffffffffff168273ffffffffffffffffffffffffffffffffffffffff1614156107bb576040517f08c379a00000000000000000000000000000000000000000000000000000000081526004016107b2906122f9565b60405180910390fd5b600360008373ffffffffffffffffffffffffffffffffffffffff1673ffffffffffffffffffffffffffffffffffffffff168152602001908152602001600020549050919050565b600061080e6007610ffb565b600061081a6007611011565b9050610826848261101f565b61083081846111ed565b8091505092915050565b60606001805461084990611f7b565b80601f016020809104026020016040519081016040528092919081815260200182805461087590611f7b565b80156108c25780601f10610897576101008083540402835291602001916108c2565b820191906000526020600020905b8154815290600101906020018083116108a557829003601f168201915b5050505050905090565b6108de6108d7610c00565b8383611261565b5050565b6108f36108ed610c00565b83610cc1565b610932576040517f08c379a0000000000000000000000000000000000000000000000000000000008152600401610929906121d5565b60405180910390fd5b61093e848484846113ce565b50505050565b606061094f82610b94565b61098e576040517f08c379a00000000000000000000000000000000000000000000000000000000081526004016109859061238b565b60405180910390fd5b60006006600084815260200190815260200160002080546109ae90611f7b565b80601f01602080910402602001604051908101604052809291908181526020018280546109da90611f7b565b8015610a275780601f106109fc57610100808354040283529160200191610a27565b820191906000526020600020905b815481529060010190602001808311610a0a57829003601f168201915b505050505090506000610a3861142a565b9050600081511415610a4e578192505050610a91565b600082511115610a83578082604051602001610a6b9291906123e7565b60405160208183030381529060405292505050610a91565b610a8c84611441565b925050505b919050565b6000600560008473ffffffffffffffffffffffffffffffffffffffff1673ffffffffffffffffffffffffffffffffffffffff16815260200190815260200160002060008373ffffffffffffffffffffffffffffffffffffffff1673ffffffffffffffffffffffffffffffffffffffff16815260200190815260200160002060009054906101000a900460ff16905092915050565b60007f01ffc9a7000000000000000000000000000000000000000000000000000000007bffffffffffffffffffffffffffffffffffffffffffffffffffffffff1916827bffffffffffffffffffffffffffffffffffffffffffffffffffffffff1916149050919050565b60008073ffffffffffffffffffffffffffffffffffffffff166002600084815260200190815260200160002060009054906101000a900473ffffffffffffffffffffffffffffffffffffffff1673ffffffffffffffffffffffffffffffffffffffff1614159050919050565b600033905090565b816004600083815260200190815260200160002060006101000a81548173ffffffffffffffffffffffffffffffffffffffff021916908373ffffffffffffffffffffffffffffffffffffffff160217905550808273ffffffffffffffffffffffffffffffffffffffff16610c7b83610698565b73ffffffffffffffffffffffffffffffffffffffff167f8c5be1e5ebec7d5bd14f71427d1e84f3dd0314c0f7b2291e5b200ac8c7c3b92560405160405180910390a45050565b6000610ccc82610b94565b610d0b576040517f08c379a0000000000000000000000000000000000000000000000000000000008152600401610d029061247d565b60405180910390fd5b6000610d1683610698565b90508073ffffffffffffffffffffffffffffffffffffffff168473ffffffffffffffffffffffffffffffffffffffff161480610d8557508373ffffffffffffffffffffffffffffffffffffffff16610d6d8461047b565b73ffffffffffffffffffffffffffffffffffffffff16145b80610d965750610d958185610a96565b5b91505092915050565b8273ffffffffffffffffffffffffffffffffffffffff16610dbf82610698565b73ffffffffffffffffffffffffffffffffffffffff1614610e15576040517f08c379a0000000000000000000000000000000000000000000000000000000008152600401610e0c9061250f565b60405180910390fd5b600073ffffffffffffffffffffffffffffffffffffffff168273ffffffffffffffffffffffffffffffffffffffff161415610e85576040517f08c379a0000000000000000000000000000000000000000000000000000000008152600401610e7c906125a1565b60405180910390fd5b610e908383836114e8565b610e9b600082610c08565b6001600360008573ffffffffffffffffffffffffffffffffffffffff1673ffffffffffffffffffffffffffffffffffffffff1681526020019081526020016000206000828254610eeb91906125f0565b925050819055506001600360008473ffffffffffffffffffffffffffffffffffffffff1673ffffffffffffffffffffffffffffffffffffffff1681526020019081526020016000206000828254610f429190612624565b92505081905550816002600083815260200190815260200160002060006101000a81548173ffffffffffffffffffffffffffffffffffffffff021916908373ffffffffffffffffffffffffffffffffffffffff160217905550808273ffffffffffffffffffffffffffffffffffffffff168473ffffffffffffffffffffffffffffffffffffffff167fddf252ad1be2c89b69c2b068fc378daa952ba7f163c4a11628f55a4df523b3ef60405160405180910390a4505050565b6001816000016000828254019250508190555050565b600081600001549050919050565b600073ffffffffffffffffffffffffffffffffffffffff168273ffffffffffffffffffffffffffffffffffffffff16141561108f576040517f08c379a0000000000000000000000000000000000000000000000000000000008152600401611086906126c6565b60405180910390fd5b61109881610b94565b156110d8576040517f08c379a00000000000000000000000000000000000000000000000000000000081526004016110cf90612732565b60405180910390fd5b6110e4600083836114e8565b6001600360008473ffffffffffffffffffffffffffffffffffffffff1673ffffffffffffffffffffffffffffffffffffffff16815260200190815260200160002060008282546111349190612624565b92505081905550816002600083815260200190815260200160002060006101000a81548173ffffffffffffffffffffffffffffffffffffffff021916908373ffffffffffffffffffffffffffffffffffffffff160217905550808273ffffffffffffffffffffffffffffffffffffffff16600073ffffffffffffffffffffffffffffffffffffffff167fddf252ad1be2c89b69c2b068fc378daa952ba7f163c4a11628f55a4df523b3ef60405160405180910390a45050565b6111f682610b94565b611235576040517f08c379a000000000000000000000000000000000000000000000000000000000815260040161122c906127c4565b60405180910390fd5b8060066000848152602001908152602001600020908051906020019061125c9291906117e9565b505050565b8173ffffffffffffffffffffffffffffffffffffffff168373ffffffffffffffffffffffffffffffffffffffff1614156112d0576040517f08c379a00000000000000000000000000000000000000000000000000000000081526004016112c790612830565b60405180910390fd5b80600560008573ffffffffffffffffffffffffffffffffffffffff1673ffffffffffffffffffffffffffffffffffffffff16815260200190815260200160002060008473ffffffffffffffffffffffffffffffffffffffff1673ffffffffffffffffffffffffffffffffffffffff16815260200190815260200160002060006101000a81548160ff0219169083151502179055508173ffffffffffffffffffffffffffffffffffffffff168373ffffffffffffffffffffffffffffffffffffffff167f17307eab39ab6107e8899845ad3d59bd9653f200f220920489ca2b5937696c31836040516113c19190611940565b60405180910390a3505050565b6113d9848484610d9f565b6113e5848484846114ed565b611424576040517f08c379a000000000000000000000000000000000000000000000000000000000815260040161141b906128c2565b60405180910390fd5b50505050565b606060405180602001604052806000815250905090565b606061144c82610b94565b61148b576040517f08c379a000000000000000000000000000000000000000000000000000000000815260040161148290612954565b60405180910390fd5b600061149561142a565b905060008151116114b557604051806020016040528060008152506114e0565b806114bf84611675565b6040516020016114d09291906123e7565b6040516020818303038152906040525b915050919050565b505050565b600061150e8473ffffffffffffffffffffffffffffffffffffffff166117d6565b15611668578373ffffffffffffffffffffffffffffffffffffffff1663150b7a02611537610c00565b8786866040518563ffffffff1660e01b815260040161155994939291906129c9565b6020604051808303816000875af192505050801561159557506040513d601f19601f820116820180604052508101906115929190612a2a565b60015b611618573d80600081146115c5576040519150601f19603f3d011682016040523d82523d6000602084013e6115ca565b606091505b50600081511415611610576040517f08c379a0000000000000000000000000000000000000000000000000000000008152600401611607906128c2565b60405180910390fd5b805181602001fd5b63150b7a0260e01b7bffffffffffffffffffffffffffffffffffffffffffffffffffffffff1916817bffffffffffffffffffffffffffffffffffffffffffffffffffffffff19161491505061166d565b600190505b949350505050565b606060008214156116bd576040518060400160405280600181526020017f300000000000000000000000000000000000000000000000000000000000000081525090506117d1565b600082905060005b600082146116ef5780806116d890612a57565b915050600a826116e89190612acf565b91506116c5565b60008167ffffffffffffffff81111561170b5761170a611bf5565b5b6040519080825280601f01601f19166020018201604052801561173d5781602001600182028036833780820191505090505b5090505b600085146117ca5760018261175691906125f0565b9150600a856117659190612b00565b60306117719190612624565b60f81b81838151811061178757611786612b31565b5b60200101907effffffffffffffffffffffffffffffffffffffffffffffffffffffffffffff1916908160001a905350600a856117c39190612acf565b9450611741565b8093505050505b919050565b600080823b905060008111915050919050565b8280546117f590611f7b565b90600052602060002090601f016020900481019282611817576000855561185e565b82601f1061183057805160ff191683800117855561185e565b8280016001018555821561185e579182015b8281111561185d578251825591602001919060010190611842565b5b50905061186b919061186f565b5090565b5b80821115611888576000816000905550600101611870565b5090565b6000604051905090565b600080fd5b600080fd5b60007fffffffff0000000000000000000000000000000000000000000000000000000082169050919050565b6118d5816118a0565b81146118e057600080fd5b50565b6000813590506118f2816118cc565b92915050565b60006020828403121561190e5761190d611896565b5b600061191c848285016118e3565b91505092915050565b60008115159050919050565b61193a81611925565b82525050565b60006020820190506119556000830184611931565b92915050565b600081519050919050565b600082825260208201905092915050565b60005b8381101561199557808201518184015260208101905061197a565b838111156119a4576000848401525b50505050565b6000601f19601f8301169050919050565b60006119c68261195b565b6119d08185611966565b93506119e0818560208601611977565b6119e9816119aa565b840191505092915050565b60006020820190508181036000830152611a0e81846119bb565b905092915050565b6000819050919050565b611a2981611a16565b8114611a3457600080fd5b50565b600081359050611a4681611a20565b92915050565b600060208284031215611a6257611a61611896565b5b6000611a7084828501611a37565b91505092915050565b600073ffffffffffffffffffffffffffffffffffffffff82169050919050565b6000611aa482611a79565b9050919050565b611ab481611a99565b82525050565b6000602082019050611acf6000830184611aab565b92915050565b611ade81611a99565b8114611ae957600080fd5b50565b600081359050611afb81611ad5565b92915050565b60008060408385031215611b1857611b17611896565b5b6000611b2685828601611aec565b9250506020611b3785828601611a37565b9150509250929050565b600080600060608486031215611b5a57611b59611896565b5b6000611b6886828701611aec565b9350506020611b7986828701611aec565b9250506040611b8a86828701611a37565b9150509250925092565b600060208284031215611baa57611ba9611896565b5b6000611bb884828501611aec565b91505092915050565b611bca81611a16565b82525050565b6000602082019050611be56000830184611bc1565b92915050565b600080fd5b600080fd5b7f4e487b7100000000000000000000000000000000000000000000000000000000600052604160045260246000fd5b611c2d826119aa565b810181811067ffffffffffffffff82111715611c4c57611c4b611bf5565b5b80604052505050565b6000611c5f61188c565b9050611c6b8282611c24565b919050565b600067ffffffffffffffff821115611c8b57611c8a611bf5565b5b611c94826119aa565b9050602081019050919050565b82818337600083830152505050565b6000611cc3611cbe84611c70565b611c55565b905082815260208101848484011115611cdf57611cde611bf0565b5b611cea848285611ca1565b509392505050565b600082601f830112611d0757611d06611beb565b5b8135611d17848260208601611cb0565b91505092915050565b60008060408385031215611d3757611d36611896565b5b6000611d4585828601611aec565b925050602083013567ffffffffffffffff811115611d6657611d6561189b565b5b611d7285828601611cf2565b9150509250929050565b611d8581611925565b8114611d9057600080fd5b50565b600081359050611da281611d7c565b92915050565b60008060408385031215611dbf57611dbe611896565b5b6000611dcd85828601611aec565b9250506020611dde85828601611d93565b9150509250929050565b600067ffffffffffffffff821115611e0357611e02611bf5565b5b611e0c826119aa565b9050602081019050919050565b6000611e2c611e2784611de8565b611c55565b905082815260208101848484011115611e4857611e47611bf0565b5b611e53848285611ca1565b509392505050565b600082601f830112611e7057611e6f611beb565b5b8135611e80848260208601611e19565b91505092915050565b60008060008060808587031215611ea357611ea2611896565b5b6000611eb187828801611aec565b9450506020611ec287828801611aec565b9350506040611ed387828801611a37565b925050606085013567ffffffffffffffff811115611ef457611ef361189b565b5b611f0087828801611e5b565b91505092959194509250565b60008060408385031215611f2357611f22611896565b5b6000611f3185828601611aec565b9250506020611f4285828601611aec565b9150509250929050565b7f4e487b7100000000000000000000000000000000000000000000000000000000600052602260045260246000fd5b60006002820490506001821680611f9357607f821691505b60208210811415611fa757611fa6611f4c565b5b50919050565b7f4552433732313a20617070726f76656420717565727920666f72206e6f6e657860008201527f697374656e7420746f6b656e0000000000000000000000000000000000000000602082015250565b6000612009602c83611966565b915061201482611fad565b604082019050919050565b6000602082019050818103600083015261203881611ffc565b9050919050565b7f4552433732313a20617070726f76616c20746f2063757272656e74206f776e6560008201527f7200000000000000000000000000000000000000000000000000000000000000602082015250565b600061209b602183611966565b91506120a68261203f565b604082019050919050565b600060208201905081810360008301526120ca8161208e565b9050919050565b7f4552433732313a20617070726f76652063616c6c6572206973206e6f74206f7760008201527f6e6572206e6f7220617070726f76656420666f7220616c6c0000000000000000602082015250565b600061212d603883611966565b9150612138826120d1565b604082019050919050565b6000602082019050818103600083015261215c81612120565b9050919050565b7f4552433732313a207472616e736665722063616c6c6572206973206e6f74206f60008201527f776e6572206e6f7220617070726f766564000000000000000000000000000000602082015250565b60006121bf603183611966565b91506121ca82612163565b604082019050919050565b600060208201905081810360008301526121ee816121b2565b9050919050565b7f4552433732313a206f776e657220717565727920666f72206e6f6e657869737460008201527f656e7420746f6b656e0000000000000000000000000000000000000000000000602082015250565b6000612251602983611966565b915061225c826121f5565b604082019050919050565b6000602082019050818103600083015261228081612244565b9050919050565b7f4552433732313a2062616c616e636520717565727920666f7220746865207a6560008201527f726f206164647265737300000000000000000000000000000000000000000000602082015250565b60006122e3602a83611966565b91506122ee82612287565b604082019050919050565b60006020820190508181036000830152612312816122d6565b9050919050565b7f45524337323155524953746f726167653a2055524920717565727920666f722060008201527f6e6f6e6578697374656e7420746f6b656e000000000000000000000000000000602082015250565b6000612375603183611966565b915061238082612319565b604082019050919050565b600060208201905081810360008301526123a481612368565b9050919050565b600081905092915050565b60006123c18261195b565b6123cb81856123ab565b93506123db818560208601611977565b80840191505092915050565b60006123f382856123b6565b91506123ff82846123b6565b91508190509392505050565b7f4552433732313a206f70657261746f7220717565727920666f72206e6f6e657860008201527f697374656e7420746f6b656e0000000000000000000000000000000000000000602082015250565b6000612467602c83611966565b91506124728261240b565b604082019050919050565b600060208201905081810360008301526124968161245a565b9050919050565b7f4552433732313a207472616e73666572206f6620746f6b656e2074686174206960008201527f73206e6f74206f776e0000000000000000000000000000000000000000000000602082015250565b60006124f9602983611966565b91506125048261249d565b604082019050919050565b60006020820190508181036000830152612528816124ec565b9050919050565b7f4552433732313a207472616e7366657220746f20746865207a65726f2061646460008201527f7265737300000000000000000000000000000000000000000000000000000000602082015250565b600061258b602483611966565b91506125968261252f565b604082019050919050565b600060208201905081810360008301526125ba8161257e565b9050919050565b7f4e487b7100000000000000000000000000000000000000000000000000000000600052601160045260246000fd5b60006125fb82611a16565b915061260683611a16565b925082821015612619576126186125c1565b5b828203905092915050565b600061262f82611a16565b915061263a83611a16565b9250827fffffffffffffffffffffffffffffffffffffffffffffffffffffffffffffffff0382111561266f5761266e6125c1565b5b828201905092915050565b7f4552433732313a206d696e7420746f20746865207a65726f2061646472657373600082015250565b60006126b0602083611966565b91506126bb8261267a565b602082019050919050565b600060208201905081810360008301526126df816126a3565b9050919050565b7f4552433732313a20746f6b656e20616c7265616479206d696e74656400000000600082015250565b600061271c601c83611966565b9150612727826126e6565b602082019050919050565b6000602082019050818103600083015261274b8161270f565b9050919050565b7f45524337323155524953746f726167653a2055524920736574206f66206e6f6e60008201527f6578697374656e7420746f6b656e000000000000000000000000000000000000602082015250565b60006127ae602e83611966565b91506127b982612752565b604082019050919050565b600060208201905081810360008301526127dd816127a1565b9050919050565b7f4552433732313a20617070726f766520746f2063616c6c657200000000000000600082015250565b600061281a601983611966565b9150612825826127e4565b602082019050919050565b600060208201905081810360008301526128498161280d565b9050919050565b7f4552433732313a207472616e7366657220746f206e6f6e20455243373231526560008201527f63656976657220696d706c656d656e7465720000000000000000000000000000602082015250565b60006128ac603283611966565b91506128b782612850565b604082019050919050565b600060208201905081810360008301526128db8161289f565b9050919050565b7f4552433732314d657461646174613a2055524920717565727920666f72206e6f60008201527f6e6578697374656e7420746f6b656e0000000000000000000000000000000000602082015250565b600061293e602f83611966565b9150612949826128e2565b604082019050919050565b6000602082019050818103600083015261296d81612931565b9050919050565b600081519050919050565b600082825260208201905092915050565b600061299b82612974565b6129a5818561297f565b93506129b5818560208601611977565b6129be816119aa565b840191505092915050565b60006080820190506129de6000830187611aab565b6129eb6020830186611aab565b6129f86040830185611bc1565b8181036060830152612a0a8184612990565b905095945050505050565b600081519050612a24816118cc565b92915050565b600060208284031215612a4057612a3f611896565b5b6000612a4e84828501612a15565b91505092915050565b6000612a6282611a16565b91507fffffffffffffffffffffffffffffffffffffffffffffffffffffffffffffffff821415612a9557612a946125c1565b5b600182019050919050565b7f4e487b7100000000000000000000000000000000000000000000000000000000600052601260045260246000fd5b6000612ada82611a16565b9150612ae583611a16565b925082612af557612af4612aa0565b5b828204905092915050565b6000612b0b82611a16565b9150612b1683611a16565b925082612b2657612b25612aa0565b5b828206905092915050565b7f4e487b7100000000000000000000000000000000000000000000000000000000600052603260045260246000fdfea26469706673582212203ed95f8ccab10d42bda2237eaf888cdf48addcd0858457bcbfcd3f42d87334a064736f6c634300080a0033",
  "immutableReferences": {},
  "source": "// SPDX-License-Identifier: MIT \npragma solidity ^0.8.10;  \n\nimport \"@openzeppelin/contracts/token/ERC721/extensions/ERC721URIStorage.sol\"; \nimport \"@openzeppelin/contracts/utils/Counters.sol\";\n\ncontract Level1Completion is ERC721URIStorage {  \n\n    using Counters for Counters.Counter;\n    Counters.Counter private _tokenIds; \n\n    constructor() ERC721(\"L1Completion\",\"L1C\") {}  \n\n    function awardCertificate(address learner, string memory tokenURI) public returns (uint256) {\n        _tokenIds.increment();\n\n        uint256 newItemId = _tokenIds.current();\n        _mint(learner, newItemId);\n        _setTokenURI(newItemId, tokenURI);\n\n        return newItemId;\n    }\n\n}",
  "sourcePath": "/Users/god/Desktop/level-1-dao/contracts/Level1NFT.sol",
  "compiler": {
    "name": "solc",
    "version": "0.8.10+commit.fc410830.Emscripten.clang"
  },
  "schemaVersion": "3.4.3",
  "updatedAt": "2021-12-06T17:33:38.664Z",
  "networkType": "ethereum",
  "devdoc": {
    "kind": "dev",
    "methods": {
      "approve(address,uint256)": {
        "details": "See {IERC721-approve}."
      },
      "balanceOf(address)": {
        "details": "See {IERC721-balanceOf}."
      },
      "getApproved(uint256)": {
        "details": "See {IERC721-getApproved}."
      },
      "isApprovedForAll(address,address)": {
        "details": "See {IERC721-isApprovedForAll}."
      },
      "name()": {
        "details": "See {IERC721Metadata-name}."
      },
      "ownerOf(uint256)": {
        "details": "See {IERC721-ownerOf}."
      },
      "safeTransferFrom(address,address,uint256)": {
        "details": "See {IERC721-safeTransferFrom}."
      },
      "safeTransferFrom(address,address,uint256,bytes)": {
        "details": "See {IERC721-safeTransferFrom}."
      },
      "setApprovalForAll(address,bool)": {
        "details": "See {IERC721-setApprovalForAll}."
      },
      "supportsInterface(bytes4)": {
        "details": "See {IERC165-supportsInterface}."
      },
      "symbol()": {
        "details": "See {IERC721Metadata-symbol}."
      },
      "tokenURI(uint256)": {
        "details": "See {IERC721Metadata-tokenURI}."
      },
      "transferFrom(address,address,uint256)": {
        "details": "See {IERC721-transferFrom}."
      }
    },
    "version": 1
  },
  "userdoc": {
    "kind": "user",
    "methods": {},
    "version": 1
  }
}